{"abi":[{"type":"constructor","inputs":[{"name":"_eas","type":"address","internalType":"contract IEAS"},{"name":"_schemaRegistry","type":"address","internalType":"contract ISchemaRegistry"}],"stateMutability":"nonpayable"},{"type":"receive","stateMutability":"payable"},{"type":"function","name":"ATTESTATION_SCHEMA","inputs":[],"outputs":[{"name":"","type":"bytes32","internalType":"bytes32"}],"stateMutability":"view"},{"type":"function","name":"attest","inputs":[{"name":"attestation","type":"tuple","internalType":"struct Attestation","components":[{"name":"uid","type":"bytes32","internalType":"bytes32"},{"name":"schema","type":"bytes32","internalType":"bytes32"},{"name":"time","type":"uint64","internalType":"uint64"},{"name":"expirationTime","type":"uint64","internalType":"uint64"},{"name":"revocationTime","type":"uint64","internalType":"uint64"},{"name":"refUID","type":"bytes32","internalType":"bytes32"},{"name":"recipient","type":"address","internalType":"address"},{"name":"attester","type":"address","internalType":"address"},{"name":"revocable","type":"bool","internalType":"bool"},{"name":"data","type":"bytes","internalType":"bytes"}]}],"outputs":[{"name":"","type":"bool","internalType":"bool"}],"stateMutability":"payable"},{"type":"function","name":"checkObligation","inputs":[{"name":"obligation","type":"tuple","internalType":"struct Attestation","components":[{"name":"uid","type":"bytes32","internalType":"bytes32"},{"name":"schema","type":"bytes32","internalType":"bytes32"},{"name":"time","type":"uint64","internalType":"uint64"},{"name":"expirationTime","type":"uint64","internalType":"uint64"},{"name":"revocationTime","type":"uint64","internalType":"uint64"},{"name":"refUID","type":"bytes32","internalType":"bytes32"},{"name":"recipient","type":"address","internalType":"address"},{"name":"attester","type":"address","internalType":"address"},{"name":"revocable","type":"bool","internalType":"bool"},{"name":"data","type":"bytes","internalType":"bytes"}]},{"name":"demand","type":"bytes","internalType":"bytes"},{"name":"","type":"bytes32","internalType":"bytes32"}],"outputs":[{"name":"","type":"bool","internalType":"bool"}],"stateMutability":"view"},{"type":"function","name":"collectEscrow","inputs":[{"name":"_escrow","type":"bytes32","internalType":"bytes32"},{"name":"_fulfillment","type":"bytes32","internalType":"bytes32"}],"outputs":[{"name":"","type":"bytes32","internalType":"bytes32"}],"stateMutability":"nonpayable"},{"type":"function","name":"decodeObligationData","inputs":[{"name":"data","type":"bytes","internalType":"bytes"}],"outputs":[{"name":"","type":"tuple","internalType":"struct AttestationEscrowObligation.ObligationData","components":[{"name":"arbiter","type":"address","internalType":"address"},{"name":"demand","type":"bytes","internalType":"bytes"},{"name":"attestation","type":"tuple","internalType":"struct AttestationRequest","components":[{"name":"schema","type":"bytes32","internalType":"bytes32"},{"name":"data","type":"tuple","internalType":"struct AttestationRequestData","components":[{"name":"recipient","type":"address","internalType":"address"},{"name":"expirationTime","type":"uint64","internalType":"uint64"},{"name":"revocable","type":"bool","internalType":"bool"},{"name":"refUID","type":"bytes32","internalType":"bytes32"},{"name":"data","type":"bytes","internalType":"bytes"},{"name":"value","type":"uint256","internalType":"uint256"}]}]}]}],"stateMutability":"pure"},{"type":"function","name":"doObligation","inputs":[{"name":"data","type":"tuple","internalType":"struct AttestationEscrowObligation.ObligationData","components":[{"name":"arbiter","type":"address","internalType":"address"},{"name":"demand","type":"bytes","internalType":"bytes"},{"name":"attestation","type":"tuple","internalType":"struct AttestationRequest","components":[{"name":"schema","type":"bytes32","internalType":"bytes32"},{"name":"data","type":"tuple","internalType":"struct AttestationRequestData","components":[{"name":"recipient","type":"address","internalType":"address"},{"name":"expirationTime","type":"uint64","internalType":"uint64"},{"name":"revocable","type":"bool","internalType":"bool"},{"name":"refUID","type":"bytes32","internalType":"bytes32"},{"name":"data","type":"bytes","internalType":"bytes"},{"name":"value","type":"uint256","internalType":"uint256"}]}]}]},{"name":"expirationTime","type":"uint64","internalType":"uint64"}],"outputs":[{"name":"uid_","type":"bytes32","internalType":"bytes32"}],"stateMutability":"nonpayable"},{"type":"function","name":"doObligationFor","inputs":[{"name":"data","type":"tuple","internalType":"struct AttestationEscrowObligation.ObligationData","components":[{"name":"arbiter","type":"address","internalType":"address"},{"name":"demand","type":"bytes","internalType":"bytes"},{"name":"attestation","type":"tuple","internalType":"struct AttestationRequest","components":[{"name":"schema","type":"bytes32","internalType":"bytes32"},{"name":"data","type":"tuple","internalType":"struct AttestationRequestData","components":[{"name":"recipient","type":"address","internalType":"address"},{"name":"expirationTime","type":"uint64","internalType":"uint64"},{"name":"revocable","type":"bool","internalType":"bool"},{"name":"refUID","type":"bytes32","internalType":"bytes32"},{"name":"data","type":"bytes","internalType":"bytes"},{"name":"value","type":"uint256","internalType":"uint256"}]}]}]},{"name":"expirationTime","type":"uint64","internalType":"uint64"},{"name":"recipient","type":"address","internalType":"address"}],"outputs":[{"name":"uid_","type":"bytes32","internalType":"bytes32"}],"stateMutability":"nonpayable"},{"type":"function","name":"getObligation","inputs":[{"name":"uid","type":"bytes32","internalType":"bytes32"}],"outputs":[{"name":"","type":"tuple","internalType":"struct Attestation","components":[{"name":"uid","type":"bytes32","internalType":"bytes32"},{"name":"schema","type":"bytes32","internalType":"bytes32"},{"name":"time","type":"uint64","internalType":"uint64"},{"name":"expirationTime","type":"uint64","internalType":"uint64"},{"name":"revocationTime","type":"uint64","internalType":"uint64"},{"name":"refUID","type":"bytes32","internalType":"bytes32"},{"name":"recipient","type":"address","internalType":"address"},{"name":"attester","type":"address","internalType":"address"},{"name":"revocable","type":"bool","internalType":"bool"},{"name":"data","type":"bytes","internalType":"bytes"}]}],"stateMutability":"view"},{"type":"function","name":"getObligationData","inputs":[{"name":"uid","type":"bytes32","internalType":"bytes32"}],"outputs":[{"name":"","type":"tuple","internalType":"struct AttestationEscrowObligation.ObligationData","components":[{"name":"arbiter","type":"address","internalType":"address"},{"name":"demand","type":"bytes","internalType":"bytes"},{"name":"attestation","type":"tuple","internalType":"struct AttestationRequest","components":[{"name":"schema","type":"bytes32","internalType":"bytes32"},{"name":"data","type":"tuple","internalType":"struct AttestationRequestData","components":[{"name":"recipient","type":"address","internalType":"address"},{"name":"expirationTime","type":"uint64","internalType":"uint64"},{"name":"revocable","type":"bool","internalType":"bool"},{"name":"refUID","type":"bytes32","internalType":"bytes32"},{"name":"data","type":"bytes","internalType":"bytes"},{"name":"value","type":"uint256","internalType":"uint256"}]}]}]}],"stateMutability":"view"},{"type":"function","name":"getSchema","inputs":[],"outputs":[{"name":"","type":"tuple","internalType":"struct SchemaRecord","components":[{"name":"uid","type":"bytes32","internalType":"bytes32"},{"name":"resolver","type":"address","internalType":"contract ISchemaResolver"},{"name":"revocable","type":"bool","internalType":"bool"},{"name":"schema","type":"string","internalType":"string"}]}],"stateMutability":"view"},{"type":"function","name":"isPayable","inputs":[],"outputs":[{"name":"","type":"bool","internalType":"bool"}],"stateMutability":"pure"},{"type":"function","name":"multiAttest","inputs":[{"name":"attestations","type":"tuple[]","internalType":"struct Attestation[]","components":[{"name":"uid","type":"bytes32","internalType":"bytes32"},{"name":"schema","type":"bytes32","internalType":"bytes32"},{"name":"time","type":"uint64","internalType":"uint64"},{"name":"expirationTime","type":"uint64","internalType":"uint64"},{"name":"revocationTime","type":"uint64","internalType":"uint64"},{"name":"refUID","type":"bytes32","internalType":"bytes32"},{"name":"recipient","type":"address","internalType":"address"},{"name":"attester","type":"address","internalType":"address"},{"name":"revocable","type":"bool","internalType":"bool"},{"name":"data","type":"bytes","internalType":"bytes"}]},{"name":"values","type":"uint256[]","internalType":"uint256[]"}],"outputs":[{"name":"","type":"bool","internalType":"bool"}],"stateMutability":"payable"},{"type":"function","name":"multiRevoke","inputs":[{"name":"attestations","type":"tuple[]","internalType":"struct Attestation[]","components":[{"name":"uid","type":"bytes32","internalType":"bytes32"},{"name":"schema","type":"bytes32","internalType":"bytes32"},{"name":"time","type":"uint64","internalType":"uint64"},{"name":"expirationTime","type":"uint64","internalType":"uint64"},{"name":"revocationTime","type":"uint64","internalType":"uint64"},{"name":"refUID","type":"bytes32","internalType":"bytes32"},{"name":"recipient","type":"address","internalType":"address"},{"name":"attester","type":"address","internalType":"address"},{"name":"revocable","type":"bool","internalType":"bool"},{"name":"data","type":"bytes","internalType":"bytes"}]},{"name":"values","type":"uint256[]","internalType":"uint256[]"}],"outputs":[{"name":"","type":"bool","internalType":"bool"}],"stateMutability":"payable"},{"type":"function","name":"revoke","inputs":[{"name":"attestation","type":"tuple","internalType":"struct Attestation","components":[{"name":"uid","type":"bytes32","internalType":"bytes32"},{"name":"schema","type":"bytes32","internalType":"bytes32"},{"name":"time","type":"uint64","internalType":"uint64"},{"name":"expirationTime","type":"uint64","internalType":"uint64"},{"name":"revocationTime","type":"uint64","internalType":"uint64"},{"name":"refUID","type":"bytes32","internalType":"bytes32"},{"name":"recipient","type":"address","internalType":"address"},{"name":"attester","type":"address","internalType":"address"},{"name":"revocable","type":"bool","internalType":"bool"},{"name":"data","type":"bytes","internalType":"bytes"}]}],"outputs":[{"name":"","type":"bool","internalType":"bool"}],"stateMutability":"payable"},{"type":"function","name":"version","inputs":[],"outputs":[{"name":"","type":"string","internalType":"string"}],"stateMutability":"view"},{"type":"event","name":"EscrowClaimed","inputs":[{"name":"payment","type":"bytes32","indexed":true,"internalType":"bytes32"},{"name":"fulfillment","type":"bytes32","indexed":true,"internalType":"bytes32"},{"name":"fulfiller","type":"address","indexed":true,"internalType":"address"}],"anonymous":false},{"type":"event","name":"EscrowMade","inputs":[{"name":"payment","type":"bytes32","indexed":true,"internalType":"bytes32"},{"name":"buyer","type":"address","indexed":true,"internalType":"address"}],"anonymous":false},{"type":"error","name":"AccessDenied","inputs":[]},{"type":"error","name":"AttestationCreationFailed","inputs":[]},{"type":"error","name":"AttestationNotFound","inputs":[{"name":"attestationId","type":"bytes32","internalType":"bytes32"}]},{"type":"error","name":"AttestationRevoked","inputs":[]},{"type":"error","name":"DeadlineExpired","inputs":[]},{"type":"error","name":"InsufficientValue","inputs":[]},{"type":"error","name":"InvalidEAS","inputs":[]},{"type":"error","name":"InvalidEscrowAttestation","inputs":[]},{"type":"error","name":"InvalidFulfillment","inputs":[]},{"type":"error","name":"InvalidLength","inputs":[]},{"type":"error","name":"InvalidSchema","inputs":[]},{"type":"error","name":"NotFromObligation","inputs":[]},{"type":"error","name":"NotPayable","inputs":[]},{"type":"error","name":"RevocationFailed","inputs":[{"name":"attestationId","type":"bytes32","internalType":"bytes32"}]},{"type":"error","name":"UnauthorizedCall","inputs":[]}],"bytecode":{"object":"0x610160806040523461028b57604081611d8a803803809161002082856102c5565b83398101031261028b5780516001600160a01b0381169182820361028b5760200151916001600160a01b03831680840361028b5760405160e081016001600160401b038111828210176102b15760405260b1815260208101927f6164647265737320617262697465722c2062797465732064656d616e642c207484527f75706c65286279746573333220736368656d612c207475706c6528616464726560408301527f737320726563697069656e742c2075696e7436342065787069726174696f6e5460608301527f696d652c20626f6f6c207265766f6361626c652c20627974657333322072656660808301527f5549442c20627974657320646174612c2075696e743235362076616c7565292060a0830152703230ba30949030ba3a32b9ba30ba34b7b760791b60c08301526001608052600460a0525f60c052156102a2576084948460209560e05261012052610100525f604051958680958194630c1af44f60e31b8352606060048401525180918160648501528484015e818101830184905230602483015260016044830152601f01601f191681010301925af1908115610297575f91610261575b5061014052604051611aa190816102e98239608051816108a5015260a051816108d1015260c051816108fc015260e05181611a1301526101005181610712015261012051818181610478015281816105fa015281816109ca015261163f0152610140518181816104b80152818161063a015281816106e00152818161086101528181610b14015281816115f401526117330152f35b90506020813d60201161028f575b8161027c602093836102c5565b8101031261028b57515f6101cc565b5f80fd5b3d915061026f565b6040513d5f823e3d90fd5b6341bc07ff60e11b5f5260045ffd5b634e487b7160e01b5f52604160045260245ffd5b601f909101601f19168101906001600160401b038211908210176102b15760405256fe60806040526004361015610027575b3615610018575f80fd5b631574f9f360e01b5f5260045ffd5b5f5f3560e01c80632c713cd91461098957806354fd4d50146108845780635bf2f20d146108495780636b122fe01461069f5780637f9e0fd2146105c257806388e5b2d9146105a357806391db0b7e146105a35780639c13d80e14610543578063c6ec507014610440578063c93844be14610287578063cce1f56114610235578063ce46e04614610219578063e49617e1146101fe578063e60c3505146101fe5763e6c9714d146100d7575061000e565b346101f75760603660031901126101f757600435906001600160401b0382116101f75761014060031983360301126101f7576040519161011683610ff6565b806004013583526024810135602084015261013360448201610e64565b604084015261014460648201610e64565b606084015261015560848201610e64565b608084015260a481013560a084015261017060c48201610e78565b60c084015261018160e48201610e78565b60e08401526101936101048201611033565b6101008401526101248101356001600160401b0381116101fa576101bc9136910160040161105b565b610120830152602435906001600160401b0382116101f75760206101ed846101e7366004870161105b565b90611731565b6040519015158152f35b80fd5b8280fd5b60206101ed61020c36610f42565b610214611a11565b611a52565b50346101f757806003193601126101f757602090604051908152f35b50346101f75760403660031901126101f757600435906001600160401b0382116101f757606060031983360301126101f757602061027f83610275610e4e565b3391600401611491565b604051908152f35b50346101f75760203660031901126101f757600435906001600160401b0382116101f757366023830112156101f75781600401356001600160401b0381116104385782019160248301903682116101fa576102e06116d3565b506020818503126101fa576024810135906001600160401b03821161043c5701916060838503126101f7576040519261031884610fc0565b61032460248201610e78565b845260448101356001600160401b0381116101fa578360246103489284010161105b565b60208501526064810135906001600160401b0382116101fa5701602481019290604090860312610438576040519261037f84610f76565b803584526020810135906001600160401b03821161043c5760c09160249101809703011261043857604051916103b483610fdb565b6103bd86610e78565b83526103cb60208701610e64565b60208401526103dc60408701611033565b6040840152606086013560608401526080860135906001600160401b0382116101f757509461041260a09261043497830161105b565b6080840152013560a08201526020820152604082015260405191829182610efb565b0390f35b5080fd5b8380fd5b50346101f75760203660031901126101f75761045a6116d3565b506040516328c44a9960e21b815260048035908201529080826024817f00000000000000000000000000000000000000000000000000000000000000006001600160a01b03165afa918215610536578192610512575b5060208201517f000000000000000000000000000000000000000000000000000000000000000003610503576104346104f76101208401516020808251830101910161124b565b60405191829182610efb565b63629cd40b60e11b8152600490fd5b61052f9192503d8084833e6105278183611012565b810190611170565b905f6104b0565b50604051903d90823e3d90fd5b50346101f75760603660031901126101f7576004356001600160401b03811161043857606060031982360301126104385761057c610e4e565b604435929091906001600160a01b03841684036101f757602061027f858585600401611491565b60206101ed6105b136610dfe565b926105bd929192611a11565b6113c4565b50346101f75760203660031901126101f7576105dc6110a1565b506040516328c44a9960e21b815260048035908201529080826024817f00000000000000000000000000000000000000000000000000000000000000006001600160a01b03165afa918215610536578192610683575b5060208201517f000000000000000000000000000000000000000000000000000000000000000003610674576040516020808252819061043490820185610d2c565b6360000df160e11b8152600490fd5b6106989192503d8084833e6105278183611012565b905f610632565b50346101f757806003193601126101f7576060806040516106bf81610fa5565b8381528360208201528360408201520152604051906351753e3760e11b82527f00000000000000000000000000000000000000000000000000000000000000006004830152808260248160018060a01b037f0000000000000000000000000000000000000000000000000000000000000000165afa90811561083d578091610788575b606082610434604051928392602084528051602085015260018060a01b0360208201511660408501526040810151151582850152015160808084015260a0830190610d08565b90503d8082843e6107998184611012565b820191602081840312610438578051906001600160401b0382116101fa5701906080828403126101f757604051916107d083610fa5565b8051835260208101516001600160a01b03811681036101fa5760208401526107fa60408201611113565b60408401526060810151906001600160401b0382116101fa57019083601f830112156101f7575060609281602061083393519101611120565b828201525f610742565b604051903d90823e3d90fd5b50346101f757806003193601126101f75760206040517f00000000000000000000000000000000000000000000000000000000000000008152f35b50346101f757806003193601126101f75760206109756001610434936108c97f00000000000000000000000000000000000000000000000000000000000000006118a4565b9082856108f57f00000000000000000000000000000000000000000000000000000000000000006118a4565b81806109207f00000000000000000000000000000000000000000000000000000000000000006118a4565b926040519a888c995191829101848b015e880190601760f91b83830152805192839101602183015e010190601760f91b84830152805192839101600283015e010190838201520301601f198101835282611012565b604051918291602083526020830190610d08565b5034610c4c576040366003190112610c4c57600435602435916109aa6110a1565b506109b36110a1565b506040516328c44a9960e21b8152600481018390527f00000000000000000000000000000000000000000000000000000000000000006001600160a01b0316905f81602481855afa5f9181610cec575b50610a1b57836301fb6dd160e01b5f5260045260245ffd5b906040516328c44a9960e21b81528560048201525f81602481855afa5f9181610cd0575b50610a5757856301fb6dd160e01b5f5260045260245ffd5b90859192610a6481611849565b15610cc157610a816101208201516020808251830101910161124b565b906020610ad260018060a01b038451168285015193519360405180958194829363e6c9714d60e01b845260606004850152610ac08d6064860190610d2c565b84810360031901602486015290610d08565b90604483015203915afa908115610cb6575f91610c7c575b5015610c6d57604051610afc81610f76565b8681525f602082015260405190610b1282610f76565b7f0000000000000000000000000000000000000000000000000000000000000000825260208201908152833b15610c4c57604051634692626760e01b81529151600483015251805160248301526020015160448201525f8160648183875af19081610c58575b50610b915763614cf93960e01b85526004869052602485fd5b610bc2859693926040602093015160405198898094819363f17325e760e01b83528760048401526024830190610e8c565b03925af180958596610c20575b50610be357638d7100d760e01b8452600484fd5b6020949260c060018060a01b0391015116917fd903ca32e81477af89f5b8a6ce888d185cc715390e49474a77b4c6846254cccd6040519580a48152f35b9095506020813d602011610c50575b81610c3c60209383611012565b81010312610c4c57519486610bcf565b5f80fd5b3d9150610c2f565b610c659196505f90611012565b5f9487610b78565b630ebe58ef60e11b5f5260045ffd5b90506020813d602011610cae575b81610c9760209383611012565b81010312610c4c57610ca890611113565b87610aea565b3d9150610c8a565b6040513d5f823e3d90fd5b63629cd40b60e11b5f5260045ffd5b610ce59192503d805f833e6105278183611012565b905f610a3f565b610d019192503d805f833e6105278183611012565b905f610a03565b805180835260209291819084018484015e5f828201840152601f01601f1916010190565b90610140610120610dcb9380518452602081015160208501526001600160401b0360408201511660408501526001600160401b0360608201511660608501526001600160401b03608082015116608085015260a081015160a085015260018060a01b0360c08201511660c085015260018060a01b0360e08201511660e08501526101008101511515610100850152015191816101208201520190610d08565b90565b9181601f84011215610c4c578235916001600160401b038311610c4c576020808501948460051b010111610c4c57565b6040600319820112610c4c576004356001600160401b038111610c4c5781610e2891600401610dce565b92909291602435906001600160401b038211610c4c57610e4a91600401610dce565b9091565b602435906001600160401b0382168203610c4c57565b35906001600160401b0382168203610c4c57565b35906001600160a01b0382168203610c4c57565b602090805183520151906040602082015260018060a01b0382511660408201526001600160401b036020830151166060820152604082015115156080820152606082015160a082015260e060a0610ef2608085015160c080860152610100850190610d08565b93015191015290565b90610dcb916020815260018060a01b0382511660208201526040610f2d60208401516060838501526080840190610d08565b920151906060601f1982850301910152610e8c565b6020600319820112610c4c57600435906001600160401b038211610c4c57610140908290036003190112610c4c5760040190565b604081019081106001600160401b03821117610f9157604052565b634e487b7160e01b5f52604160045260245ffd5b608081019081106001600160401b03821117610f9157604052565b606081019081106001600160401b03821117610f9157604052565b60c081019081106001600160401b03821117610f9157604052565b61014081019081106001600160401b03821117610f9157604052565b90601f801991011681019081106001600160401b03821117610f9157604052565b35908115158203610c4c57565b6001600160401b038111610f9157601f01601f191660200190565b81601f82011215610c4c5780359061107282611040565b926110806040519485611012565b82845260208383010111610c4c57815f926020809301838601378301015290565b604051906110ae82610ff6565b6060610120835f81525f60208201525f60408201525f838201525f60808201525f60a08201525f60c08201525f60e08201525f6101008201520152565b51906001600160401b0382168203610c4c57565b51906001600160a01b0382168203610c4c57565b51908115158203610c4c57565b92919261112c82611040565b9161113a6040519384611012565b829481845281830111610c4c578281602093845f96015e010152565b9080601f83011215610c4c578151610dcb92602001611120565b602081830312610c4c578051906001600160401b038211610c4c570161014081830312610c4c57604051916111a483610ff6565b81518352602082015160208401526111be604083016110eb565b60408401526111cf606083016110eb565b60608401526111e0608083016110eb565b608084015260a082015160a08401526111fb60c083016110ff565b60c084015261120c60e083016110ff565b60e084015261121e6101008301611113565b6101008401526101208201516001600160401b038111610c4c576112429201611156565b61012082015290565b602081830312610c4c578051906001600160401b038211610c4c570190606082820312610c4c576040519161127f83610fc0565b611288816110ff565b835260208101516001600160401b038111610c4c57826112a9918301611156565b60208401526040810151906001600160401b038211610c4c570190604082820312610c4c57604051916112db83610f76565b805183526020810151906001600160401b038211610c4c57019060c082820312610c4c576040519161130c83610fdb565b611315816110ff565b8352611323602082016110eb565b602084015261133460408201611113565b60408401526060810151606084015260808101516001600160401b038111610c4c5760a092611364918301611156565b6080840152015160a08201526020820152604082015290565b919081101561138d5760051b0190565b634e487b7160e01b5f52603260045260245ffd5b919081101561138d5760051b8101359061013e1981360301821215610c4c570190565b92909192818303611431575f91345b8484106113e557505050505050600190565b6113f084838861137d565b35818111611422576114066102148688876113a1565b1561141757600191039301926113d3565b505050505050505f90565b63044044a560e21b5f5260045ffd5b63251f56a160e21b5f5260045ffd5b9035601e1982360301811215610c4c5701602081359101916001600160401b038211610c4c578136038313610c4c57565b908060209392818452848401375f828201840152601f01601f1916010190565b60405160208082015293926001600160a01b036114ad83610e78565b1660408601526114d36114c36020840184611440565b60608089015260a0880191611471565b916040810135603e1982360301811215610c4c57868403603f190160808801520180358352602081013595903681900360be1901871215610c4c57816020946115a79261163a99019060408782015260018060a01b0361153283610e78565b1660408201526001600160401b0361154b888401610e64565b16606082015261155d60408301611033565b15156080820152606082013560a082015260e060a06115936115826080860186611440565b60c080870152610100860191611471565b93013591015203601f198101835282611012565b6001600160401b03604051926115bc84610fdb565b60018060a01b0316948584521683830152600160408301525f606083015260808201525f60a0820152604051906115f282610f76565b7f00000000000000000000000000000000000000000000000000000000000000008252828201526040518095819263f17325e760e01b83528460048401526024830190610e8c565b03815f7f00000000000000000000000000000000000000000000000000000000000000006001600160a01b03165af1928315610cb6575f9361169f575b50827f8f7f2dbafd79125e808bf16a53d7fa4e17b8b6374ced76d946a45f94b7bf4d065f80a3565b9092506020813d6020116116cb575b816116bb60209383611012565b81010312610c4c5751915f611677565b3d91506116ae565b604051906116e082610fc0565b815f81526060602082015260408051916116f983610f76565b5f8352815161170781610fdb565b5f81525f60208201525f838201525f6060820152606060808201525f60a082015260208401520152565b7f000000000000000000000000000000000000000000000000000000000000000060208201510361183a5761176581611849565b15611834576117856101206117959201516020808251830101910161124b565b916020808251830101910161124b565b60408201516040516117c5816117b76020820194602086526040830190610e8c565b03601f198101835282611012565b51902060408201516040516117ea816117b76020820194602086526040830190610e8c565b51902014918261181b575b826117ff57505090565b6020919250810151818151910120910151602081519101201490565b805182516001600160a01b0390811691161492506117f5565b50505f90565b635f9bd90760e11b5f5260045ffd5b6001600160401b03606082015116801515908161189a575b5061188b57608001516001600160401b031661187c57600190565b637b6227e960e11b5f5260045ffd5b631ab7da6b60e01b5f5260045ffd5b905042115f611861565b805f9172184f03e93ff9f4daa797ed6e38ed64bf6a1f0160401b8210156119ee575b806d04ee2d6d415b85acef8100000000600a9210156119d3575b662386f26fc100008110156119bf575b6305f5e1008110156119ae575b61271081101561199f575b6064811015611991575b1015611986575b600a6021600184019361192b85611040565b946119396040519687611012565b808652611948601f1991611040565b013660208701378401015b5f1901916f181899199a1a9b1b9c1cb0b131b232b360811b8282061a835304801561198157600a9091611953565b505090565b600190910190611919565b606460029104930192611912565b61271060049104930192611908565b6305f5e100600891049301926118fd565b662386f26fc10000601091049301926118f0565b6d04ee2d6d415b85acef8100000000602091049301926118e0565b506040915072184f03e93ff9f4daa797ed6e38ed64bf6a1f0160401b81046118c6565b7f00000000000000000000000000000000000000000000000000000000000000006001600160a01b03163303611a4357565b634ca8886760e01b5f5260045ffd5b60e0013560018060a01b038116809103610c4c5730149056fea264697066735822122079ccf887706b7e89ba4c84752106a014b0b5846522d84335f6786196f83b7fe164736f6c634300081c0033","linkReferences":{}},"methodIdentifiers":{"ATTESTATION_SCHEMA()":"5bf2f20d","attest((bytes32,bytes32,uint64,uint64,uint64,bytes32,address,address,bool,bytes))":"e60c3505","checkObligation((bytes32,bytes32,uint64,uint64,uint64,bytes32,address,address,bool,bytes),bytes,bytes32)":"e6c9714d","collectEscrow(bytes32,bytes32)":"2c713cd9","decodeObligationData(bytes)":"c93844be","doObligation((address,bytes,(bytes32,(address,uint64,bool,bytes32,bytes,uint256))),uint64)":"cce1f561","doObligationFor((address,bytes,(bytes32,(address,uint64,bool,bytes32,bytes,uint256))),uint64,address)":"9c13d80e","getObligation(bytes32)":"7f9e0fd2","getObligationData(bytes32)":"c6ec5070","getSchema()":"6b122fe0","isPayable()":"ce46e046","multiAttest((bytes32,bytes32,uint64,uint64,uint64,bytes32,address,address,bool,bytes)[],uint256[])":"91db0b7e","multiRevoke((bytes32,bytes32,uint64,uint64,uint64,bytes32,address,address,bool,bytes)[],uint256[])":"88e5b2d9","revoke((bytes32,bytes32,uint64,uint64,uint64,bytes32,address,address,bool,bytes))":"e49617e1","version()":"54fd4d50"},"id":109}