{"abi":[{"type":"constructor","inputs":[{"name":"_eas","type":"address","internalType":"contract IEAS"},{"name":"_schemaRegistry","type":"address","internalType":"contract ISchemaRegistry"}],"stateMutability":"nonpayable"},{"type":"receive","stateMutability":"payable"},{"type":"function","name":"ATTESTATION_SCHEMA","inputs":[],"outputs":[{"name":"","type":"bytes32","internalType":"bytes32"}],"stateMutability":"view"},{"type":"function","name":"VALIDATION_SCHEMA","inputs":[],"outputs":[{"name":"","type":"bytes32","internalType":"bytes32"}],"stateMutability":"view"},{"type":"function","name":"attest","inputs":[{"name":"attestation","type":"tuple","internalType":"struct Attestation","components":[{"name":"uid","type":"bytes32","internalType":"bytes32"},{"name":"schema","type":"bytes32","internalType":"bytes32"},{"name":"time","type":"uint64","internalType":"uint64"},{"name":"expirationTime","type":"uint64","internalType":"uint64"},{"name":"revocationTime","type":"uint64","internalType":"uint64"},{"name":"refUID","type":"bytes32","internalType":"bytes32"},{"name":"recipient","type":"address","internalType":"address"},{"name":"attester","type":"address","internalType":"address"},{"name":"revocable","type":"bool","internalType":"bool"},{"name":"data","type":"bytes","internalType":"bytes"}]}],"outputs":[{"name":"","type":"bool","internalType":"bool"}],"stateMutability":"payable"},{"type":"function","name":"checkObligation","inputs":[{"name":"obligation","type":"tuple","internalType":"struct Attestation","components":[{"name":"uid","type":"bytes32","internalType":"bytes32"},{"name":"schema","type":"bytes32","internalType":"bytes32"},{"name":"time","type":"uint64","internalType":"uint64"},{"name":"expirationTime","type":"uint64","internalType":"uint64"},{"name":"revocationTime","type":"uint64","internalType":"uint64"},{"name":"refUID","type":"bytes32","internalType":"bytes32"},{"name":"recipient","type":"address","internalType":"address"},{"name":"attester","type":"address","internalType":"address"},{"name":"revocable","type":"bool","internalType":"bool"},{"name":"data","type":"bytes","internalType":"bytes"}]},{"name":"demand","type":"bytes","internalType":"bytes"},{"name":"","type":"bytes32","internalType":"bytes32"}],"outputs":[{"name":"","type":"bool","internalType":"bool"}],"stateMutability":"view"},{"type":"function","name":"collectEscrow","inputs":[{"name":"_escrow","type":"bytes32","internalType":"bytes32"},{"name":"_fulfillment","type":"bytes32","internalType":"bytes32"}],"outputs":[{"name":"","type":"bytes32","internalType":"bytes32"}],"stateMutability":"nonpayable"},{"type":"function","name":"decodeObligationData","inputs":[{"name":"data","type":"bytes","internalType":"bytes"}],"outputs":[{"name":"","type":"tuple","internalType":"struct AttestationEscrowObligation2.ObligationData","components":[{"name":"arbiter","type":"address","internalType":"address"},{"name":"demand","type":"bytes","internalType":"bytes"},{"name":"attestationUid","type":"bytes32","internalType":"bytes32"}]}],"stateMutability":"pure"},{"type":"function","name":"doObligation","inputs":[{"name":"data","type":"tuple","internalType":"struct AttestationEscrowObligation2.ObligationData","components":[{"name":"arbiter","type":"address","internalType":"address"},{"name":"demand","type":"bytes","internalType":"bytes"},{"name":"attestationUid","type":"bytes32","internalType":"bytes32"}]},{"name":"expirationTime","type":"uint64","internalType":"uint64"}],"outputs":[{"name":"uid_","type":"bytes32","internalType":"bytes32"}],"stateMutability":"nonpayable"},{"type":"function","name":"doObligationFor","inputs":[{"name":"data","type":"tuple","internalType":"struct AttestationEscrowObligation2.ObligationData","components":[{"name":"arbiter","type":"address","internalType":"address"},{"name":"demand","type":"bytes","internalType":"bytes"},{"name":"attestationUid","type":"bytes32","internalType":"bytes32"}]},{"name":"expirationTime","type":"uint64","internalType":"uint64"},{"name":"recipient","type":"address","internalType":"address"}],"outputs":[{"name":"uid_","type":"bytes32","internalType":"bytes32"}],"stateMutability":"nonpayable"},{"type":"function","name":"getObligation","inputs":[{"name":"uid","type":"bytes32","internalType":"bytes32"}],"outputs":[{"name":"","type":"tuple","internalType":"struct Attestation","components":[{"name":"uid","type":"bytes32","internalType":"bytes32"},{"name":"schema","type":"bytes32","internalType":"bytes32"},{"name":"time","type":"uint64","internalType":"uint64"},{"name":"expirationTime","type":"uint64","internalType":"uint64"},{"name":"revocationTime","type":"uint64","internalType":"uint64"},{"name":"refUID","type":"bytes32","internalType":"bytes32"},{"name":"recipient","type":"address","internalType":"address"},{"name":"attester","type":"address","internalType":"address"},{"name":"revocable","type":"bool","internalType":"bool"},{"name":"data","type":"bytes","internalType":"bytes"}]}],"stateMutability":"view"},{"type":"function","name":"getObligationData","inputs":[{"name":"uid","type":"bytes32","internalType":"bytes32"}],"outputs":[{"name":"","type":"tuple","internalType":"struct AttestationEscrowObligation2.ObligationData","components":[{"name":"arbiter","type":"address","internalType":"address"},{"name":"demand","type":"bytes","internalType":"bytes"},{"name":"attestationUid","type":"bytes32","internalType":"bytes32"}]}],"stateMutability":"view"},{"type":"function","name":"getSchema","inputs":[],"outputs":[{"name":"","type":"tuple","internalType":"struct SchemaRecord","components":[{"name":"uid","type":"bytes32","internalType":"bytes32"},{"name":"resolver","type":"address","internalType":"contract ISchemaResolver"},{"name":"revocable","type":"bool","internalType":"bool"},{"name":"schema","type":"string","internalType":"string"}]}],"stateMutability":"view"},{"type":"function","name":"isPayable","inputs":[],"outputs":[{"name":"","type":"bool","internalType":"bool"}],"stateMutability":"pure"},{"type":"function","name":"multiAttest","inputs":[{"name":"attestations","type":"tuple[]","internalType":"struct Attestation[]","components":[{"name":"uid","type":"bytes32","internalType":"bytes32"},{"name":"schema","type":"bytes32","internalType":"bytes32"},{"name":"time","type":"uint64","internalType":"uint64"},{"name":"expirationTime","type":"uint64","internalType":"uint64"},{"name":"revocationTime","type":"uint64","internalType":"uint64"},{"name":"refUID","type":"bytes32","internalType":"bytes32"},{"name":"recipient","type":"address","internalType":"address"},{"name":"attester","type":"address","internalType":"address"},{"name":"revocable","type":"bool","internalType":"bool"},{"name":"data","type":"bytes","internalType":"bytes"}]},{"name":"values","type":"uint256[]","internalType":"uint256[]"}],"outputs":[{"name":"","type":"bool","internalType":"bool"}],"stateMutability":"payable"},{"type":"function","name":"multiRevoke","inputs":[{"name":"attestations","type":"tuple[]","internalType":"struct Attestation[]","components":[{"name":"uid","type":"bytes32","internalType":"bytes32"},{"name":"schema","type":"bytes32","internalType":"bytes32"},{"name":"time","type":"uint64","internalType":"uint64"},{"name":"expirationTime","type":"uint64","internalType":"uint64"},{"name":"revocationTime","type":"uint64","internalType":"uint64"},{"name":"refUID","type":"bytes32","internalType":"bytes32"},{"name":"recipient","type":"address","internalType":"address"},{"name":"attester","type":"address","internalType":"address"},{"name":"revocable","type":"bool","internalType":"bool"},{"name":"data","type":"bytes","internalType":"bytes"}]},{"name":"values","type":"uint256[]","internalType":"uint256[]"}],"outputs":[{"name":"","type":"bool","internalType":"bool"}],"stateMutability":"payable"},{"type":"function","name":"revoke","inputs":[{"name":"attestation","type":"tuple","internalType":"struct Attestation","components":[{"name":"uid","type":"bytes32","internalType":"bytes32"},{"name":"schema","type":"bytes32","internalType":"bytes32"},{"name":"time","type":"uint64","internalType":"uint64"},{"name":"expirationTime","type":"uint64","internalType":"uint64"},{"name":"revocationTime","type":"uint64","internalType":"uint64"},{"name":"refUID","type":"bytes32","internalType":"bytes32"},{"name":"recipient","type":"address","internalType":"address"},{"name":"attester","type":"address","internalType":"address"},{"name":"revocable","type":"bool","internalType":"bool"},{"name":"data","type":"bytes","internalType":"bytes"}]}],"outputs":[{"name":"","type":"bool","internalType":"bool"}],"stateMutability":"payable"},{"type":"function","name":"version","inputs":[],"outputs":[{"name":"","type":"string","internalType":"string"}],"stateMutability":"view"},{"type":"event","name":"EscrowClaimed","inputs":[{"name":"payment","type":"bytes32","indexed":true,"internalType":"bytes32"},{"name":"fulfillment","type":"bytes32","indexed":true,"internalType":"bytes32"},{"name":"fulfiller","type":"address","indexed":true,"internalType":"address"}],"anonymous":false},{"type":"event","name":"EscrowMade","inputs":[{"name":"payment","type":"bytes32","indexed":true,"internalType":"bytes32"},{"name":"buyer","type":"address","indexed":true,"internalType":"address"}],"anonymous":false},{"type":"error","name":"AccessDenied","inputs":[]},{"type":"error","name":"AttestationRevoked","inputs":[]},{"type":"error","name":"DeadlineExpired","inputs":[]},{"type":"error","name":"InsufficientValue","inputs":[]},{"type":"error","name":"InvalidEAS","inputs":[]},{"type":"error","name":"InvalidEscrowAttestation","inputs":[]},{"type":"error","name":"InvalidFulfillment","inputs":[]},{"type":"error","name":"InvalidLength","inputs":[]},{"type":"error","name":"InvalidSchema","inputs":[]},{"type":"error","name":"NotFromObligation","inputs":[]},{"type":"error","name":"NotPayable","inputs":[]},{"type":"error","name":"UnauthorizedCall","inputs":[]}],"bytecode":{"object":"0x610180806040523461027e57604081611b0d803803809161002082856102ea565b83398101031261027e578051906001600160a01b0382169081830361027e57602001516001600160a01b038116929083810361027e5760405190606082016001600160401b038111838210176102d6576040526035825260208201937f6164647265737320617262697465722c2062797465732064656d616e642c206285527f797465733332206174746573746174696f6e556964000000000000000000000060408401526001608052600460a0525f60c052156102c7578260209360e0526101205261010052608460405180948193630c1af44f60e31b8352606060048401525180918160648501528484015e5f83828401015230602483015260016044830152601f801991011681010301815f865af190811561028a575f91610295575b505f916020916101405260a460405180948193630c1af44f60e31b835260606004840152601f60648401527f627974657333322076616c6964617465644174746573746174696f6e556964006084840152306024840152600160448401525af190811561028a575f91610254575b50610160526040516117ff908161030e82396080518161085d015260a05181610889015260c051816108b4015260e05181611771015261010051816106ca0152610120518181816103a2015281816105ba01528181610969015261142a0152610140518181816103e2015281816105f2015281816106980152818161081901528181610a92015281816113e601526114df01526101605181818161023d0152610b660152f35b90506020813d602011610282575b8161026f602093836102ea565b8101031261027e57515f6101ae565b5f80fd5b3d9150610262565b6040513d5f823e3d90fd5b90506020813d6020116102bf575b816102b0602093836102ea565b8101031261027e57515f610140565b3d91506102a3565b6341bc07ff60e11b5f5260045ffd5b634e487b7160e01b5f52604160045260245ffd5b601f909101601f19168101906001600160401b038211908210176102d65760405256fe6080806040526004361015610029575b50361561001a575f80fd5b631574f9f360e01b5f5260045ffd5b5f905f3560e01c9081632c713cd9146109415750806354fd4d501461083c5780635bf2f20d146108015780636b122fe0146106575780637f9e0fd21461053e57806388e5b2d91461051f57806391db0b7e1461051f578063aadc8f63146104d5578063b5f3baff1461046d578063c6ec50701461036a578063c93844be1461027c578063ce46e04614610260578063df61dd2c14610225578063e49617e11461020a578063e60c35051461020a5763e6c9714d0361000f573461020357606036600319011261020357600435906001600160401b038211610203576101406003198336030112610203576040519161012083610f44565b806004013583526024810135602084015261013d60448201610e4c565b604084015261014e60648201610e4c565b606084015261015f60848201610e4c565b608084015260a481013560a084015261017a60c48201610e60565b60c084015261018b60e48201610e60565b60e08401526101048101358015158103610206576101008401526101248101356001600160401b038111610206576101c891369101600401610fb7565b610120830152602435906001600160401b0382116102035760206101f9846101f33660048701610fb7565b906114dd565b6040519015158152f35b80fd5b8280fd5b60206101f961021836610eab565b61022061176f565b6117b0565b503461020357806003193601126102035760206040517f00000000000000000000000000000000000000000000000000000000000000008152f35b5034610203578060031936011261020357602090604051908152f35b503461020357602036600319011261020357600435906001600160401b03821161020357366023830112156102035781600401356001600160401b038111610362578201916024830190368211610206576102d56114be565b50602081850312610206576024810135906001600160401b03821161036657019260609084900312610362576040519161030e83610f60565b61031a60248501610e60565b83526044840135906001600160401b038211610203575092610346606492602461035e96840101610fb7565b60208401520135604082015260405191829182610e74565b0390f35b5080fd5b8380fd5b5034610203576020366003190112610203576103846114be565b506040516328c44a9960e21b815260048035908201529080826024817f00000000000000000000000000000000000000000000000000000000000000006001600160a01b03165afa91821561046057819261043c575b5060208201517f00000000000000000000000000000000000000000000000000000000000000000361042d5761035e6104216101208401516020808251830101910161115d565b60405191829182610e74565b63629cd40b60e11b8152600490fd5b6104599192503d8084833e6104518183610f7b565b810190611082565b905f6103da565b50604051903d90823e3d90fd5b5034610203576060366003190112610203576004356001600160401b0381116103625760606003198236030112610362576104a6610e36565b604435929091906001600160a01b03841684036102035760206104cd8585856004016112fc565b604051908152f35b503461020357604036600319011261020357600435906001600160401b03821161020357606060031983360301126102035760206104cd83610515610e36565b33916004016112fc565b60206101f961052d36610de6565b9261053992919261176f565b611280565b503461020357602036600319011261020357606061012060405161056181610f44565b83815283602082015283604082015283838201528360808201528360a08201528360c08201528360e0820152836101008201520152604051906328c44a9960e21b82526004356004830152808260248160018060a01b037f0000000000000000000000000000000000000000000000000000000000000000165afa91821561046057819261063b575b5060208201517f00000000000000000000000000000000000000000000000000000000000000000361062c576040516020808252819061035e90820185610d14565b6360000df160e11b8152600490fd5b6106509192503d8084833e6104518183610f7b565b905f6105ea565b503461020357806003193601126102035760608060405161067781610f29565b8381528360208201528360408201520152604051906351753e3760e11b82527f00000000000000000000000000000000000000000000000000000000000000006004830152808260248160018060a01b037f0000000000000000000000000000000000000000000000000000000000000000165afa9081156107f5578091610740575b60608261035e604051928392602084528051602085015260018060a01b0360208201511660408501526040810151151582850152015160808084015260a0830190610cf0565b90503d8082843e6107518184610f7b565b820191602081840312610362578051906001600160401b038211610206570190608082840312610203576040519161078883610f29565b8051835260208101516001600160a01b03811681036102065760208401526107b260408201611025565b60408401526060810151906001600160401b03821161020657019083601f8301121561020357506060928160206107eb93519101611032565b828201525f6106fa565b604051903d90823e3d90fd5b503461020357806003193601126102035760206040517f00000000000000000000000000000000000000000000000000000000000000008152f35b5034610203578060031936011261020357602061092d600161035e936108817f0000000000000000000000000000000000000000000000000000000000000000611602565b9082856108ad7f0000000000000000000000000000000000000000000000000000000000000000611602565b81806108d87f0000000000000000000000000000000000000000000000000000000000000000611602565b926040519a888c995191829101848b015e880190601760f91b83830152805192839101602183015e010190601760f91b84830152805192839101600283015e010190838201520301601f198101835282610f7b565b604051918291602083526020830190610cf0565b8234610c20576040366003190112610c20576328c44a9960e21b8252600480359083018190527f00000000000000000000000000000000000000000000000000000000000000006001600160a01b0316929060248035905f90849081885afa928315610c57575f93610cd4575b506040516328c44a9960e21b8152600481018290525f81602481895afa908115610c57575f91610cba575b506109e3846115a7565b15610cab57610a006101208501516020808251830101910161115d565b936020610a5060018060a01b038751168288015193519360405180958194829363e6c9714d60e01b845260606004850152610a3e606485018b610d14565b84810360031901602486015290610cf0565b90604483015203915afa908115610c57575f91610c71575b5015610c6257604051610a7a81610edf565b8381525f602082015260405190610a9082610edf565b7f0000000000000000000000000000000000000000000000000000000000000000825260208201908152873b15610c2057604051634692626760e01b81529151600483015251805160248301526020015160448201525f81606481838b5af18015610c5757610c37575b50610ba7859660c06020930195604060018060a01b03885116910151604051908086830152858252610b2d604083610f7b565b60405192610b3a84610f0e565b83528986840152896040840152606083015260808201528760a082015260405190610b6482610edf565b7f000000000000000000000000000000000000000000000000000000000000000082528482015260405198898094819363f17325e760e01b8352600483016111cc565b03925af1928315610c2c578493610bf3575b6020955060018060a01b03905116917fd903ca32e81477af89f5b8a6ce888d185cc715390e49474a77b4c6846254cccd6040519580a48152f35b92506020853d602011610c24575b81610c0e60209383610f7b565b81010312610c20576020945192610bb9565b5f80fd5b3d9150610c01565b6040513d86823e3d90fd5b602091955060c096610c4c5f610ba793610f7b565b5f9692509650610afa565b6040513d5f823e3d90fd5b630ebe58ef60e11b5f5260045ffd5b90506020813d602011610ca3575b81610c8c60209383610f7b565b81010312610c2057610c9d90611025565b87610a68565b3d9150610c7f565b63629cd40b60e11b5f5260045ffd5b610cce91503d805f833e6104518183610f7b565b866109d9565b610ce99193503d805f833e6104518183610f7b565b91856109ae565b805180835260209291819084018484015e5f828201840152601f01601f1916010190565b90610140610120610db39380518452602081015160208501526001600160401b0360408201511660408501526001600160401b0360608201511660608501526001600160401b03608082015116608085015260a081015160a085015260018060a01b0360c08201511660c085015260018060a01b0360e08201511660e08501526101008101511515610100850152015191816101208201520190610cf0565b90565b9181601f84011215610c20578235916001600160401b038311610c20576020808501948460051b010111610c2057565b6040600319820112610c20576004356001600160401b038111610c205781610e1091600401610db6565b92909291602435906001600160401b038211610c2057610e3291600401610db6565b9091565b602435906001600160401b0382168203610c2057565b35906001600160401b0382168203610c2057565b35906001600160a01b0382168203610c2057565b6020815260018060a01b03825116602082015260606040610ea2602085015183838601526080850190610cf0565b93015191015290565b6020600319820112610c2057600435906001600160401b038211610c2057610140908290036003190112610c205760040190565b604081019081106001600160401b03821117610efa57604052565b634e487b7160e01b5f52604160045260245ffd5b60c081019081106001600160401b03821117610efa57604052565b608081019081106001600160401b03821117610efa57604052565b61014081019081106001600160401b03821117610efa57604052565b606081019081106001600160401b03821117610efa57604052565b90601f801991011681019081106001600160401b03821117610efa57604052565b6001600160401b038111610efa57601f01601f191660200190565b81601f82011215610c2057803590610fce82610f9c565b92610fdc6040519485610f7b565b82845260208383010111610c2057815f926020809301838601378301015290565b51906001600160401b0382168203610c2057565b51906001600160a01b0382168203610c2057565b51908115158203610c2057565b92919261103e82610f9c565b9161104c6040519384610f7b565b829481845281830111610c20578281602093845f96015e010152565b9080601f83011215610c20578151610db392602001611032565b602081830312610c20578051906001600160401b038211610c20570161014081830312610c2057604051916110b683610f44565b81518352602082015160208401526110d060408301610ffd565b60408401526110e160608301610ffd565b60608401526110f260808301610ffd565b608084015260a082015160a084015261110d60c08301611011565b60c084015261111e60e08301611011565b60e08401526111306101008301611025565b6101008401526101208201516001600160401b038111610c20576111549201611068565b61012082015290565b602081830312610c20578051906001600160401b038211610c20570190606082820312610c20576040519161119183610f60565b61119a81611011565b835260208101516001600160401b038111610c20576040926111bd918301611068565b60208401520151604082015290565b9060209081835280518284015201519060408082015260018060a01b0382511660608201526001600160401b0360208301511660808201526040820151151560a0820152606082015160c082015261010060a0610ea2608085015160c060e0860152610120850190610cf0565b91908110156112495760051b0190565b634e487b7160e01b5f52603260045260245ffd5b91908110156112495760051b8101359061013e1981360301821215610c20570190565b929091928183036112ed575f91345b8484106112a157505050505050600190565b6112ac848388611239565b358181116112de576112c261022086888761125d565b156112d3576001910393019261128f565b505050505050505f90565b63044044a560e21b5f5260045ffd5b63251f56a160e21b5f5260045ffd5b60405160208082015293926001600160a01b0361131883610e60565b1660408601526020820135601e1983360301811215610c2057820194602086359601956001600160401b038111610c20578036038713610c205760c082826040602097611399956114259c6060808701528160a0870152868601375f85848601015201356080830152601f801991011681010301601f198101835282610f7b565b6001600160401b03604051926113ae84610f0e565b60018060a01b0316948584521683830152600160408301525f606083015260808201525f60a0820152604051906113e482610edf565b7f00000000000000000000000000000000000000000000000000000000000000008252828201526040518095819263f17325e760e01b8352600483016111cc565b03815f7f00000000000000000000000000000000000000000000000000000000000000006001600160a01b03165af1928315610c57575f9361148a575b50827f8f7f2dbafd79125e808bf16a53d7fa4e17b8b6374ced76d946a45f94b7bf4d065f80a3565b9092506020813d6020116114b6575b816114a660209383610f7b565b81010312610c205751915f611462565b3d9150611499565b604051906114cb82610f60565b5f604083828152606060208201520152565b7f000000000000000000000000000000000000000000000000000000000000000060208201510361159857611511816115a7565b15611592576115316101206115419201516020808251830101910161115d565b916020808251830101910161115d565b60408201516040820151149182611579575b8261155d57505090565b6020919250810151818151910120910151602081519101201490565b805182516001600160a01b039081169116149250611553565b50505f90565b635f9bd90760e11b5f5260045ffd5b6001600160401b0360608201511680151590816115f8575b506115e957608001516001600160401b03166115da57600190565b637b6227e960e11b5f5260045ffd5b631ab7da6b60e01b5f5260045ffd5b905042115f6115bf565b805f9172184f03e93ff9f4daa797ed6e38ed64bf6a1f0160401b82101561174c575b806d04ee2d6d415b85acef8100000000600a921015611731575b662386f26fc1000081101561171d575b6305f5e10081101561170c575b6127108110156116fd575b60648110156116ef575b10156116e4575b600a6021600184019361168985610f9c565b946116976040519687610f7b565b8086526116a6601f1991610f9c565b013660208701378401015b5f1901916f181899199a1a9b1b9c1cb0b131b232b360811b8282061a83530480156116df57600a90916116b1565b505090565b600190910190611677565b606460029104930192611670565b61271060049104930192611666565b6305f5e1006008910493019261165b565b662386f26fc100006010910493019261164e565b6d04ee2d6d415b85acef81000000006020910493019261163e565b506040915072184f03e93ff9f4daa797ed6e38ed64bf6a1f0160401b8104611624565b7f00000000000000000000000000000000000000000000000000000000000000006001600160a01b031633036117a157565b634ca8886760e01b5f5260045ffd5b60e0013560018060a01b038116809103610c205730149056fea264697066735822122009412f27dcd0a29c586b99521094ac132b8b9c4e9540e22b7f9d48d077f7ac5b64736f6c634300081c0033","linkReferences":{}},"methodIdentifiers":{"ATTESTATION_SCHEMA()":"5bf2f20d","VALIDATION_SCHEMA()":"df61dd2c","attest((bytes32,bytes32,uint64,uint64,uint64,bytes32,address,address,bool,bytes))":"e60c3505","checkObligation((bytes32,bytes32,uint64,uint64,uint64,bytes32,address,address,bool,bytes),bytes,bytes32)":"e6c9714d","collectEscrow(bytes32,bytes32)":"2c713cd9","decodeObligationData(bytes)":"c93844be","doObligation((address,bytes,bytes32),uint64)":"aadc8f63","doObligationFor((address,bytes,bytes32),uint64,address)":"b5f3baff","getObligation(bytes32)":"7f9e0fd2","getObligationData(bytes32)":"c6ec5070","getSchema()":"6b122fe0","isPayable()":"ce46e046","multiAttest((bytes32,bytes32,uint64,uint64,uint64,bytes32,address,address,bool,bytes)[],uint256[])":"91db0b7e","multiRevoke((bytes32,bytes32,uint64,uint64,uint64,bytes32,address,address,bool,bytes)[],uint256[])":"88e5b2d9","revoke((bytes32,bytes32,uint64,uint64,uint64,bytes32,address,address,bool,bytes))":"e49617e1","version()":"54fd4d50"},"id":110}