{"abi":[{"type":"function","name":"checkStatement","inputs":[{"name":"statement","type":"tuple","internalType":"struct Attestation","components":[{"name":"uid","type":"bytes32","internalType":"bytes32"},{"name":"schema","type":"bytes32","internalType":"bytes32"},{"name":"time","type":"uint64","internalType":"uint64"},{"name":"expirationTime","type":"uint64","internalType":"uint64"},{"name":"revocationTime","type":"uint64","internalType":"uint64"},{"name":"refUID","type":"bytes32","internalType":"bytes32"},{"name":"recipient","type":"address","internalType":"address"},{"name":"attester","type":"address","internalType":"address"},{"name":"revocable","type":"bool","internalType":"bool"},{"name":"data","type":"bytes","internalType":"bytes"}]},{"name":"demand","type":"bytes","internalType":"bytes"},{"name":"counteroffer","type":"bytes32","internalType":"bytes32"}],"outputs":[{"name":"","type":"bool","internalType":"bool"}],"stateMutability":"view"},{"type":"function","name":"decodeDemandData","inputs":[{"name":"data","type":"bytes","internalType":"bytes"}],"outputs":[{"name":"","type":"tuple","internalType":"struct AttesterArbiter.DemandData","components":[{"name":"baseArbiter","type":"address","internalType":"address"},{"name":"baseDemand","type":"bytes","internalType":"bytes"},{"name":"attester","type":"address","internalType":"address"}]}],"stateMutability":"pure"},{"type":"error","name":"AttesterMismatched","inputs":[]}],"bytecode":{"object":"0x608080604052346015576105e1908161001a8239f35b5f80fdfe60806040526004361015610011575f80fd5b5f3560e01c80631272ff8b146101685763838a68d91461002f575f80fd5b34610164576020366003190112610164576004356001600160401b03811161016457366023820112156101645780600401356001600160401b038111610164578101906024820190368211610164575f6040805161008c816104ae565b82815260606020820152015260206023196024838603010112610164576024810135906001600160401b0382116101645701916060908390031261016457604051906100d7826104ae565b6100e3602484016104fe565b82526044830135906001600160401b0382116101645761010d606491602461011b9487010161052d565b9360208401948552016104fe565b604082019081526101506040519384936020855260018060a01b03905116602085015251606060408501526080840190610573565b90516001600160a01b031660608301520390f35b5f80fd5b34610164576060366003190112610164576004356001600160401b038111610164576101406003198236030112610164576101c06040526004810135608052602481013560a0526101bb604482016104ea565b60c0908152906101cd606482016104ea565b60e09081526101de608483016104ea565b61010090815260a48301356101209081529093906101fe60c485016104fe565b6101409081529361021160e482016104fe565b6101605261010481013580151581036101645761018052610124810135906001600160401b03821161016457600461024c923692010161052d565b6101a0526024356001600160401b0381116101645761026f90369060040161052d565b91825183016020810193602081830312610164576020810151916001600160401b0383116101645760608284019091031261016457604051916102b1836104ae565b6102bf602082840101610597565b835260408183010151906001600160401b03821161016457603f83820183010187131561016457602082828501010151926102f984610512565b97610307604051998a6104c9565b8489526040828401850186010111610164575f602085610342968280606098888801010101838d015e8a010152602085019788520101610597565b60408201819052610160516001600160a01b0390811691160361048b57519251604051631272ff8b60e01b815260606004820152608051606482015260a051608482015291516001600160401b0390811660a48401529451851660c4830152955190931660e48401525161010483015291516001600160a01b039081166101248301526101605181166101448301526101805115156101648301526101a051610140610184840152919360209385939216918391829161041e919061040c906101a4850190610573565b83810360031901602485015290610573565b604435604483015203915afa8015610480575f90610444575b6020906040519015158152f35b506020813d602011610478575b8161045e602093836104c9565b810103126101645751801515810361016457602090610437565b3d9150610451565b6040513d5f823e3d90fd5b63c77ead7160e01b5f5260045ffd5b634e487b7160e01b5f52604160045260245ffd5b606081019081106001600160401b0382111761049a57604052565b90601f801991011681019081106001600160401b0382111761049a57604052565b35906001600160401b038216820361016457565b35906001600160a01b038216820361016457565b6001600160401b03811161049a57601f01601f191660200190565b81601f820112156101645780359061054482610512565b9261055260405194856104c9565b8284526020838301011161016457815f926020809301838601378301015290565b805180835260209291819084018484015e5f828201840152601f01601f1916010190565b51906001600160a01b03821682036101645756fea26469706673582212208ffcf4b3df2e6d508a63f4be0ebdd23321af995806c9d20863daa4cb5567311064736f6c634300081c0033","linkReferences":{}},"methodIdentifiers":{"checkStatement((bytes32,bytes32,uint64,uint64,uint64,bytes32,address,address,bool,bytes),bytes,bytes32)":"1272ff8b","decodeDemandData(bytes)":"838a68d9"},"id":85}