{"abi":[{"type":"constructor","inputs":[{"name":"_eas","type":"address","internalType":"contract IEAS"}],"stateMutability":"nonpayable"},{"type":"function","name":"checkStatement","inputs":[{"name":"statement","type":"tuple","internalType":"struct Attestation","components":[{"name":"uid","type":"bytes32","internalType":"bytes32"},{"name":"schema","type":"bytes32","internalType":"bytes32"},{"name":"time","type":"uint64","internalType":"uint64"},{"name":"expirationTime","type":"uint64","internalType":"uint64"},{"name":"revocationTime","type":"uint64","internalType":"uint64"},{"name":"refUID","type":"bytes32","internalType":"bytes32"},{"name":"recipient","type":"address","internalType":"address"},{"name":"attester","type":"address","internalType":"address"},{"name":"revocable","type":"bool","internalType":"bool"},{"name":"data","type":"bytes","internalType":"bytes"}]},{"name":"","type":"bytes","internalType":"bytes"},{"name":"","type":"bytes32","internalType":"bytes32"}],"outputs":[{"name":"","type":"bool","internalType":"bool"}],"stateMutability":"view"},{"type":"function","name":"confirm","inputs":[{"name":"_statement","type":"bytes32","internalType":"bytes32"}],"outputs":[],"stateMutability":"nonpayable"},{"type":"function","name":"requestConfirmation","inputs":[{"name":"_statement","type":"bytes32","internalType":"bytes32"}],"outputs":[],"stateMutability":"nonpayable"},{"type":"event","name":"ConfirmationMade","inputs":[{"name":"statement","type":"bytes32","indexed":true,"internalType":"bytes32"}],"anonymous":false},{"type":"event","name":"ConfirmationRequested","inputs":[{"name":"statement","type":"bytes32","indexed":true,"internalType":"bytes32"},{"name":"confirmer","type":"address","indexed":true,"internalType":"address"}],"anonymous":false},{"type":"error","name":"UnauthorizedConfirmation","inputs":[]},{"type":"error","name":"UnauthorizedConfirmationRequest","inputs":[]}],"bytecode":{"object":"0x608034606f57601f61068e38819003918201601f19168301916001600160401b03831184841017607357808492602094604052833981010312606f57516001600160a01b03811690819003606f575f80546001600160a01b03191691909117905560405161060690816100888239f35b5f80fd5b634e487b7160e01b5f52604160045260245ffdfe6080806040526004361015610012575f80fd5b5f3560e01c9081631272ff8b1461028657508063797af627146101745763e9af83611461003d575f80fd5b346101705760203660031901126101705760043560018060a01b035f54166040516328c44a9960e21b81528260048201525f81602481855afa908115610125575f91610156575b5060e08101516001600160a01b03163314158061013f575b6101305760a05f9101516024604051809481936328c44a9960e21b835260048301525afa908115610125575f91610103575b5060c001516001600160a01b0316907fcd96d6feb2cd81dd296aa8a2564f04a99fef9d2bedf2aa811458f1a93692b5a65f80a3005b61011f91503d805f833e61011781836103df565b8101906104b5565b5f6100ce565b6040513d5f823e3d90fd5b63020a627d60e11b5f5260045ffd5b5060c08101516001600160a01b031633141561009c565b61016a91503d805f833e61011781836103df565b5f610084565b5f80fd5b34610170576020366003190112610170575f80546040516328c44a9960e21b8152600480359082018190529290916001600160a01b03169082602481845afa918215610125575f9261026a575b505f60a08301516024604051809481936328c44a9960e21b835260048301525afa908115610125575f91610250575b5060c001516001600160a01b0316330361024157515f52600160205260405f20600160ff198254161790557fa700a55a4863d261377939619f5fca949e358206c8de19eea3133e5ec04cfae65f80a2005b6331eb5cd360e11b5f5260045ffd5b61026491503d805f833e61011781836103df565b836101f0565b61027f9192503d805f833e61011781836103df565b90836101c1565b346101705760603660031901126101705760043567ffffffffffffffff8111610170576101406003198236030112610170576102c1826103ae565b80600401358252602481013560208301526102de60448201610401565b60408301526102ef60648201610401565b606083015261030060848201610401565b608083015260a481013560a083015261031b60c48201610416565b60c083015261032c60e48201610416565b60e08301526101048101358015158103610170576101008301526101248101359067ffffffffffffffff821161017057600461036b9236920101610446565b61012082015260243567ffffffffffffffff811161017057610391903690600401610446565b50515f526001602052602060ff60405f2054166040519015158152f35b610140810190811067ffffffffffffffff8211176103cb57604052565b634e487b7160e01b5f52604160045260245ffd5b90601f8019910116810190811067ffffffffffffffff8211176103cb57604052565b359067ffffffffffffffff8216820361017057565b35906001600160a01b038216820361017057565b67ffffffffffffffff81116103cb57601f01601f191660200190565b81601f820112156101705780359061045d8261042a565b9261046b60405194856103df565b8284526020838301011161017057815f926020809301838601378301015290565b519067ffffffffffffffff8216820361017057565b51906001600160a01b038216820361017057565b6020818303126101705780519067ffffffffffffffff82116101705701906101408282031261017057604051916104eb836103ae565b80518352602081015160208401526105056040820161048c565b60408401526105166060820161048c565b60608401526105276080820161048c565b608084015260a081015160a084015261054260c082016104a1565b60c084015261055360e082016104a1565b60e08401526101008101518015158103610170576101008401526101208101519067ffffffffffffffff8211610170570181601f820112156101705780519061059b8261042a565b926105a960405194856103df565b8284526020838301011161017057815f9260208093018386015e830101526101208201529056fea26469706673582212206c0dc67e1be9b5d9dc4d369591ea97fd224b0bfc7afb280d6ad65c434f964e3864736f6c634300081c0033","linkReferences":{}},"methodIdentifiers":{"checkStatement((bytes32,bytes32,uint64,uint64,uint64,bytes32,address,address,bool,bytes),bytes,bytes32)":"1272ff8b","confirm(bytes32)":"797af627","requestConfirmation(bytes32)":"e9af8361"},"id":109}