{"abi":[{"type":"constructor","inputs":[{"name":"_eas","type":"address","internalType":"contract IEAS"}],"stateMutability":"nonpayable"},{"type":"function","name":"checkStatement","inputs":[{"name":"statement","type":"tuple","internalType":"struct Attestation","components":[{"name":"uid","type":"bytes32","internalType":"bytes32"},{"name":"schema","type":"bytes32","internalType":"bytes32"},{"name":"time","type":"uint64","internalType":"uint64"},{"name":"expirationTime","type":"uint64","internalType":"uint64"},{"name":"revocationTime","type":"uint64","internalType":"uint64"},{"name":"refUID","type":"bytes32","internalType":"bytes32"},{"name":"recipient","type":"address","internalType":"address"},{"name":"attester","type":"address","internalType":"address"},{"name":"revocable","type":"bool","internalType":"bool"},{"name":"data","type":"bytes","internalType":"bytes"}]},{"name":"demand","type":"bytes","internalType":"bytes"},{"name":"counteroffer","type":"bytes32","internalType":"bytes32"}],"outputs":[{"name":"","type":"bool","internalType":"bool"}],"stateMutability":"view"},{"type":"function","name":"confirm","inputs":[{"name":"_statement","type":"bytes32","internalType":"bytes32"}],"outputs":[],"stateMutability":"nonpayable"},{"type":"function","name":"decodeDemandData","inputs":[{"name":"data","type":"bytes","internalType":"bytes"}],"outputs":[{"name":"","type":"tuple","internalType":"struct ConfirmationArbiterComposing.DemandData","components":[{"name":"baseArbiter","type":"address","internalType":"address"},{"name":"baseDemand","type":"bytes","internalType":"bytes"}]}],"stateMutability":"pure"},{"type":"function","name":"requestConfirmation","inputs":[{"name":"_statement","type":"bytes32","internalType":"bytes32"}],"outputs":[],"stateMutability":"nonpayable"},{"type":"event","name":"ConfirmationMade","inputs":[{"name":"statement","type":"bytes32","indexed":true,"internalType":"bytes32"}],"anonymous":false},{"type":"event","name":"ConfirmationRequested","inputs":[{"name":"statement","type":"bytes32","indexed":true,"internalType":"bytes32"},{"name":"confirmer","type":"address","indexed":true,"internalType":"address"}],"anonymous":false},{"type":"error","name":"UnauthorizedConfirmation","inputs":[]},{"type":"error","name":"UnauthorizedConfirmationRequest","inputs":[]}],"bytecode":{"object":"0x608034606f57601f61099e38819003918201601f19168301916001600160401b03831184841017607357808492602094604052833981010312606f57516001600160a01b03811690819003606f575f80546001600160a01b03191691909117905560405161091690816100888239f35b5f80fd5b634e487b7160e01b5f52604160045260245ffdfe6080806040526004361015610012575f80fd5b5f3560e01c9081631272ff8b1461039457508063797af62714610282578063838a68d91461017f5763e9af836114610048575f80fd5b3461017b57602036600319011261017b5760043560018060a01b035f54166040516328c44a9960e21b81528260048201525f81602481855afa908115610130575f91610161575b5060e08101516001600160a01b03163314158061014a575b61013b5760a05f9101516024604051809481936328c44a9960e21b835260048301525afa908115610130575f9161010e575b5060c001516001600160a01b0316907fcd96d6feb2cd81dd296aa8a2564f04a99fef9d2bedf2aa811458f1a93692b5a65f80a3005b61012a91503d805f833e6101228183610500565b810190610805565b5f6100d9565b6040513d5f823e3d90fd5b63020a627d60e11b5f5260045ffd5b5060c08101516001600160a01b03163314156100a7565b61017591503d805f833e6101228183610500565b5f61008f565b5f80fd5b3461017b57602036600319011261017b576004356001600160401b03811161017b573660238201121561017b5780600401356001600160401b03811161017b578101602481019136831161017b57606060206040516101dd816104e5565b5f8152015260208183031261017b576024810135906001600160401b03821161017b5701906040908290031261017b576040519161021a836104e5565b61022660248301610535565b83526044820135916001600160401b03831161017b576102499201602401610564565b906020810191825261027e6040519283926020845260018060a01b0390511660208401525160408084015260608301906105aa565b0390f35b3461017b57602036600319011261017b575f80546040516328c44a9960e21b8152600480359082018190529290916001600160a01b03169082602481845afa918215610130575f92610378575b505f60a08301516024604051809481936328c44a9960e21b835260048301525afa908115610130575f9161035e575b5060c001516001600160a01b0316330361034f57515f52600160205260405f20600160ff198254161790557fa700a55a4863d261377939619f5fca949e358206c8de19eea3133e5ec04cfae65f80a2005b6331eb5cd360e11b5f5260045ffd5b61037291503d805f833e6101228183610500565b836102fe565b61038d9192503d805f833e6101228183610500565b90836102cf565b3461017b57606036600319011261017b576004356001600160401b03811161017b57610140600319823603011261017b576103ce826104b5565b80600401358252602481013560208301526103eb60448201610521565b60408301526103fc60648201610521565b606083015261040d60848201610521565b608083015260a481013560a083015261042860c48201610535565b60c083015261043960e48201610535565b60e0830152610104810135801515810361017b57610100830152610124810135906001600160401b03821161017b5760046104779236920101610564565b6101208201526024356001600160401b03811161017b576020916104a26104ab923690600401610564565b60443591610635565b6040519015158152f35b61014081019081106001600160401b038211176104d157604052565b634e487b7160e01b5f52604160045260245ffd5b604081019081106001600160401b038211176104d157604052565b90601f801991011681019081106001600160401b038211176104d157604052565b35906001600160401b038216820361017b57565b35906001600160a01b038216820361017b57565b6001600160401b0381116104d157601f01601f191660200190565b81601f8201121561017b5780359061057b82610549565b926105896040519485610500565b8284526020838301011161017b57815f926020809301838601378301015290565b805180835260209291819084018484015e5f828201840152601f01601f1916010190565b51906001600160a01b038216820361017b57565b81601f8201121561017b578051906105f982610549565b926106076040519485610500565b8284526020838301011161017b57815f9260208093018386015e8301015290565b5190811515820361017b57565b815182019160208184031261017b576020810151906001600160401b03821161017b57019160408382031261017b5760405192610671846104e5565b61067d602082016105ce565b84526040810151916001600160401b03831161017b576106a49260208092019201016105e2565b6020830190815281515f52600160205260ff60405f205416156107e9579151915160408051631272ff8b60e01b8152606060048201819052845160648301526020808601516084840152928501516001600160401b0390811660a484015290850151811660c483015260808501511660e482015260a084015161010482015260c08401516001600160a01b0390811661012483015260e08501518116610144830152610100850151151561016483015261012090940151610140610184830152909591948694169284928392909161079791610785906101a48601906105aa565b848103600319016024860152906105aa565b90604483015203915afa908115610130575f916107b2575090565b90506020813d6020116107e1575b816107cd60209383610500565b8101031261017b576107de90610628565b90565b3d91506107c0565b505050505f90565b51906001600160401b038216820361017b57565b60208183031261017b578051906001600160401b03821161017b57016101408183031261017b5760405191610839836104b5565b8151835260208201516020840152610853604083016107f1565b6040840152610864606083016107f1565b6060840152610875608083016107f1565b608084015260a082015160a084015261089060c083016105ce565b60c08401526108a160e083016105ce565b60e08401526108b36101008301610628565b6101008401526101208201516001600160401b03811161017b576108d792016105e2565b6101208201529056fea2646970667358221220e11f03a1d61fb21fd77e616b9f4fcfe27eaa33476cd770cfc904ec5dcd5598f064736f6c634300081c0033","linkReferences":{}},"methodIdentifiers":{"checkStatement((bytes32,bytes32,uint64,uint64,uint64,bytes32,address,address,bool,bytes),bytes,bytes32)":"1272ff8b","confirm(bytes32)":"797af627","decodeDemandData(bytes)":"838a68d9","requestConfirmation(bytes32)":"e9af8361"},"id":110}