{"abi":[{"type":"constructor","inputs":[{"name":"_eas","type":"address","internalType":"contract IEAS"},{"name":"_schemaRegistry","type":"address","internalType":"contract ISchemaRegistry"}],"stateMutability":"nonpayable"},{"type":"receive","stateMutability":"payable"},{"type":"function","name":"ATTESTATION_SCHEMA","inputs":[],"outputs":[{"name":"","type":"bytes32","internalType":"bytes32"}],"stateMutability":"view"},{"type":"function","name":"attest","inputs":[{"name":"attestation","type":"tuple","internalType":"struct Attestation","components":[{"name":"uid","type":"bytes32","internalType":"bytes32"},{"name":"schema","type":"bytes32","internalType":"bytes32"},{"name":"time","type":"uint64","internalType":"uint64"},{"name":"expirationTime","type":"uint64","internalType":"uint64"},{"name":"revocationTime","type":"uint64","internalType":"uint64"},{"name":"refUID","type":"bytes32","internalType":"bytes32"},{"name":"recipient","type":"address","internalType":"address"},{"name":"attester","type":"address","internalType":"address"},{"name":"revocable","type":"bool","internalType":"bool"},{"name":"data","type":"bytes","internalType":"bytes"}]}],"outputs":[{"name":"","type":"bool","internalType":"bool"}],"stateMutability":"payable"},{"type":"function","name":"checkObligation","inputs":[{"name":"obligation","type":"tuple","internalType":"struct Attestation","components":[{"name":"uid","type":"bytes32","internalType":"bytes32"},{"name":"schema","type":"bytes32","internalType":"bytes32"},{"name":"time","type":"uint64","internalType":"uint64"},{"name":"expirationTime","type":"uint64","internalType":"uint64"},{"name":"revocationTime","type":"uint64","internalType":"uint64"},{"name":"refUID","type":"bytes32","internalType":"bytes32"},{"name":"recipient","type":"address","internalType":"address"},{"name":"attester","type":"address","internalType":"address"},{"name":"revocable","type":"bool","internalType":"bool"},{"name":"data","type":"bytes","internalType":"bytes"}]},{"name":"demand","type":"bytes","internalType":"bytes"},{"name":"","type":"bytes32","internalType":"bytes32"}],"outputs":[{"name":"","type":"bool","internalType":"bool"}],"stateMutability":"view"},{"type":"function","name":"collectEscrow","inputs":[{"name":"_payment","type":"bytes32","internalType":"bytes32"},{"name":"_fulfillment","type":"bytes32","internalType":"bytes32"}],"outputs":[{"name":"","type":"bool","internalType":"bool"}],"stateMutability":"nonpayable"},{"type":"function","name":"decodeObligationData","inputs":[{"name":"data","type":"bytes","internalType":"bytes"}],"outputs":[{"name":"","type":"tuple","internalType":"struct ERC1155EscrowObligation.ObligationData","components":[{"name":"arbiter","type":"address","internalType":"address"},{"name":"demand","type":"bytes","internalType":"bytes"},{"name":"token","type":"address","internalType":"address"},{"name":"tokenId","type":"uint256","internalType":"uint256"},{"name":"amount","type":"uint256","internalType":"uint256"}]}],"stateMutability":"pure"},{"type":"function","name":"doObligation","inputs":[{"name":"data","type":"tuple","internalType":"struct ERC1155EscrowObligation.ObligationData","components":[{"name":"arbiter","type":"address","internalType":"address"},{"name":"demand","type":"bytes","internalType":"bytes"},{"name":"token","type":"address","internalType":"address"},{"name":"tokenId","type":"uint256","internalType":"uint256"},{"name":"amount","type":"uint256","internalType":"uint256"}]},{"name":"expirationTime","type":"uint64","internalType":"uint64"}],"outputs":[{"name":"uid_","type":"bytes32","internalType":"bytes32"}],"stateMutability":"nonpayable"},{"type":"function","name":"doObligationFor","inputs":[{"name":"data","type":"tuple","internalType":"struct ERC1155EscrowObligation.ObligationData","components":[{"name":"arbiter","type":"address","internalType":"address"},{"name":"demand","type":"bytes","internalType":"bytes"},{"name":"token","type":"address","internalType":"address"},{"name":"tokenId","type":"uint256","internalType":"uint256"},{"name":"amount","type":"uint256","internalType":"uint256"}]},{"name":"expirationTime","type":"uint64","internalType":"uint64"},{"name":"payer","type":"address","internalType":"address"},{"name":"recipient","type":"address","internalType":"address"}],"outputs":[{"name":"uid_","type":"bytes32","internalType":"bytes32"}],"stateMutability":"nonpayable"},{"type":"function","name":"getObligation","inputs":[{"name":"uid","type":"bytes32","internalType":"bytes32"}],"outputs":[{"name":"","type":"tuple","internalType":"struct Attestation","components":[{"name":"uid","type":"bytes32","internalType":"bytes32"},{"name":"schema","type":"bytes32","internalType":"bytes32"},{"name":"time","type":"uint64","internalType":"uint64"},{"name":"expirationTime","type":"uint64","internalType":"uint64"},{"name":"revocationTime","type":"uint64","internalType":"uint64"},{"name":"refUID","type":"bytes32","internalType":"bytes32"},{"name":"recipient","type":"address","internalType":"address"},{"name":"attester","type":"address","internalType":"address"},{"name":"revocable","type":"bool","internalType":"bool"},{"name":"data","type":"bytes","internalType":"bytes"}]}],"stateMutability":"view"},{"type":"function","name":"getObligationData","inputs":[{"name":"uid","type":"bytes32","internalType":"bytes32"}],"outputs":[{"name":"","type":"tuple","internalType":"struct ERC1155EscrowObligation.ObligationData","components":[{"name":"arbiter","type":"address","internalType":"address"},{"name":"demand","type":"bytes","internalType":"bytes"},{"name":"token","type":"address","internalType":"address"},{"name":"tokenId","type":"uint256","internalType":"uint256"},{"name":"amount","type":"uint256","internalType":"uint256"}]}],"stateMutability":"view"},{"type":"function","name":"getSchema","inputs":[],"outputs":[{"name":"","type":"tuple","internalType":"struct SchemaRecord","components":[{"name":"uid","type":"bytes32","internalType":"bytes32"},{"name":"resolver","type":"address","internalType":"contract ISchemaResolver"},{"name":"revocable","type":"bool","internalType":"bool"},{"name":"schema","type":"string","internalType":"string"}]}],"stateMutability":"view"},{"type":"function","name":"isPayable","inputs":[],"outputs":[{"name":"","type":"bool","internalType":"bool"}],"stateMutability":"pure"},{"type":"function","name":"multiAttest","inputs":[{"name":"attestations","type":"tuple[]","internalType":"struct Attestation[]","components":[{"name":"uid","type":"bytes32","internalType":"bytes32"},{"name":"schema","type":"bytes32","internalType":"bytes32"},{"name":"time","type":"uint64","internalType":"uint64"},{"name":"expirationTime","type":"uint64","internalType":"uint64"},{"name":"revocationTime","type":"uint64","internalType":"uint64"},{"name":"refUID","type":"bytes32","internalType":"bytes32"},{"name":"recipient","type":"address","internalType":"address"},{"name":"attester","type":"address","internalType":"address"},{"name":"revocable","type":"bool","internalType":"bool"},{"name":"data","type":"bytes","internalType":"bytes"}]},{"name":"values","type":"uint256[]","internalType":"uint256[]"}],"outputs":[{"name":"","type":"bool","internalType":"bool"}],"stateMutability":"payable"},{"type":"function","name":"multiRevoke","inputs":[{"name":"attestations","type":"tuple[]","internalType":"struct Attestation[]","components":[{"name":"uid","type":"bytes32","internalType":"bytes32"},{"name":"schema","type":"bytes32","internalType":"bytes32"},{"name":"time","type":"uint64","internalType":"uint64"},{"name":"expirationTime","type":"uint64","internalType":"uint64"},{"name":"revocationTime","type":"uint64","internalType":"uint64"},{"name":"refUID","type":"bytes32","internalType":"bytes32"},{"name":"recipient","type":"address","internalType":"address"},{"name":"attester","type":"address","internalType":"address"},{"name":"revocable","type":"bool","internalType":"bool"},{"name":"data","type":"bytes","internalType":"bytes"}]},{"name":"values","type":"uint256[]","internalType":"uint256[]"}],"outputs":[{"name":"","type":"bool","internalType":"bool"}],"stateMutability":"payable"},{"type":"function","name":"onERC1155BatchReceived","inputs":[{"name":"","type":"address","internalType":"address"},{"name":"","type":"address","internalType":"address"},{"name":"","type":"uint256[]","internalType":"uint256[]"},{"name":"","type":"uint256[]","internalType":"uint256[]"},{"name":"","type":"bytes","internalType":"bytes"}],"outputs":[{"name":"","type":"bytes4","internalType":"bytes4"}],"stateMutability":"nonpayable"},{"type":"function","name":"onERC1155Received","inputs":[{"name":"","type":"address","internalType":"address"},{"name":"","type":"address","internalType":"address"},{"name":"","type":"uint256","internalType":"uint256"},{"name":"","type":"uint256","internalType":"uint256"},{"name":"","type":"bytes","internalType":"bytes"}],"outputs":[{"name":"","type":"bytes4","internalType":"bytes4"}],"stateMutability":"nonpayable"},{"type":"function","name":"reclaimExpired","inputs":[{"name":"uid","type":"bytes32","internalType":"bytes32"}],"outputs":[{"name":"","type":"bool","internalType":"bool"}],"stateMutability":"nonpayable"},{"type":"function","name":"revoke","inputs":[{"name":"attestation","type":"tuple","internalType":"struct Attestation","components":[{"name":"uid","type":"bytes32","internalType":"bytes32"},{"name":"schema","type":"bytes32","internalType":"bytes32"},{"name":"time","type":"uint64","internalType":"uint64"},{"name":"expirationTime","type":"uint64","internalType":"uint64"},{"name":"revocationTime","type":"uint64","internalType":"uint64"},{"name":"refUID","type":"bytes32","internalType":"bytes32"},{"name":"recipient","type":"address","internalType":"address"},{"name":"attester","type":"address","internalType":"address"},{"name":"revocable","type":"bool","internalType":"bool"},{"name":"data","type":"bytes","internalType":"bytes"}]}],"outputs":[{"name":"","type":"bool","internalType":"bool"}],"stateMutability":"payable"},{"type":"function","name":"supportsInterface","inputs":[{"name":"interfaceId","type":"bytes4","internalType":"bytes4"}],"outputs":[{"name":"","type":"bool","internalType":"bool"}],"stateMutability":"view"},{"type":"function","name":"version","inputs":[],"outputs":[{"name":"","type":"string","internalType":"string"}],"stateMutability":"view"},{"type":"event","name":"EscrowClaimed","inputs":[{"name":"payment","type":"bytes32","indexed":true,"internalType":"bytes32"},{"name":"fulfillment","type":"bytes32","indexed":true,"internalType":"bytes32"},{"name":"fulfiller","type":"address","indexed":true,"internalType":"address"}],"anonymous":false},{"type":"event","name":"EscrowMade","inputs":[{"name":"payment","type":"bytes32","indexed":true,"internalType":"bytes32"},{"name":"buyer","type":"address","indexed":true,"internalType":"address"}],"anonymous":false},{"type":"error","name":"AccessDenied","inputs":[]},{"type":"error","name":"AttestationCreateFailed","inputs":[]},{"type":"error","name":"AttestationNotFound","inputs":[{"name":"attestationId","type":"bytes32","internalType":"bytes32"}]},{"type":"error","name":"AttestationRevoked","inputs":[]},{"type":"error","name":"DeadlineExpired","inputs":[]},{"type":"error","name":"ERC1155TransferFailed","inputs":[{"name":"token","type":"address","internalType":"address"},{"name":"from","type":"address","internalType":"address"},{"name":"to","type":"address","internalType":"address"},{"name":"tokenId","type":"uint256","internalType":"uint256"},{"name":"amount","type":"uint256","internalType":"uint256"}]},{"type":"error","name":"InsufficientValue","inputs":[]},{"type":"error","name":"InvalidEAS","inputs":[]},{"type":"error","name":"InvalidEscrow","inputs":[]},{"type":"error","name":"InvalidEscrowAttestation","inputs":[]},{"type":"error","name":"InvalidFulfillment","inputs":[]},{"type":"error","name":"InvalidLength","inputs":[]},{"type":"error","name":"InvalidSchema","inputs":[]},{"type":"error","name":"NotFromObligation","inputs":[]},{"type":"error","name":"NotPayable","inputs":[]},{"type":"error","name":"RevocationFailed","inputs":[{"name":"attestationId","type":"bytes32","internalType":"bytes32"}]},{"type":"error","name":"UnauthorizedCall","inputs":[]}],"bytecode":{"object":"0x610160806040523461021c5760408161201a80380380916100208285610256565b83398101031261021c5780516001600160a01b0381169182820361021c5760200151916001600160a01b03831680840361021c57604051608081016001600160401b0381118282101761024257604052604d815260208101927f6164647265737320617262697465722c2062797465732064656d616e642c206184527f64647265737320746f6b656e2c2075696e7432353620746f6b656e49642c207560408301526c1a5b9d0c8d4d88185b5bdd5b9d609a1b60608301526001608052600460a0525f60c05215610233576084948460209560e05261012052610100525f604051958680958194630c1af44f60e31b8352606060048401525180918160648501528484015e818101830184905230602483015260016044830152601f01601f191681010301925af1908115610228575f916101f2575b5061014052604051611da0908161027a823960805181610a6e015260a05181610a9a015260c05181610ac5015260e05181611d2b015261010051816108db0152610120518181816104630152818161061b015281816106fb01528181610c0601526118870152610140518181816104a30152818161065b015281816108a901528181610a2a01528181610d51015281816117da0152611a590152f35b90506020813d602011610220575b8161020d60209383610256565b8101031261021c57515f610156565b5f80fd5b3d9150610200565b6040513d5f823e3d90fd5b6341bc07ff60e11b5f5260045ffd5b634e487b7160e01b5f52604160045260245ffd5b601f909101601f19168101906001600160401b038211908210176102425760405256fe6080806040526004361015610029575b50361561001a575f80fd5b631574f9f360e01b5f5260045ffd5b5f905f3560e01c90816301ffc9a714610f84575080632c713cd914610bc45780633dc9f35014610b5257806354fd4d5014610a4d5780635bf2f20d14610a125780636b122fe0146108685780637d2c2931146106c05780637f9e0fd2146105e357806388e5b2d9146105c457806391db0b7e146105c4578063bc197c811461052e578063c6ec50701461042b578063c93844be14610326578063ce46e0461461030a578063cecf1aff146102b5578063e49617e114610283578063e60c350514610283578063e6c9714d1461015c5763f23a6e610361000f57346101595760a03660031901126101595761011b611001565b50610124611017565b506084356001600160401b038111610157576101449036906004016112ab565b5060405163f23a6e6160e01b8152602090f35b505b80fd5b503461015957606036600319011261015957600435906001600160401b038211610159576101406003198336030112610159576040519161019c836111ec565b80600401358352602481013560208401526101b960448201610fed565b60408401526101ca60648201610fed565b60608401526101db60848201610fed565b608084015260a481013560a08401526101f660c4820161102d565b60c084015261020760e4820161102d565b60e0840152610104810135801515810361027f576101008401526101248101356001600160401b03811161027f57610244913691016004016112ab565b610120830152602435906001600160401b0382116101595760206102758461026f36600487016112ab565b90611a57565b6040519015158152f35b8280fd5b60206102a160e061029336611343565b61029b611d29565b01611616565b6040516001600160a01b0390911630148152f35b503461015957604036600319011261015957600435906001600160401b0382116101595760a06003198336030112610159576020610302836102f5610fd7565b903391339160040161162a565b604051908152f35b5034610159578060031936011261015957602090604051908152f35b503461015957602036600319011261015957600435906001600160401b03821161015957366023830112156101595781600401356001600160401b03811161015757820191602483019036821161027f5761037f611a2c565b5060208185031261027f576024810135906001600160401b03821161042757019260a0908490031261015757604051916103b8836111d1565b6103c46024850161102d565b83526044840135906001600160401b0382116101595750926103f060a4926024610423968401016112ab565b60208401526104016064820161102d565b60408401526084810135606084015201356080820152604051918291826112f1565b0390f35b8380fd5b503461015957602036600319011261015957610445611a2c565b506040516328c44a9960e21b815260048035908201529080826024817f00000000000000000000000000000000000000000000000000000000000000006001600160a01b03165afa9182156105215781926104fd575b5060208201517f0000000000000000000000000000000000000000000000000000000000000000036104ee576104236104e261012084015160208082518301019101611521565b604051918291826112f1565b63629cd40b60e11b8152600490fd5b61051a9192503d8084833e6105128183611208565b810190611446565b905f61049b565b50604051903d90823e3d90fd5b50346101595760a036600319011261015957610548611001565b50610551611017565b506044356001600160401b03811161015757610571903690600401611229565b506064356001600160401b03811161015757610591903690600401611229565b506084356001600160401b038111610157576105b19036906004016112ab565b5060405163bc197c8160e01b8152602090f35b60206102756105d236611137565b926105de929192611d29565b61199c565b5034610159576020366003190112610159576105fd611377565b506040516328c44a9960e21b815260048035908201529080826024817f00000000000000000000000000000000000000000000000000000000000000006001600160a01b03165afa9182156105215781926106a4575b5060208201517f000000000000000000000000000000000000000000000000000000000000000003610695576040516020808252819061042390820185611065565b6360000df160e11b8152600490fd5b6106b99192503d8084833e6105128183611208565b905f610653565b503461015957602036600319011261015957600435906106de611377565b506040516328c44a9960e21b8152600481018390529181836024817f00000000000000000000000000000000000000000000000000000000000000006001600160a01b03165afa8093839461084c575b50610746576301fb6dd160e01b825260045260249150fd5b506001600160401b03606083015116421061083d5761077361012083015160208082518301019101611521565b604081019060c060018060a01b0383511694019260018060a01b03845116606083019560808751940193845192823b156108395791849391846107cf969460405197889586948593637921219560e11b855230600486016115ab565b03925af19182610824575b505061081957905191519251905160405163334a7d1b60e21b815293849361081593916001600160a01b0390811691309116600487016115e3565b0390fd5b602060405160018152f35b61082f828092611208565b61015957806107da565b8480fd5b637bf6a16f60e01b8152600490fd5b6108619194503d8085833e6105128183611208565b925f61072e565b5034610159578060031936011261015957606080604051610888816111b6565b8381528360208201528360408201520152604051906351753e3760e11b82527f00000000000000000000000000000000000000000000000000000000000000006004830152808260248160018060a01b037f0000000000000000000000000000000000000000000000000000000000000000165afa908115610a06578091610951575b606082610423604051928392602084528051602085015260018060a01b0360208201511660408501526040810151151582850152015160808084015260a0830190611041565b90503d8082843e6109628184611208565b820191602081840312610157578051906001600160401b03821161027f5701906080828403126101595760405191610999836111b6565b8051835260208101516001600160a01b038116810361027f5760208401526109c3604082016113e9565b60408401526060810151906001600160401b03821161027f57019083601f8301121561015957506060928160206109fc935191016113f6565b828201525f61090b565b604051903d90823e3d90fd5b503461015957806003193601126101595760206040517f00000000000000000000000000000000000000000000000000000000000000008152f35b50346101595780600319360112610159576020610b3e600161042393610a927f0000000000000000000000000000000000000000000000000000000000000000611bbc565b908285610abe7f0000000000000000000000000000000000000000000000000000000000000000611bbc565b8180610ae97f0000000000000000000000000000000000000000000000000000000000000000611bbc565b926040519a888c995191829101848b015e880190601760f91b83830152805192839101602183015e010190601760f91b84830152805192839101600283015e010190838201520301601f198101835282611208565b604051918291602083526020830190611041565b5034610159576080366003190112610159576004356001600160401b0381116101575760a0600319823603011261015757610b8b610fd7565b604435916001600160a01b038316830361042757606435936001600160a01b03851685036101595760206103028686868660040161162a565b5034610ee5576040366003190112610ee5576004359060243590610be6611377565b50610bef611377565b506040516328c44a9960e21b8152600481018490527f00000000000000000000000000000000000000000000000000000000000000006001600160a01b031691905f81602481865afa5f9181610f68575b50610c5857846301fb6dd160e01b5f5260045260245ffd5b84906040516328c44a9960e21b81528560048201525f81602481885afa5f9181610f4c575b50610c9557856301fb6dd160e01b5f5260045260245ffd5b90859194610ca282611b61565b15610f3d57610d0f6020610cc3610120850151828082518301019101611521565b9360018060a01b03855116610cfd8a8488015193516040519687958694859463e6c9714d60e01b8652606060048701526064860190611065565b84810360031901602486015290611041565b90604483015203915afa908115610f32575f91610ef8575b5015610ee957604051610d3981611187565b8481525f602082015260405190610d4f82611187565b7f0000000000000000000000000000000000000000000000000000000000000000825260208201908152823b15610ee55760645f92836020956040519687958694634692626760e01b86525160048601525180516024860152015160448401525af19081610ed0575b50610dd15763614cf93960e01b84526004839052602484fd5b919092604083019160c060018060a01b0384511696019460018060a01b03865116606086019760808951970196875192823b15610ecc57928692839283610e309660405197889586948593637921219560e11b855230600486016115ab565b03925af19182610eb7575b5050610e7a575050905192519351915160405163334a7d1b60e21b8152948594610815949293506001600160a01b0391821691309116600487016115e3565b602093508560018060a01b03905116917fd903ca32e81477af89f5b8a6ce888d185cc715390e49474a77b4c6846254cccd6040519480a460018152f35b81610ec191611208565b610427578389610e3b565b8680fd5b610edd9195505f90611208565b5f9386610db8565b5f80fd5b630ebe58ef60e11b5f5260045ffd5b90506020813d602011610f2a575b81610f1360209383611208565b81010312610ee557610f24906113e9565b87610d27565b3d9150610f06565b6040513d5f823e3d90fd5b63629cd40b60e11b5f5260045ffd5b610f619192503d805f833e6105128183611208565b9087610c7d565b610f7d9192503d805f833e6105128183611208565b905f610c40565b34610ee5576020366003190112610ee5576004359063ffffffff60e01b8216809203610ee557602091630271189760e51b8114908115610fc6575b5015158152f35b6301ffc9a760e01b14905083610fbf565b602435906001600160401b0382168203610ee557565b35906001600160401b0382168203610ee557565b600435906001600160a01b0382168203610ee557565b602435906001600160a01b0382168203610ee557565b35906001600160a01b0382168203610ee557565b805180835260209291819084018484015e5f828201840152601f01601f1916010190565b906101406101206111049380518452602081015160208501526001600160401b0360408201511660408501526001600160401b0360608201511660608501526001600160401b03608082015116608085015260a081015160a085015260018060a01b0360c08201511660c085015260018060a01b0360e08201511660e08501526101008101511515610100850152015191816101208201520190611041565b90565b9181601f84011215610ee5578235916001600160401b038311610ee5576020808501948460051b010111610ee557565b6040600319820112610ee5576004356001600160401b038111610ee5578161116191600401611107565b92909291602435906001600160401b038211610ee55761118391600401611107565b9091565b604081019081106001600160401b038211176111a257604052565b634e487b7160e01b5f52604160045260245ffd5b608081019081106001600160401b038211176111a257604052565b60a081019081106001600160401b038211176111a257604052565b61014081019081106001600160401b038211176111a257604052565b90601f801991011681019081106001600160401b038211176111a257604052565b9080601f83011215610ee5578135916001600160401b0383116111a2578260051b906040519361125c6020840186611208565b8452602080850192820101928311610ee557602001905b8282106112805750505090565b8135815260209182019101611273565b6001600160401b0381116111a257601f01601f191660200190565b81601f82011215610ee5578035906112c282611290565b926112d06040519485611208565b82845260208383010111610ee557815f926020809301838601378301015290565b6020815260018060a01b03825116602082015260a06080611320602085015183604086015260c0850190611041565b93600180841b036040820151166060850152606081015182850152015191015290565b6020600319820112610ee557600435906001600160401b038211610ee557610140908290036003190112610ee55760040190565b60405190611384826111ec565b6060610120835f81525f60208201525f60408201525f838201525f60808201525f60a08201525f60c08201525f60e08201525f6101008201520152565b51906001600160401b0382168203610ee557565b51906001600160a01b0382168203610ee557565b51908115158203610ee557565b92919261140282611290565b916114106040519384611208565b829481845281830111610ee5578281602093845f96015e010152565b9080601f83011215610ee5578151611104926020016113f6565b602081830312610ee5578051906001600160401b038211610ee5570161014081830312610ee5576040519161147a836111ec565b8151835260208201516020840152611494604083016113c1565b60408401526114a5606083016113c1565b60608401526114b6608083016113c1565b608084015260a082015160a08401526114d160c083016113d5565b60c08401526114e260e083016113d5565b60e08401526114f461010083016113e9565b6101008401526101208201516001600160401b038111610ee557611518920161142c565b61012082015290565b602081830312610ee5578051906001600160401b038211610ee557019060a082820312610ee55760405191611555836111d1565b61155e816113d5565b835260208101516001600160401b038111610ee55760809261158191830161142c565b6020840152611592604082016113d5565b6040840152606081015160608401520151608082015290565b6001600160a01b039182168152911660208201526040810191909152606081019190915260a0608082018190525f9082015260c00190565b6001600160a01b039182168152918116602083015290911660408201526060810191909152608081019190915260a00190565b356001600160a01b0381168103610ee55790565b9391929160408501915f91906001600160a01b0361164785611616565b1694606088013597608081013596803b15610ee5575f88611684928c838d60405196879586948593637921219560e11b85523090600486016115ab565b03925af19081611940575b506116bf578888610815896116a38a611616565b9360405194859463334a7d1b60e21b86523091600487016115e3565b604051602080820152949893975091959094916001600160a01b036116e38261102d565b1660408601526020810135601e198236030181121561193c5701602081359101916001600160401b03821161193c57813603831361193c57611779946101009483889560a060608801528160e08801528787013784840186018c90526001600160a01b03906117519061102d565b16608085015260a084015260c0830152601f801991011681010301601f198101835282611208565b6040519160c083018381106001600160401b0382111761192857906001600160401b039160405260018060a01b0316938484521660208301526001604083015284606083015260808201528360a082015260206040516117d881611187565b7f000000000000000000000000000000000000000000000000000000000000000081528181019283526040518093819263f17325e760e01b8352846004840152516024830152516040604483015260018060a01b0381511660648301526001600160401b03848201511660848301526040810151151560a4830152606081015160c483015260a0611879608083015160c060e4860152610124850190611041565b9101516101048301520381877f00000000000000000000000000000000000000000000000000000000000000006001600160a01b03165af18491816118f4575b506118cd57634a10301360e11b8452600484fd5b7f8f7f2dbafd79125e808bf16a53d7fa4e17b8b6374ced76d946a45f94b7bf4d06819480a3565b9091506020813d602011611920575b8161191060209383611208565b810103126108395751905f6118b9565b3d9150611903565b634e487b7160e01b87526041600452602487fd5b8980fd5b61194d9196505f90611208565b5f945f61168f565b91908110156119655760051b0190565b634e487b7160e01b5f52603260045260245ffd5b91908110156119655760051b8101359061013e1981360301821215610ee5570190565b919290818103611a1d575f91345b8284106119bc57505050505050600190565b6119c7848388611955565b35818111611a0e576119da858588611979565b30906001600160a01b03906119f19060e001611616565b1603611a0357600191039301926119aa565b505050505050505f90565b63044044a560e21b5f5260045ffd5b63251f56a160e21b5f5260045ffd5b60405190611a39826111d1565b5f608083828152606060208201528260408201528260608201520152565b7f0000000000000000000000000000000000000000000000000000000000000000602082015103611b5257611a8b81611b61565b15611b4c57611aab610120611abb92015160208082518301019101611521565b9160208082518301019101611521565b604082810151908201516001600160a01b039081169116149182611b39575b82611b25575b82611b0c575b82611af057505090565b6020919250810151818151910120910151602081519101201490565b805182516001600160a01b039081169116149250611ae6565b915060808201516080820151111591611ae0565b9150606082015160608201511491611ada565b50505f90565b635f9bd90760e11b5f5260045ffd5b6001600160401b036060820151168015159081611bb2575b50611ba357608001516001600160401b0316611b9457600190565b637b6227e960e11b5f5260045ffd5b631ab7da6b60e01b5f5260045ffd5b905042115f611b79565b805f9172184f03e93ff9f4daa797ed6e38ed64bf6a1f0160401b821015611d06575b806d04ee2d6d415b85acef8100000000600a921015611ceb575b662386f26fc10000811015611cd7575b6305f5e100811015611cc6575b612710811015611cb7575b6064811015611ca9575b1015611c9e575b600a60216001840193611c4385611290565b94611c516040519687611208565b808652611c60601f1991611290565b013660208701378401015b5f1901916f181899199a1a9b1b9c1cb0b131b232b360811b8282061a8353048015611c9957600a9091611c6b565b505090565b600190910190611c31565b606460029104930192611c2a565b61271060049104930192611c20565b6305f5e10060089104930192611c15565b662386f26fc1000060109104930192611c08565b6d04ee2d6d415b85acef810000000060209104930192611bf8565b506040915072184f03e93ff9f4daa797ed6e38ed64bf6a1f0160401b8104611bde565b7f00000000000000000000000000000000000000000000000000000000000000006001600160a01b03163303611d5b57565b634ca8886760e01b5f5260045ffdfea26469706673582212208434bd3ca5ac6b3679d6c38f8ae10c4ed475041c34e94d35d66e843e17f7aec064736f6c634300081c0033","linkReferences":{}},"methodIdentifiers":{"ATTESTATION_SCHEMA()":"5bf2f20d","attest((bytes32,bytes32,uint64,uint64,uint64,bytes32,address,address,bool,bytes))":"e60c3505","checkObligation((bytes32,bytes32,uint64,uint64,uint64,bytes32,address,address,bool,bytes),bytes,bytes32)":"e6c9714d","collectEscrow(bytes32,bytes32)":"2c713cd9","decodeObligationData(bytes)":"c93844be","doObligation((address,bytes,address,uint256,uint256),uint64)":"cecf1aff","doObligationFor((address,bytes,address,uint256,uint256),uint64,address,address)":"3dc9f350","getObligation(bytes32)":"7f9e0fd2","getObligationData(bytes32)":"c6ec5070","getSchema()":"6b122fe0","isPayable()":"ce46e046","multiAttest((bytes32,bytes32,uint64,uint64,uint64,bytes32,address,address,bool,bytes)[],uint256[])":"91db0b7e","multiRevoke((bytes32,bytes32,uint64,uint64,uint64,bytes32,address,address,bool,bytes)[],uint256[])":"88e5b2d9","onERC1155BatchReceived(address,address,uint256[],uint256[],bytes)":"bc197c81","onERC1155Received(address,address,uint256,uint256,bytes)":"f23a6e61","reclaimExpired(bytes32)":"7d2c2931","revoke((bytes32,bytes32,uint64,uint64,uint64,bytes32,address,address,bool,bytes))":"e49617e1","supportsInterface(bytes4)":"01ffc9a7","version()":"54fd4d50"},"id":111}