{"abi":[{"type":"constructor","inputs":[{"name":"_eas","type":"address","internalType":"contract IEAS"},{"name":"_schemaRegistry","type":"address","internalType":"contract ISchemaRegistry"}],"stateMutability":"nonpayable"},{"type":"receive","stateMutability":"payable"},{"type":"function","name":"ATTESTATION_SCHEMA","inputs":[],"outputs":[{"name":"","type":"bytes32","internalType":"bytes32"}],"stateMutability":"view"},{"type":"function","name":"attest","inputs":[{"name":"attestation","type":"tuple","internalType":"struct Attestation","components":[{"name":"uid","type":"bytes32","internalType":"bytes32"},{"name":"schema","type":"bytes32","internalType":"bytes32"},{"name":"time","type":"uint64","internalType":"uint64"},{"name":"expirationTime","type":"uint64","internalType":"uint64"},{"name":"revocationTime","type":"uint64","internalType":"uint64"},{"name":"refUID","type":"bytes32","internalType":"bytes32"},{"name":"recipient","type":"address","internalType":"address"},{"name":"attester","type":"address","internalType":"address"},{"name":"revocable","type":"bool","internalType":"bool"},{"name":"data","type":"bytes","internalType":"bytes"}]}],"outputs":[{"name":"","type":"bool","internalType":"bool"}],"stateMutability":"payable"},{"type":"function","name":"checkObligation","inputs":[{"name":"obligation","type":"tuple","internalType":"struct Attestation","components":[{"name":"uid","type":"bytes32","internalType":"bytes32"},{"name":"schema","type":"bytes32","internalType":"bytes32"},{"name":"time","type":"uint64","internalType":"uint64"},{"name":"expirationTime","type":"uint64","internalType":"uint64"},{"name":"revocationTime","type":"uint64","internalType":"uint64"},{"name":"refUID","type":"bytes32","internalType":"bytes32"},{"name":"recipient","type":"address","internalType":"address"},{"name":"attester","type":"address","internalType":"address"},{"name":"revocable","type":"bool","internalType":"bool"},{"name":"data","type":"bytes","internalType":"bytes"}]},{"name":"demand","type":"bytes","internalType":"bytes"},{"name":"","type":"bytes32","internalType":"bytes32"}],"outputs":[{"name":"","type":"bool","internalType":"bool"}],"stateMutability":"view"},{"type":"function","name":"decodeObligationData","inputs":[{"name":"data","type":"bytes","internalType":"bytes"}],"outputs":[{"name":"","type":"tuple","internalType":"struct ERC20PaymentObligation.ObligationData","components":[{"name":"token","type":"address","internalType":"address"},{"name":"amount","type":"uint256","internalType":"uint256"},{"name":"payee","type":"address","internalType":"address"}]}],"stateMutability":"pure"},{"type":"function","name":"doObligation","inputs":[{"name":"data","type":"tuple","internalType":"struct ERC20PaymentObligation.ObligationData","components":[{"name":"token","type":"address","internalType":"address"},{"name":"amount","type":"uint256","internalType":"uint256"},{"name":"payee","type":"address","internalType":"address"}]}],"outputs":[{"name":"uid_","type":"bytes32","internalType":"bytes32"}],"stateMutability":"nonpayable"},{"type":"function","name":"doObligationFor","inputs":[{"name":"data","type":"tuple","internalType":"struct ERC20PaymentObligation.ObligationData","components":[{"name":"token","type":"address","internalType":"address"},{"name":"amount","type":"uint256","internalType":"uint256"},{"name":"payee","type":"address","internalType":"address"}]},{"name":"payer","type":"address","internalType":"address"},{"name":"recipient","type":"address","internalType":"address"}],"outputs":[{"name":"uid_","type":"bytes32","internalType":"bytes32"}],"stateMutability":"nonpayable"},{"type":"function","name":"getObligation","inputs":[{"name":"uid","type":"bytes32","internalType":"bytes32"}],"outputs":[{"name":"","type":"tuple","internalType":"struct Attestation","components":[{"name":"uid","type":"bytes32","internalType":"bytes32"},{"name":"schema","type":"bytes32","internalType":"bytes32"},{"name":"time","type":"uint64","internalType":"uint64"},{"name":"expirationTime","type":"uint64","internalType":"uint64"},{"name":"revocationTime","type":"uint64","internalType":"uint64"},{"name":"refUID","type":"bytes32","internalType":"bytes32"},{"name":"recipient","type":"address","internalType":"address"},{"name":"attester","type":"address","internalType":"address"},{"name":"revocable","type":"bool","internalType":"bool"},{"name":"data","type":"bytes","internalType":"bytes"}]}],"stateMutability":"view"},{"type":"function","name":"getObligationData","inputs":[{"name":"uid","type":"bytes32","internalType":"bytes32"}],"outputs":[{"name":"","type":"tuple","internalType":"struct ERC20PaymentObligation.ObligationData","components":[{"name":"token","type":"address","internalType":"address"},{"name":"amount","type":"uint256","internalType":"uint256"},{"name":"payee","type":"address","internalType":"address"}]}],"stateMutability":"view"},{"type":"function","name":"getSchema","inputs":[],"outputs":[{"name":"","type":"tuple","internalType":"struct SchemaRecord","components":[{"name":"uid","type":"bytes32","internalType":"bytes32"},{"name":"resolver","type":"address","internalType":"contract ISchemaResolver"},{"name":"revocable","type":"bool","internalType":"bool"},{"name":"schema","type":"string","internalType":"string"}]}],"stateMutability":"view"},{"type":"function","name":"isPayable","inputs":[],"outputs":[{"name":"","type":"bool","internalType":"bool"}],"stateMutability":"pure"},{"type":"function","name":"multiAttest","inputs":[{"name":"attestations","type":"tuple[]","internalType":"struct Attestation[]","components":[{"name":"uid","type":"bytes32","internalType":"bytes32"},{"name":"schema","type":"bytes32","internalType":"bytes32"},{"name":"time","type":"uint64","internalType":"uint64"},{"name":"expirationTime","type":"uint64","internalType":"uint64"},{"name":"revocationTime","type":"uint64","internalType":"uint64"},{"name":"refUID","type":"bytes32","internalType":"bytes32"},{"name":"recipient","type":"address","internalType":"address"},{"name":"attester","type":"address","internalType":"address"},{"name":"revocable","type":"bool","internalType":"bool"},{"name":"data","type":"bytes","internalType":"bytes"}]},{"name":"values","type":"uint256[]","internalType":"uint256[]"}],"outputs":[{"name":"","type":"bool","internalType":"bool"}],"stateMutability":"payable"},{"type":"function","name":"multiRevoke","inputs":[{"name":"attestations","type":"tuple[]","internalType":"struct Attestation[]","components":[{"name":"uid","type":"bytes32","internalType":"bytes32"},{"name":"schema","type":"bytes32","internalType":"bytes32"},{"name":"time","type":"uint64","internalType":"uint64"},{"name":"expirationTime","type":"uint64","internalType":"uint64"},{"name":"revocationTime","type":"uint64","internalType":"uint64"},{"name":"refUID","type":"bytes32","internalType":"bytes32"},{"name":"recipient","type":"address","internalType":"address"},{"name":"attester","type":"address","internalType":"address"},{"name":"revocable","type":"bool","internalType":"bool"},{"name":"data","type":"bytes","internalType":"bytes"}]},{"name":"values","type":"uint256[]","internalType":"uint256[]"}],"outputs":[{"name":"","type":"bool","internalType":"bool"}],"stateMutability":"payable"},{"type":"function","name":"revoke","inputs":[{"name":"attestation","type":"tuple","internalType":"struct Attestation","components":[{"name":"uid","type":"bytes32","internalType":"bytes32"},{"name":"schema","type":"bytes32","internalType":"bytes32"},{"name":"time","type":"uint64","internalType":"uint64"},{"name":"expirationTime","type":"uint64","internalType":"uint64"},{"name":"revocationTime","type":"uint64","internalType":"uint64"},{"name":"refUID","type":"bytes32","internalType":"bytes32"},{"name":"recipient","type":"address","internalType":"address"},{"name":"attester","type":"address","internalType":"address"},{"name":"revocable","type":"bool","internalType":"bool"},{"name":"data","type":"bytes","internalType":"bytes"}]}],"outputs":[{"name":"","type":"bool","internalType":"bool"}],"stateMutability":"payable"},{"type":"function","name":"version","inputs":[],"outputs":[{"name":"","type":"string","internalType":"string"}],"stateMutability":"view"},{"type":"event","name":"PaymentMade","inputs":[{"name":"payment","type":"bytes32","indexed":true,"internalType":"bytes32"},{"name":"buyer","type":"address","indexed":true,"internalType":"address"}],"anonymous":false},{"type":"error","name":"AccessDenied","inputs":[]},{"type":"error","name":"AttestationCreateFailed","inputs":[]},{"type":"error","name":"AttestationRevoked","inputs":[]},{"type":"error","name":"DeadlineExpired","inputs":[]},{"type":"error","name":"ERC20TransferFailed","inputs":[{"name":"token","type":"address","internalType":"address"},{"name":"from","type":"address","internalType":"address"},{"name":"to","type":"address","internalType":"address"},{"name":"amount","type":"uint256","internalType":"uint256"}]},{"type":"error","name":"InsufficientValue","inputs":[]},{"type":"error","name":"InvalidEAS","inputs":[]},{"type":"error","name":"InvalidLength","inputs":[]},{"type":"error","name":"InvalidPayment","inputs":[]},{"type":"error","name":"InvalidSchema","inputs":[]},{"type":"error","name":"NotFromObligation","inputs":[]},{"type":"error","name":"NotPayable","inputs":[]}],"bytecode":{"object":"0x61016080604052346101e05760408161159b8038038091610020828561021a565b8339810103126101e05780516001600160a01b038116918282036101e05760200151916001600160a01b0383168084036101e057604051606081016001600160401b0381118282101761020657604052602c815260208101927f6164647265737320746f6b656e2c2075696e7432353620616d6f756e742c206184526b64647265737320706179656560a01b60408301526001608052600460a0525f60c052156101f7576084948460209560e05261012052610100525f604051958680958194630c1af44f60e31b8352606060048401525180918160648501528484015e818101830184905230602483015260016044830152601f01601f191681010301925af19081156101ec575f916101b6575b506101405260405161135d908161023e823960805181610942015260a0518161096d015260c05181610998015260e051816112c6015261010051816107c4015261012051818181610431015281816106280152610f2b0152610140518181816101dd015281816104710152818161066101528181610792015281816109000152610e7e0152f35b90506020813d6020116101e4575b816101d16020938361021a565b810103126101e057515f61012f565b5f80fd5b3d91506101c4565b6040513d5f823e3d90fd5b6341bc07ff60e11b5f5260045ffd5b634e487b7160e01b5f52604160045260245ffd5b601f909101601f19168101906001600160401b038211908210176102065760405256fe60806040526004361015610027575b3615610018575f80fd5b631574f9f360e01b5f5260045ffd5b5f3560e01c806354fd4d50146109235780635bf2f20d146108e95780636b122fe0146107535780637f9e0fd2146105ae57806388d8b7e21461056257806388e5b2d91461054357806391db0b7e146105435780639b28978c1461051e578063c6ec5070146103fb578063c93844be14610327578063ce46e0461461030d578063e49617e1146102e8578063e60c3505146102e85763e6c9714d0361000e57346102e45760603660031901126102e4576004356001600160401b0381116102e45761014060031982360301126102e4576040519061010382610b3c565b8060040135825260208201906024810135825261012260448201610b94565b604084015261013360648201610b94565b6060840190815261014660848301610b94565b916080850192835260a481013560a086015261016460c48201610a45565b60c086015261017560e48201610a45565b60e086015261010481013580151581036102e4576101008601526101248101356001600160401b0381116102e4576101209160046101b69236920101610bc3565b94019384526024356001600160401b0381116102e4576101da903690600401610bc3565b927f00000000000000000000000000000000000000000000000000000000000000009051036102d557516001600160401b031680151590816102cb575b506102bc57516001600160401b03166102ad5761025161024260209351848082518301019101611118565b91838082518301019101611118565b815181516001600160a01b03908116911614918261029c575b8261027c575b50506040519015158152f35b6040908101519101516001600160a01b0390811691161490505f80610270565b83810151828501511115925061026a565b637b6227e960e11b5f5260045ffd5b631ab7da6b60e01b5f5260045ffd5b905042115f610217565b635f9bd90760e11b5f5260045ffd5b5f80fd5b60206103036102f636610ad9565b6102fe6112c4565b611305565b6040519015158152f35b346102e4575f3660031901126102e45760206040515f8152f35b346102e45760203660031901126102e4576004356001600160401b0381116102e457366023820112156102e45780600401356001600160401b0381116102e45781013660248201116102e45760609061037e6110fa565b50829003126102e4576103f7906103bb60646040519261039d84610b58565b6103a960248201610a45565b84526044810135602085015201610a45565b6040828101918252805183516001600160a01b039081168252602094850151948201949094529151909216918101919091529081906060820190565b0390f35b346102e45760203660031901126102e4576104146110fa565b506040516328c44a9960e21b815260048035908201525f816024817f00000000000000000000000000000000000000000000000000000000000000006001600160a01b03165afa908115610513575f916104f1575b5060208101517f0000000000000000000000000000000000000000000000000000000000000000036104e2576104b06101206103f792015160208082518301019101611118565b6040805182516001600160a01b0390811682526020808501519083015292820151909216908201529081906060820190565b63078d696560e31b5f5260045ffd5b61050d91503d805f833e6105058183610b73565b810190610c74565b81610469565b6040513d5f823e3d90fd5b346102e45760603660031901126102e457602061053b3333610d62565b604051908152f35b602061030361055136610a89565b9261055d9291926112c4565b61107e565b346102e457366003190160a081126102e4576060136102e4576064356001600160a01b03811681036102e457608435906001600160a01b03821682036102e45760209161053b91610d62565b346102e45760203660031901126102e45760606101206040516105d081610b3c565b5f81525f60208201525f60408201525f838201525f60808201525f60a08201525f60c08201525f60e08201525f61010082015201526040516328c44a9960e21b815260043560048201525f8160248160018060a01b037f0000000000000000000000000000000000000000000000000000000000000000165afa908115610513575f91610739575b506020810180517f00000000000000000000000000000000000000000000000000000000000000000361072a576103f761012060405193849360208552815160208601525160408501526001600160401b0360408201511660608501526001600160401b0360608201511660808501526001600160401b0360808201511660a085015260a081015160c085015260018060a01b0360c08201511660e085015260018060a01b0360e082015116610100850152610100810151151582850152015161014080840152610160830190610a21565b6360000df160e11b5f5260045ffd5b61074d91503d805f833e6105058183610b73565b81610658565b346102e4575f3660031901126102e45760608060405161077281610b0d565b5f81525f60208201525f604082015201526040516351753e3760e11b81527f000000000000000000000000000000000000000000000000000000000000000060048201525f8160248160018060a01b037f0000000000000000000000000000000000000000000000000000000000000000165afa8015610513575f90610839575b6060906103f7604051928392602084528051602085015260018060a01b0360208201511660408501526040810151151582850152015160808084015260a0830190610a21565b503d805f833e6108498183610b73565b8101906020818303126102e4578051906001600160401b0382116102e457016080818303126102e4576040519061087f82610b0d565b8051825260208101516001600160a01b03811681036102e45760208301526108a960408201610c09565b60408301526060810151906001600160401b0382116102e4570182601f820112156102e4576060928160206108e093519101610c16565b828201526107f3565b346102e4575f3660031901126102e45760206040517f00000000000000000000000000000000000000000000000000000000000000008152f35b346102e4575f3660031901126102e4576103f76020610a1160016109667f0000000000000000000000000000000000000000000000000000000000000000611157565b81846109917f0000000000000000000000000000000000000000000000000000000000000000611157565b81806109bc7f0000000000000000000000000000000000000000000000000000000000000000611157565b9260405199878b985191829101848a015e870190601760f91b83830152805192839101602183015e010190601760f91b84830152805192839101600283015e01015f838201520301601f198101835282610b73565b6040519182916020835260208301905b805180835260209291819084018484015e5f828201840152601f01601f1916010190565b35906001600160a01b03821682036102e457565b9181601f840112156102e4578235916001600160401b0383116102e4576020808501948460051b0101116102e457565b60406003198201126102e4576004356001600160401b0381116102e45781610ab391600401610a59565b92909291602435906001600160401b0382116102e457610ad591600401610a59565b9091565b60206003198201126102e457600435906001600160401b0382116102e4576101409082900360031901126102e45760040190565b608081019081106001600160401b03821117610b2857604052565b634e487b7160e01b5f52604160045260245ffd5b61014081019081106001600160401b03821117610b2857604052565b606081019081106001600160401b03821117610b2857604052565b90601f801991011681019081106001600160401b03821117610b2857604052565b35906001600160401b03821682036102e457565b6001600160401b038111610b2857601f01601f191660200190565b81601f820112156102e457803590610bda82610ba8565b92610be86040519485610b73565b828452602083830101116102e457815f926020809301838601378301015290565b519081151582036102e457565b929192610c2282610ba8565b91610c306040519384610b73565b8294818452818301116102e4578281602093845f96015e010152565b51906001600160401b03821682036102e457565b51906001600160a01b03821682036102e457565b6020818303126102e4578051906001600160401b0382116102e4570190610140828203126102e45760405191610ca983610b3c565b8051835260208101516020840152610cc360408201610c4c565b6040840152610cd460608201610c4c565b6060840152610ce560808201610c4c565b608084015260a081015160a0840152610d0060c08201610c60565b60c0840152610d1160e08201610c60565b60e0840152610d236101008201610c09565b610100840152610120810151906001600160401b0382116102e457019080601f830112156102e4578151610d5992602001610c16565b61012082015290565b909190600435906001600160a01b038216908183141590816102e4576044356001600160a01b038116938482141593919291846102e4576040516323b872dd60e01b81526001600160a01b039093166004840181905260248481018890523560448501819052936020816064815f885af15f9181610ffb575b50610ff657505f5b15610fcc575060405196506102e45760208601526040850152506102e457606082015260608152610e15608082610b73565b6040519260c084018481106001600160401b03821117610b285760405260018060a01b0316908184525f6020850152600160408501525f606085015260808401525f60a084015260405160408101908082106001600160401b03831117610b28576020916040527f000000000000000000000000000000000000000000000000000000000000000081528181019485526040518095819263f17325e760e01b8352846004840152516024830152516040604483015260018060a01b0381511660648301526001600160401b03848201511660848301526040810151151560a4830152606081015160c483015260a0610f1d608083015160c060e4860152610124850190610a21565b91015161010483015203815f7f00000000000000000000000000000000000000000000000000000000000000006001600160a01b03165af15f9381610f98575b50610f7157634a10301360e11b5f5260045ffd5b827f4b5d781b1f4414459813c44d669c7821fcdec72a83b67c0303229be68d03ad055f80a3565b9093506020813d602011610fc4575b81610fb460209383610b73565b810103126102e45751925f610f5d565b3d9150610fa7565b82848860849360405193634a73404560e11b85526004850152602484015260448301526064820152fd5b610de3565b9091506020813d60201161102f575b8161101760209383610b73565b810103126102e45761102890610c09565b905f610ddb565b3d915061100a565b91908110156110475760051b0190565b634e487b7160e01b5f52603260045260245ffd5b91908110156110475760051b8101359061013e19813603018212156102e4570190565b929091928183036110eb575f91345b84841061109f57505050505050600190565b6110aa848388611037565b358181116110dc576110c06102fe86888761105b565b156110d1576001910393019261108d565b505050505050505f90565b63044044a560e21b5f5260045ffd5b63251f56a160e21b5f5260045ffd5b6040519061110782610b58565b5f6040838281528260208201520152565b908160609103126102e45761114f604080519261113484610b58565b61113d81610c60565b84526020810151602085015201610c60565b604082015290565b805f9172184f03e93ff9f4daa797ed6e38ed64bf6a1f0160401b8210156112a1575b806d04ee2d6d415b85acef8100000000600a921015611286575b662386f26fc10000811015611272575b6305f5e100811015611261575b612710811015611252575b6064811015611244575b1015611239575b600a602160018401936111de85610ba8565b946111ec6040519687610b73565b8086526111fb601f1991610ba8565b013660208701378401015b5f1901916f181899199a1a9b1b9c1cb0b131b232b360811b8282061a835304801561123457600a9091611206565b505090565b6001909101906111cc565b6064600291049301926111c5565b612710600491049301926111bb565b6305f5e100600891049301926111b0565b662386f26fc10000601091049301926111a3565b6d04ee2d6d415b85acef810000000060209104930192611193565b506040915072184f03e93ff9f4daa797ed6e38ed64bf6a1f0160401b8104611179565b7f00000000000000000000000000000000000000000000000000000000000000006001600160a01b031633036112f657565b634ca8886760e01b5f5260045ffd5b60e001356001600160a01b03811681036102e4576001600160a01b031630149056fea264697066735822122099139fe169a41b2bb9e1d58a4835d103ef3814be421faa21042e2d352ee4c26a64736f6c634300081c0033","linkReferences":{}},"methodIdentifiers":{"ATTESTATION_SCHEMA()":"5bf2f20d","attest((bytes32,bytes32,uint64,uint64,uint64,bytes32,address,address,bool,bytes))":"e60c3505","checkObligation((bytes32,bytes32,uint64,uint64,uint64,bytes32,address,address,bool,bytes),bytes,bytes32)":"e6c9714d","decodeObligationData(bytes)":"c93844be","doObligation((address,uint256,address))":"9b28978c","doObligationFor((address,uint256,address),address,address)":"88d8b7e2","getObligation(bytes32)":"7f9e0fd2","getObligationData(bytes32)":"c6ec5070","getSchema()":"6b122fe0","isPayable()":"ce46e046","multiAttest((bytes32,bytes32,uint64,uint64,uint64,bytes32,address,address,bool,bytes)[],uint256[])":"91db0b7e","multiRevoke((bytes32,bytes32,uint64,uint64,uint64,bytes32,address,address,bool,bytes)[],uint256[])":"88e5b2d9","revoke((bytes32,bytes32,uint64,uint64,uint64,bytes32,address,address,bool,bytes))":"e49617e1","version()":"54fd4d50"},"id":114}