{"abi":[{"type":"constructor","inputs":[{"name":"_eas","type":"address","internalType":"contract IEAS"},{"name":"_erc20Escrow","type":"address","internalType":"contract ERC20EscrowObligation"},{"name":"_erc20Payment","type":"address","internalType":"contract ERC20PaymentObligation"},{"name":"_erc721Escrow","type":"address","internalType":"contract ERC721EscrowObligation"},{"name":"_erc721Payment","type":"address","internalType":"contract ERC721PaymentObligation"},{"name":"_erc1155Escrow","type":"address","internalType":"contract ERC1155EscrowObligation"},{"name":"_erc1155Payment","type":"address","internalType":"contract ERC1155PaymentObligation"},{"name":"_bundleEscrow","type":"address","internalType":"contract TokenBundleEscrowObligation"},{"name":"_bundlePayment","type":"address","internalType":"contract TokenBundlePaymentObligation"}],"stateMutability":"nonpayable"},{"type":"function","name":"buyBundleWithErc20","inputs":[{"name":"bidToken","type":"address","internalType":"address"},{"name":"bidAmount","type":"uint256","internalType":"uint256"},{"name":"askData","type":"tuple","internalType":"struct TokenBundlePaymentObligation.StatementData","components":[{"name":"erc20Tokens","type":"address[]","internalType":"address[]"},{"name":"erc20Amounts","type":"uint256[]","internalType":"uint256[]"},{"name":"erc721Tokens","type":"address[]","internalType":"address[]"},{"name":"erc721TokenIds","type":"uint256[]","internalType":"uint256[]"},{"name":"erc1155Tokens","type":"address[]","internalType":"address[]"},{"name":"erc1155TokenIds","type":"uint256[]","internalType":"uint256[]"},{"name":"erc1155Amounts","type":"uint256[]","internalType":"uint256[]"},{"name":"payee","type":"address","internalType":"address"}]},{"name":"expiration","type":"uint64","internalType":"uint64"}],"outputs":[{"name":"","type":"bytes32","internalType":"bytes32"}],"stateMutability":"nonpayable"},{"type":"function","name":"buyErc1155WithErc20","inputs":[{"name":"bidToken","type":"address","internalType":"address"},{"name":"bidAmount","type":"uint256","internalType":"uint256"},{"name":"askToken","type":"address","internalType":"address"},{"name":"askId","type":"uint256","internalType":"uint256"},{"name":"askAmount","type":"uint256","internalType":"uint256"},{"name":"expiration","type":"uint64","internalType":"uint64"}],"outputs":[{"name":"","type":"bytes32","internalType":"bytes32"}],"stateMutability":"nonpayable"},{"type":"function","name":"buyErc20ForErc20","inputs":[{"name":"bidToken","type":"address","internalType":"address"},{"name":"bidAmount","type":"uint256","internalType":"uint256"},{"name":"askToken","type":"address","internalType":"address"},{"name":"askAmount","type":"uint256","internalType":"uint256"},{"name":"expiration","type":"uint64","internalType":"uint64"}],"outputs":[{"name":"","type":"bytes32","internalType":"bytes32"}],"stateMutability":"nonpayable"},{"type":"function","name":"buyErc721WithErc20","inputs":[{"name":"bidToken","type":"address","internalType":"address"},{"name":"bidAmount","type":"uint256","internalType":"uint256"},{"name":"askToken","type":"address","internalType":"address"},{"name":"askId","type":"uint256","internalType":"uint256"},{"name":"expiration","type":"uint64","internalType":"uint64"}],"outputs":[{"name":"","type":"bytes32","internalType":"bytes32"}],"stateMutability":"nonpayable"},{"type":"function","name":"payErc20ForBundle","inputs":[{"name":"buyAttestation","type":"bytes32","internalType":"bytes32"}],"outputs":[{"name":"","type":"bytes32","internalType":"bytes32"}],"stateMutability":"nonpayable"},{"type":"function","name":"payErc20ForErc1155","inputs":[{"name":"buyAttestation","type":"bytes32","internalType":"bytes32"}],"outputs":[{"name":"","type":"bytes32","internalType":"bytes32"}],"stateMutability":"nonpayable"},{"type":"function","name":"payErc20ForErc20","inputs":[{"name":"buyAttestation","type":"bytes32","internalType":"bytes32"}],"outputs":[{"name":"","type":"bytes32","internalType":"bytes32"}],"stateMutability":"nonpayable"},{"type":"function","name":"payErc20ForErc721","inputs":[{"name":"buyAttestation","type":"bytes32","internalType":"bytes32"}],"outputs":[{"name":"","type":"bytes32","internalType":"bytes32"}],"stateMutability":"nonpayable"},{"type":"function","name":"permitAndBuyBundleWithErc20","inputs":[{"name":"bidToken","type":"address","internalType":"address"},{"name":"bidAmount","type":"uint256","internalType":"uint256"},{"name":"askData","type":"tuple","internalType":"struct TokenBundlePaymentObligation.StatementData","components":[{"name":"erc20Tokens","type":"address[]","internalType":"address[]"},{"name":"erc20Amounts","type":"uint256[]","internalType":"uint256[]"},{"name":"erc721Tokens","type":"address[]","internalType":"address[]"},{"name":"erc721TokenIds","type":"uint256[]","internalType":"uint256[]"},{"name":"erc1155Tokens","type":"address[]","internalType":"address[]"},{"name":"erc1155TokenIds","type":"uint256[]","internalType":"uint256[]"},{"name":"erc1155Amounts","type":"uint256[]","internalType":"uint256[]"},{"name":"payee","type":"address","internalType":"address"}]},{"name":"expiration","type":"uint64","internalType":"uint64"},{"name":"deadline","type":"uint256","internalType":"uint256"},{"name":"v","type":"uint8","internalType":"uint8"},{"name":"r","type":"bytes32","internalType":"bytes32"},{"name":"s","type":"bytes32","internalType":"bytes32"}],"outputs":[{"name":"","type":"bytes32","internalType":"bytes32"}],"stateMutability":"nonpayable"},{"type":"function","name":"permitAndBuyErc1155WithErc20","inputs":[{"name":"bidToken","type":"address","internalType":"address"},{"name":"bidAmount","type":"uint256","internalType":"uint256"},{"name":"askToken","type":"address","internalType":"address"},{"name":"askId","type":"uint256","internalType":"uint256"},{"name":"askAmount","type":"uint256","internalType":"uint256"},{"name":"expiration","type":"uint64","internalType":"uint64"},{"name":"deadline","type":"uint256","internalType":"uint256"},{"name":"v","type":"uint8","internalType":"uint8"},{"name":"r","type":"bytes32","internalType":"bytes32"},{"name":"s","type":"bytes32","internalType":"bytes32"}],"outputs":[{"name":"","type":"bytes32","internalType":"bytes32"}],"stateMutability":"nonpayable"},{"type":"function","name":"permitAndBuyErc20ForErc20","inputs":[{"name":"bidToken","type":"address","internalType":"address"},{"name":"bidAmount","type":"uint256","internalType":"uint256"},{"name":"askToken","type":"address","internalType":"address"},{"name":"askAmount","type":"uint256","internalType":"uint256"},{"name":"expiration","type":"uint64","internalType":"uint64"},{"name":"deadline","type":"uint256","internalType":"uint256"},{"name":"v","type":"uint8","internalType":"uint8"},{"name":"r","type":"bytes32","internalType":"bytes32"},{"name":"s","type":"bytes32","internalType":"bytes32"}],"outputs":[{"name":"","type":"bytes32","internalType":"bytes32"}],"stateMutability":"nonpayable"},{"type":"function","name":"permitAndBuyErc721WithErc20","inputs":[{"name":"bidToken","type":"address","internalType":"address"},{"name":"bidAmount","type":"uint256","internalType":"uint256"},{"name":"askToken","type":"address","internalType":"address"},{"name":"askId","type":"uint256","internalType":"uint256"},{"name":"expiration","type":"uint64","internalType":"uint64"},{"name":"deadline","type":"uint256","internalType":"uint256"},{"name":"v","type":"uint8","internalType":"uint8"},{"name":"r","type":"bytes32","internalType":"bytes32"},{"name":"s","type":"bytes32","internalType":"bytes32"}],"outputs":[{"name":"","type":"bytes32","internalType":"bytes32"}],"stateMutability":"nonpayable"},{"type":"function","name":"permitAndBuyWithErc20","inputs":[{"name":"token","type":"address","internalType":"address"},{"name":"amount","type":"uint256","internalType":"uint256"},{"name":"arbiter","type":"address","internalType":"address"},{"name":"demand","type":"bytes","internalType":"bytes"},{"name":"expiration","type":"uint64","internalType":"uint64"},{"name":"deadline","type":"uint256","internalType":"uint256"},{"name":"v","type":"uint8","internalType":"uint8"},{"name":"r","type":"bytes32","internalType":"bytes32"},{"name":"s","type":"bytes32","internalType":"bytes32"}],"outputs":[{"name":"","type":"bytes32","internalType":"bytes32"}],"stateMutability":"nonpayable"},{"type":"function","name":"permitAndPayErc20ForBundle","inputs":[{"name":"buyAttestation","type":"bytes32","internalType":"bytes32"},{"name":"deadline","type":"uint256","internalType":"uint256"},{"name":"v","type":"uint8","internalType":"uint8"},{"name":"r","type":"bytes32","internalType":"bytes32"},{"name":"s","type":"bytes32","internalType":"bytes32"}],"outputs":[{"name":"","type":"bytes32","internalType":"bytes32"}],"stateMutability":"nonpayable"},{"type":"function","name":"permitAndPayErc20ForErc1155","inputs":[{"name":"buyAttestation","type":"bytes32","internalType":"bytes32"},{"name":"deadline","type":"uint256","internalType":"uint256"},{"name":"v","type":"uint8","internalType":"uint8"},{"name":"r","type":"bytes32","internalType":"bytes32"},{"name":"s","type":"bytes32","internalType":"bytes32"}],"outputs":[{"name":"","type":"bytes32","internalType":"bytes32"}],"stateMutability":"nonpayable"},{"type":"function","name":"permitAndPayErc20ForErc20","inputs":[{"name":"buyAttestation","type":"bytes32","internalType":"bytes32"},{"name":"deadline","type":"uint256","internalType":"uint256"},{"name":"v","type":"uint8","internalType":"uint8"},{"name":"r","type":"bytes32","internalType":"bytes32"},{"name":"s","type":"bytes32","internalType":"bytes32"}],"outputs":[{"name":"","type":"bytes32","internalType":"bytes32"}],"stateMutability":"nonpayable"},{"type":"function","name":"permitAndPayErc20ForErc721","inputs":[{"name":"buyAttestation","type":"bytes32","internalType":"bytes32"},{"name":"deadline","type":"uint256","internalType":"uint256"},{"name":"v","type":"uint8","internalType":"uint8"},{"name":"r","type":"bytes32","internalType":"bytes32"},{"name":"s","type":"bytes32","internalType":"bytes32"}],"outputs":[{"name":"","type":"bytes32","internalType":"bytes32"}],"stateMutability":"nonpayable"},{"type":"function","name":"permitAndPayWithErc20","inputs":[{"name":"token","type":"address","internalType":"address"},{"name":"amount","type":"uint256","internalType":"uint256"},{"name":"payee","type":"address","internalType":"address"},{"name":"deadline","type":"uint256","internalType":"uint256"},{"name":"v","type":"uint8","internalType":"uint8"},{"name":"r","type":"bytes32","internalType":"bytes32"},{"name":"s","type":"bytes32","internalType":"bytes32"}],"outputs":[{"name":"","type":"bytes32","internalType":"bytes32"}],"stateMutability":"nonpayable"},{"type":"error","name":"AttestationNotFound","inputs":[{"name":"attestationId","type":"bytes32","internalType":"bytes32"}]},{"type":"error","name":"CouldntCollectPayment","inputs":[]},{"type":"error","name":"PermitFailed","inputs":[{"name":"token","type":"address","internalType":"address"},{"name":"reason","type":"string","internalType":"string"}]}],"bytecode":{"object":"0x6080346101ae57601f61200538819003918201601f19168301916001600160401b038311848410176101b257808492610120946040528339810103126101ae5780516001600160a01b03811691908290036101ae5760208101516001600160a01b038116908190036101ae5760408201516001600160a01b038116908190036101ae5760608301516001600160a01b038116908190036101ae5760808401516001600160a01b03811691908290036101ae5760a08501516001600160a01b03811693908490036101ae5760c08601516001600160a01b03811695908690036101ae5760e08701516001600160a01b03811697908890036101ae5761010001516001600160a01b03811698908990036101ae5760018060a01b03195f5416175f5560018060a01b0319600154161760015560018060a01b0319600254161760025560018060a01b0319600354161760035560018060a01b0319600454161760045560018060a01b0319600554161760055560018060a01b0319600654161760065560018060a01b0319600754161760075560018060a01b03196008541617600855604051611e3e90816101c78239f35b5f80fd5b634e487b7160e01b5f52604160045260245ffdfe6080806040526004361015610012575f80fd5b5f905f3560e01c9081631454e3d214610d1d575080631b24bf5214610d015780632bf2ee3914610c5c5780633d94053d14610c4057806346b3aca214610c0057806367cebb7014610a8957806372448d4d14610972578063759503f2146108ca578063a6c002e91461083c578063a7a6884d1461079c578063a827053014610703578063a96addea146106a1578063ab2fc26514610609578063b56edf541461054b578063c17783891461047d578063c266137314610303578063e1982e13146101ab5763e3139e86146100e4575f80fd5b346101a8576100f236610da3565b9160248660018060a09897981b03815416604051928380926328c44a9960e21b82528960048301525afa90811561019d5791610166602061015661012061016d97956101729b9a99978d859e9261017a575b5050015182808251830101910161172e565b0151898082518301019101611173565b95866118e0565b6119c9565b604051908152f35b61019692503d8091833e61018e8183610ef3565b810190611018565b5f80610144565b6040513d89823e3d90fd5b80fd5b50346101a8576101003660031901126101a8576101c6610dcf565b906024356044356001600160401b0381116102ff5761010060031982360301126102ff576101f2610e25565b9260a43560ff811681036102fb576001546001600160a01b039081169190871690813b156102f75791839291868461024f96946040519788958694859363d505accf60e01b855260e4359260c43592608435913360048901611296565b03925af191826102e2575b50506102c65783610269611582565b6308c379a014610295575b6040516308f14ec160e11b81529081906102919060048301611634565b0390fd5b61029d61159d565b90816102aa579050610274565b6102916040519283926308f14ec160e11b845260048401611612565b9261017292916102dc602095369060040161144a565b91611d08565b6102ed828092610ef3565b6101a8578061025a565b8380fd5b5080fd5b8280fd5b50346101a85760e03660031901126101a8578061031e610dcf565b602435610329610de5565b6084359260ff84168403610479576002546001600160a01b03918216949116843b156104755761037e918691604051938492839263d505accf60e01b845260c4359160a435918a606435913360048901611296565b038183885af190811561046a57859161044c575b5050906020926103ed9260018060a01b036002541692604051926103b584610ebc565b8352858301526001600160a01b031660408083019190915251630fba221960e41b8152958693849283919033908190600485016118a1565b03925af19081156104405790610409575b602090604051908152f35b506020813d602011610438575b8161042360209383610ef3565b8101031261043457602090516103fe565b5f80fd5b3d9150610416565b604051903d90823e3d90fd5b8161045991949394610ef3565b6104655790835f610392565b505050fd5b6040513d87823e3d90fd5b8580fd5b8480fd5b50346101a8576101403660031901126101a857610498610dcf565b602435916104a4610de5565b926104ad610e0f565b9160e43560ff811681036102fb576001546001600160a01b038681169116813b156102f7579183929183926105089560405180978195829463d505accf60e01b8452610124359161010435918d60c435913360048901611296565b03925af19182610536575b50506105225782610269611582565b610172926020946084359260643592611c16565b610541828092610ef3565b6101a85780610513565b50346101a85760203660031901126101a85760249060043561056b6111b2565b5081546040516328c44a9960e21b81526004810183905293839185919082906001600160a01b03165afa809383946105ed575b506105b6576301fb6dd160e01b825260045260249150fd5b6101726020916105e7836105d761012088015182808251830101910161172e565b0151848082518301019101611173565b906119c9565b6106029194503d8085833e61018e8183610ef3565b925f61059e565b50346101a85761061836610f2f565b60015497999497959695929493926001600160a01b038a81169391169190833b1561047557859493926106668d9387936040519a8b988997889663d505accf60e01b88523360048901611296565b03925af1918261068c575b50506106805783610269611582565b60209461017294611be9565b610697828092610ef3565b6101a85780610671565b50346101a85760803660031901126101a8576106bb610dcf565b604435916001600160401b0383116101a85761010060031984360301126101a857602061017284846106f96106ee610e25565b92369060040161144a565b9060243590611d08565b50346101a85760203660031901126101a85780546040516328c44a9960e21b815260048035908201819052918390829060249082906001600160a01b03165afa9081156107915760206105d761012061017295946105e79488859992610776575b505001518280825183010191016110f3565b61078a92503d8091833e61018e8183610ef3565b5f80610764565b6040513d85823e3d90fd5b50346101a8576107ab36610f2f565b6001549499959896979695949293926001600160a01b038088169391169190833b1561083857869493926107fa8a938793604051998a988997889663d505accf60e01b88523360048901611296565b03925af1801561082d57610818575b60206101728888888888611ada565b610823828092610ef3565b6101a85780610809565b6040513d84823e3d90fd5b8680fd5b50346101a85761084b36610da3565b9160248660018060a09897981b03815416604051928380926328c44a9960e21b82528960048301525afa90811561019d5791610166602061015661012061016d97956101729b9a99978d859e926108af575b505001518280825183010191016111fc565b6108c392503d8091833e61018e8183610ef3565b5f8061089d565b50346101a85760203660031901126101a8576024906004356108ea6111b2565b5081546040516328c44a9960e21b81526004810183905293839185919082906001600160a01b03165afa80938394610956575b50610935576301fb6dd160e01b825260045260249150fd5b6101726020916105e7836105d76101208801518280825183010191016110f3565b61096b9194503d8085833e61018e8183610ef3565b925f61091d565b50346101a85761098136610da3565b85546040516328c44a9960e21b81526004810187905292969492908590829060249082906001600160a01b03165afa90811561046a576109dc6101206109ed936020938991610a6f575b5001518280825183010191016110f3565b015160208082518301019101611173565b8051600254602083015192986001600160a01b03928316949190921691843b15610a6b5791610a3b8896959493928793604051998a988997889663d505accf60e01b88523360048901611296565b03925af1801561082d57610a56575b602061017285856119c9565b610a61828092610ef3565b6101a85780610a4a565b8780fd5b610a8391503d808b833e61018e8183610ef3565b5f6109cb565b50346104345761012036600319011261043457610aa4610dcf565b9060243590610ab1610de5565b6064356001600160401b0381116104345736602382011215610434578060040135610adb81610f14565b91610ae96040519384610ef3565b818352366024838301011161043457815f926024602093018386013783010152608435916001600160401b03831683036104345760c4359560ff87168703610434576001546001600160a01b03918216969116863b1561043457610b73975f91604051998a92839263d505accf60e01b8452610104359160e435918860a435913360048901611296565b0381838a5af1968715610bf5576103ed97610be0575b506020949560018060a01b03600154169360405193610ba785610e8d565b60018060a01b031684528684015260408301526060820152846040518097819582946307e738a360e11b845233913391600486016112fb565b602095505f610bee91610ef3565b5f94610b89565b6040513d5f823e3d90fd5b346104345760c0366003190112610434576020610172610c1e610dcf565b610c26610de5565b610c2e610e0f565b91608435916064359160243590611c16565b34610434576020610172610c5336610e3b565b93929092611be9565b3461043457602036600319011261043457600435610c786111b2565b505f80546040516328c44a9960e21b8152600481018490529190829060249082906001600160a01b03165afa5f9181610ce5575b50610cc457506301fb6dd160e01b5f5260045260245ffd5b6020916105e7836105d76101206101729501518280825183010191016111fc565b610cfa9192503d805f833e61018e8183610ef3565b9083610cac565b34610434576020610172610d1436610e3b565b93929092611ada565b3461043457610d2b36610da3565b5f80546328c44a9960e21b8852600488018790529396929593839060249082906001600160a01b03165afa948515610bf557602096610166886101566101206101729a61016d985f91610d89575001518280825183010191016110f3565b610d9d91503d805f833e61018e8183610ef3565b8d6109cb565b60a090600319011261043457600435906024359060443560ff8116810361043457906064359060843590565b600435906001600160a01b038216820361043457565b604435906001600160a01b038216820361043457565b35906001600160a01b038216820361043457565b60a435906001600160401b038216820361043457565b606435906001600160401b038216820361043457565b60a0906003190112610434576004356001600160a01b03811681036104345790602435906044356001600160a01b03811681036104345790606435906084356001600160401b03811681036104345790565b608081019081106001600160401b03821117610ea857604052565b634e487b7160e01b5f52604160045260245ffd5b606081019081106001600160401b03821117610ea857604052565b61014081019081106001600160401b03821117610ea857604052565b90601f801991011681019081106001600160401b03821117610ea857604052565b6001600160401b038111610ea857601f01601f191660200190565b610120906003190112610434576004356001600160a01b03811681036104345790602435906044356001600160a01b03811681036104345790606435906084356001600160401b0381168103610434579060a4359060c43560ff81168103610434579060e435906101043590565b51906001600160401b038216820361043457565b51906001600160a01b038216820361043457565b5190811515820361043457565b81601f8201121561043457805190610fe982610f14565b92610ff76040519485610ef3565b8284526020838301011161043457815f9260208093018386015e8301015290565b602081830312610434578051906001600160401b038211610434570161014081830312610434576040519161104c83610ed7565b815183526020820151602084015261106660408301610f9d565b604084015261107760608301610f9d565b606084015261108860808301610f9d565b608084015260a082015160a08401526110a360c08301610fb1565b60c08401526110b460e08301610fb1565b60e08401526110c66101008301610fc5565b6101008401526101208201516001600160401b038111610434576110ea9201610fd2565b61012082015290565b602081830312610434578051906001600160401b038211610434570190608082820312610434576040519161112783610e8d565b61113081610fb1565b835260208101516001600160401b03811161043457606092611153918301610fd2565b602084015261116460408201610fb1565b60408401520151606082015290565b90816060910312610434576111aa604080519261118f84610ebc565b61119881610fb1565b84526020810151602085015201610fb1565b604082015290565b604051906111bf82610ed7565b6060610120835f81525f60208201525f60408201525f838201525f60808201525f60a08201525f60c08201525f60e08201525f6101008201520152565b602081830312610434578051906001600160401b03821161043457019060a082820312610434576040519160a083018381106001600160401b03821117610ea85760405261124981610fb1565b835260208101516001600160401b0381116104345760809261126c918301610fd2565b602084015261127d60408201610fb1565b6040840152606081015160608401520151608082015290565b9360c095919897969360ff9360e087019a60018060a01b0316875260018060a01b031660208701526040860152606085015216608083015260a08201520152565b805180835260209291819084018484015e5f828201840152601f01601f1916010190565b926001600160401b036060939695926080865260018060a01b038151166080870152846113386020830151608060a08a01526101008901906112d7565b6040838101516001600160a01b0390811660c08b0152929093015160e08901529890921660208701529181169185019190915216910152565b6001600160401b038111610ea85760051b60200190565b9080601f8301121561043457813561139f81611371565b926113ad6040519485610ef3565b81845260208085019260051b82010192831161043457602001905b8282106113d55750505090565b602080916113e284610dfb565b8152019101906113c8565b9080601f8301121561043457813561140481611371565b926114126040519485610ef3565b81845260208085019260051b82010192831161043457602001905b82821061143a5750505090565b813581526020918201910161142d565b91909161010081840312610434576040519061010082018281106001600160401b03821117610ea857604052819381356001600160401b0381116104345781611494918401611388565b835260208201356001600160401b03811161043457816114b59184016113ed565b602084015260408201356001600160401b03811161043457816114d9918401611388565b604084015260608201356001600160401b03811161043457816114fd9184016113ed565b606084015260808201356001600160401b0381116104345781611521918401611388565b608084015260a08201356001600160401b03811161043457816115459184016113ed565b60a084015260c0820135906001600160401b038211610434578261157260e0949261157d948694016113ed565b60c086015201610dfb565b910152565b5f9060033d1161158e57565b905060045f803e5f5160e01c90565b5f60443d10611601576040513d600319016004823e8051913d60248401116001600160401b0384111761160c57828201928351916001600160401b038311611604573d84016003190185840160200111611604575061160192910160200190610ef3565b90565b949350505050565b92915050565b6001600160a01b039091168152604060208201819052611601929101906112d7565b6001600160a01b039091168152604060208201819052600d908201526c2ab735b737bbb71032b93937b960991b606082015260800190565b9080601f8301121561043457815161168381611371565b926116916040519485610ef3565b81845260208085019260051b82010192831161043457602001905b8282106116b95750505090565b602080916116c684610fb1565b8152019101906116ac565b9080601f830112156104345781516116e881611371565b926116f66040519485610ef3565b81845260208085019260051b82010192831161043457602001905b82821061171e5750505090565b8151815260209182019101611711565b602081830312610434578051906001600160401b038211610434570161012081830312610434576040519161012083018381106001600160401b03821117610ea85760405261177c82610fb1565b835260208201516001600160401b038111610434578161179d918401610fd2565b602084015260408201516001600160401b03811161043457816117c191840161166c565b604084015260608201516001600160401b03811161043457816117e59184016116d1565b606084015260808201516001600160401b038111610434578161180991840161166c565b608084015260a08201516001600160401b038111610434578161182d9184016116d1565b60a084015260c08201516001600160401b038111610434578161185191840161166c565b60c084015260e08201516001600160401b03811161043457816118759184016116d1565b60e08401526101008201516001600160401b0381116104345761189892016116d1565b61010082015290565b81516001600160a01b03908116825260208084015190830152604092830151811692820192909252918116606083015291909116608082015260a00190565b805160025460208301519297969495946001600160a01b039283169392909116833b156104345761192d5f96928793604051998a988997889663d505accf60e01b88523360048901611296565b03925af190816119b9575b506119b55750611946611582565b6308c379a014611978575b516040516308f14ec160e11b8152908190610291906001600160a01b031660048301611634565b61198061159d565b908161198d579050611951565b516040516308f14ec160e11b815291829161029191906001600160a01b031660048401611612565b9050565b5f6119c391610ef3565b5f611938565b60206119fc5f9360018060a01b036002541690604051958680948193630fba221960e41b835233903390600485016118a1565b03925af1918215610bf5575f92611aa5575b506001546040516330088bc960e01b8152600481019290925260248201839052602090829060449082905f906001600160a01b03165af1908115610bf5575f91611a6b575b5015611a5c5790565b636c7b6f5560e11b5f5260045ffd5b90506020813d602011611a9d575b81611a8660209383610ef3565b8101031261043457611a9790610fc5565b5f611a53565b3d9150611a79565b9091506020813d602011611ad2575b81611ac160209383610ef3565b810103126104345751906020611a0e565b3d9150611ab4565b600154600254604051611ba59760209790966001600160a01b0394851696949093169492611b0783610ebc565b60018060a01b0316825287820152336040820152611b50604051918883019060409060018060a01b038151168352602081015160208401528160018060a01b0391015116910152565b60608152611b5f608082610ef3565b60405193611b6c85610e8d565b84528684015260018060a01b0316604083015260608201525f6040518096819582946307e738a360e11b845233913391600486016112fb565b03925af1908115610bf5575f91611bba575090565b90506020813d602011611be1575b81611bd560209383610ef3565b81010312610434575190565b3d9150611bc8565b600154600454604051611ba59760209790966001600160a01b0394851696949093169492611b0783610ebc565b600154600654604051611ba59860209890976001600160a01b0394851697939094169594939192606090611c4985610e8d565b60018060a01b0316938481528a8101938452604081019283520191338352604051938a85015251604084015251606083015260018060a01b03905116608082015260808152611b5f60a082610ef3565b90602080835192838152019201905f5b818110611cb65750505090565b82516001600160a01b0316845260209384019390920191600101611ca9565b90602080835192838152019201905f5b818110611cf25750505090565b8251845260209384019390920191600101611ce5565b602092611ba5949260018060a01b03600154169260018060a01b036008541692611b5f60405180928980830152611de4611dcd611db7611da1611d8b611d75611d5f875161010060408b01526101408a0190611c99565b6020880151898203603f190160608b0152611cd5565b6040870151888203603f190160808a0152611c99565b6060860151878203603f190160a0890152611cd5565b6080850151868203603f190160c0880152611c99565b60a0840151858203603f190160e0870152611cd5565b60c0830151848203603f1901610100860152611cd5565b60e091909101516001600160a01b031661012083015203601f198101835282610ef356fea26469706673582212204da535156f01b9a81cab9a4f85a1ecc1e2e6ebd54c22e0fe330b06c14d93e87464736f6c634300081b0033","linkReferences":{}},"methodIdentifiers":{"buyBundleWithErc20(address,uint256,(address[],uint256[],address[],uint256[],address[],uint256[],uint256[],address),uint64)":"a96addea","buyErc1155WithErc20(address,uint256,address,uint256,uint256,uint64)":"46b3aca2","buyErc20ForErc20(address,uint256,address,uint256,uint64)":"1b24bf52","buyErc721WithErc20(address,uint256,address,uint256,uint64)":"3d94053d","payErc20ForBundle(bytes32)":"b56edf54","payErc20ForErc1155(bytes32)":"2bf2ee39","payErc20ForErc20(bytes32)":"a8270530","payErc20ForErc721(bytes32)":"759503f2","permitAndBuyBundleWithErc20(address,uint256,(address[],uint256[],address[],uint256[],address[],uint256[],uint256[],address),uint64,uint256,uint8,bytes32,bytes32)":"e1982e13","permitAndBuyErc1155WithErc20(address,uint256,address,uint256,uint256,uint64,uint256,uint8,bytes32,bytes32)":"c1778389","permitAndBuyErc20ForErc20(address,uint256,address,uint256,uint64,uint256,uint8,bytes32,bytes32)":"a7a6884d","permitAndBuyErc721WithErc20(address,uint256,address,uint256,uint64,uint256,uint8,bytes32,bytes32)":"ab2fc265","permitAndBuyWithErc20(address,uint256,address,bytes,uint64,uint256,uint8,bytes32,bytes32)":"67cebb70","permitAndPayErc20ForBundle(bytes32,uint256,uint8,bytes32,bytes32)":"e3139e86","permitAndPayErc20ForErc1155(bytes32,uint256,uint8,bytes32,bytes32)":"a6c002e9","permitAndPayErc20ForErc20(bytes32,uint256,uint8,bytes32,bytes32)":"72448d4d","permitAndPayErc20ForErc721(bytes32,uint256,uint8,bytes32,bytes32)":"1454e3d2","permitAndPayWithErc20(address,uint256,address,uint256,uint8,bytes32,bytes32)":"c2661373"},"id":99}