{"abi":[{"type":"constructor","inputs":[{"name":"_eas","type":"address","internalType":"contract IEAS"},{"name":"_schemaRegistry","type":"address","internalType":"contract ISchemaRegistry"}],"stateMutability":"nonpayable"},{"type":"receive","stateMutability":"payable"},{"type":"function","name":"ATTESTATION_SCHEMA","inputs":[],"outputs":[{"name":"","type":"bytes32","internalType":"bytes32"}],"stateMutability":"view"},{"type":"function","name":"attest","inputs":[{"name":"attestation","type":"tuple","internalType":"struct Attestation","components":[{"name":"uid","type":"bytes32","internalType":"bytes32"},{"name":"schema","type":"bytes32","internalType":"bytes32"},{"name":"time","type":"uint64","internalType":"uint64"},{"name":"expirationTime","type":"uint64","internalType":"uint64"},{"name":"revocationTime","type":"uint64","internalType":"uint64"},{"name":"refUID","type":"bytes32","internalType":"bytes32"},{"name":"recipient","type":"address","internalType":"address"},{"name":"attester","type":"address","internalType":"address"},{"name":"revocable","type":"bool","internalType":"bool"},{"name":"data","type":"bytes","internalType":"bytes"}]}],"outputs":[{"name":"","type":"bool","internalType":"bool"}],"stateMutability":"payable"},{"type":"function","name":"checkObligation","inputs":[{"name":"obligation","type":"tuple","internalType":"struct Attestation","components":[{"name":"uid","type":"bytes32","internalType":"bytes32"},{"name":"schema","type":"bytes32","internalType":"bytes32"},{"name":"time","type":"uint64","internalType":"uint64"},{"name":"expirationTime","type":"uint64","internalType":"uint64"},{"name":"revocationTime","type":"uint64","internalType":"uint64"},{"name":"refUID","type":"bytes32","internalType":"bytes32"},{"name":"recipient","type":"address","internalType":"address"},{"name":"attester","type":"address","internalType":"address"},{"name":"revocable","type":"bool","internalType":"bool"},{"name":"data","type":"bytes","internalType":"bytes"}]},{"name":"demand","type":"bytes","internalType":"bytes"},{"name":"","type":"bytes32","internalType":"bytes32"}],"outputs":[{"name":"","type":"bool","internalType":"bool"}],"stateMutability":"view"},{"type":"function","name":"collectEscrow","inputs":[{"name":"_payment","type":"bytes32","internalType":"bytes32"},{"name":"_fulfillment","type":"bytes32","internalType":"bytes32"}],"outputs":[{"name":"","type":"bool","internalType":"bool"}],"stateMutability":"nonpayable"},{"type":"function","name":"decodeObligationData","inputs":[{"name":"data","type":"bytes","internalType":"bytes"}],"outputs":[{"name":"","type":"tuple","internalType":"struct ERC20EscrowObligation.ObligationData","components":[{"name":"arbiter","type":"address","internalType":"address"},{"name":"demand","type":"bytes","internalType":"bytes"},{"name":"token","type":"address","internalType":"address"},{"name":"amount","type":"uint256","internalType":"uint256"}]}],"stateMutability":"pure"},{"type":"function","name":"doObligation","inputs":[{"name":"data","type":"tuple","internalType":"struct ERC20EscrowObligation.ObligationData","components":[{"name":"arbiter","type":"address","internalType":"address"},{"name":"demand","type":"bytes","internalType":"bytes"},{"name":"token","type":"address","internalType":"address"},{"name":"amount","type":"uint256","internalType":"uint256"}]},{"name":"expirationTime","type":"uint64","internalType":"uint64"}],"outputs":[{"name":"uid_","type":"bytes32","internalType":"bytes32"}],"stateMutability":"nonpayable"},{"type":"function","name":"doObligationFor","inputs":[{"name":"data","type":"tuple","internalType":"struct ERC20EscrowObligation.ObligationData","components":[{"name":"arbiter","type":"address","internalType":"address"},{"name":"demand","type":"bytes","internalType":"bytes"},{"name":"token","type":"address","internalType":"address"},{"name":"amount","type":"uint256","internalType":"uint256"}]},{"name":"expirationTime","type":"uint64","internalType":"uint64"},{"name":"payer","type":"address","internalType":"address"},{"name":"recipient","type":"address","internalType":"address"}],"outputs":[{"name":"uid_","type":"bytes32","internalType":"bytes32"}],"stateMutability":"nonpayable"},{"type":"function","name":"getObligation","inputs":[{"name":"uid","type":"bytes32","internalType":"bytes32"}],"outputs":[{"name":"","type":"tuple","internalType":"struct Attestation","components":[{"name":"uid","type":"bytes32","internalType":"bytes32"},{"name":"schema","type":"bytes32","internalType":"bytes32"},{"name":"time","type":"uint64","internalType":"uint64"},{"name":"expirationTime","type":"uint64","internalType":"uint64"},{"name":"revocationTime","type":"uint64","internalType":"uint64"},{"name":"refUID","type":"bytes32","internalType":"bytes32"},{"name":"recipient","type":"address","internalType":"address"},{"name":"attester","type":"address","internalType":"address"},{"name":"revocable","type":"bool","internalType":"bool"},{"name":"data","type":"bytes","internalType":"bytes"}]}],"stateMutability":"view"},{"type":"function","name":"getObligationData","inputs":[{"name":"uid","type":"bytes32","internalType":"bytes32"}],"outputs":[{"name":"","type":"tuple","internalType":"struct ERC20EscrowObligation.ObligationData","components":[{"name":"arbiter","type":"address","internalType":"address"},{"name":"demand","type":"bytes","internalType":"bytes"},{"name":"token","type":"address","internalType":"address"},{"name":"amount","type":"uint256","internalType":"uint256"}]}],"stateMutability":"view"},{"type":"function","name":"getSchema","inputs":[],"outputs":[{"name":"","type":"tuple","internalType":"struct SchemaRecord","components":[{"name":"uid","type":"bytes32","internalType":"bytes32"},{"name":"resolver","type":"address","internalType":"contract ISchemaResolver"},{"name":"revocable","type":"bool","internalType":"bool"},{"name":"schema","type":"string","internalType":"string"}]}],"stateMutability":"view"},{"type":"function","name":"isPayable","inputs":[],"outputs":[{"name":"","type":"bool","internalType":"bool"}],"stateMutability":"pure"},{"type":"function","name":"multiAttest","inputs":[{"name":"attestations","type":"tuple[]","internalType":"struct Attestation[]","components":[{"name":"uid","type":"bytes32","internalType":"bytes32"},{"name":"schema","type":"bytes32","internalType":"bytes32"},{"name":"time","type":"uint64","internalType":"uint64"},{"name":"expirationTime","type":"uint64","internalType":"uint64"},{"name":"revocationTime","type":"uint64","internalType":"uint64"},{"name":"refUID","type":"bytes32","internalType":"bytes32"},{"name":"recipient","type":"address","internalType":"address"},{"name":"attester","type":"address","internalType":"address"},{"name":"revocable","type":"bool","internalType":"bool"},{"name":"data","type":"bytes","internalType":"bytes"}]},{"name":"values","type":"uint256[]","internalType":"uint256[]"}],"outputs":[{"name":"","type":"bool","internalType":"bool"}],"stateMutability":"payable"},{"type":"function","name":"multiRevoke","inputs":[{"name":"attestations","type":"tuple[]","internalType":"struct Attestation[]","components":[{"name":"uid","type":"bytes32","internalType":"bytes32"},{"name":"schema","type":"bytes32","internalType":"bytes32"},{"name":"time","type":"uint64","internalType":"uint64"},{"name":"expirationTime","type":"uint64","internalType":"uint64"},{"name":"revocationTime","type":"uint64","internalType":"uint64"},{"name":"refUID","type":"bytes32","internalType":"bytes32"},{"name":"recipient","type":"address","internalType":"address"},{"name":"attester","type":"address","internalType":"address"},{"name":"revocable","type":"bool","internalType":"bool"},{"name":"data","type":"bytes","internalType":"bytes"}]},{"name":"values","type":"uint256[]","internalType":"uint256[]"}],"outputs":[{"name":"","type":"bool","internalType":"bool"}],"stateMutability":"payable"},{"type":"function","name":"reclaimExpired","inputs":[{"name":"uid","type":"bytes32","internalType":"bytes32"}],"outputs":[{"name":"","type":"bool","internalType":"bool"}],"stateMutability":"nonpayable"},{"type":"function","name":"revoke","inputs":[{"name":"attestation","type":"tuple","internalType":"struct Attestation","components":[{"name":"uid","type":"bytes32","internalType":"bytes32"},{"name":"schema","type":"bytes32","internalType":"bytes32"},{"name":"time","type":"uint64","internalType":"uint64"},{"name":"expirationTime","type":"uint64","internalType":"uint64"},{"name":"revocationTime","type":"uint64","internalType":"uint64"},{"name":"refUID","type":"bytes32","internalType":"bytes32"},{"name":"recipient","type":"address","internalType":"address"},{"name":"attester","type":"address","internalType":"address"},{"name":"revocable","type":"bool","internalType":"bool"},{"name":"data","type":"bytes","internalType":"bytes"}]}],"outputs":[{"name":"","type":"bool","internalType":"bool"}],"stateMutability":"payable"},{"type":"function","name":"version","inputs":[],"outputs":[{"name":"","type":"string","internalType":"string"}],"stateMutability":"view"},{"type":"event","name":"EscrowClaimed","inputs":[{"name":"payment","type":"bytes32","indexed":true,"internalType":"bytes32"},{"name":"fulfillment","type":"bytes32","indexed":true,"internalType":"bytes32"},{"name":"fulfiller","type":"address","indexed":true,"internalType":"address"}],"anonymous":false},{"type":"event","name":"EscrowMade","inputs":[{"name":"payment","type":"bytes32","indexed":true,"internalType":"bytes32"},{"name":"buyer","type":"address","indexed":true,"internalType":"address"}],"anonymous":false},{"type":"error","name":"AccessDenied","inputs":[]},{"type":"error","name":"AttestationCreateFailed","inputs":[]},{"type":"error","name":"AttestationNotFound","inputs":[{"name":"attestationId","type":"bytes32","internalType":"bytes32"}]},{"type":"error","name":"AttestationRevoked","inputs":[]},{"type":"error","name":"DeadlineExpired","inputs":[]},{"type":"error","name":"ERC20TransferFailed","inputs":[{"name":"token","type":"address","internalType":"address"},{"name":"from","type":"address","internalType":"address"},{"name":"to","type":"address","internalType":"address"},{"name":"amount","type":"uint256","internalType":"uint256"}]},{"type":"error","name":"InsufficientValue","inputs":[]},{"type":"error","name":"InvalidEAS","inputs":[]},{"type":"error","name":"InvalidEscrow","inputs":[]},{"type":"error","name":"InvalidEscrowAttestation","inputs":[]},{"type":"error","name":"InvalidFulfillment","inputs":[]},{"type":"error","name":"InvalidLength","inputs":[]},{"type":"error","name":"InvalidSchema","inputs":[]},{"type":"error","name":"NotFromObligation","inputs":[]},{"type":"error","name":"NotPayable","inputs":[]},{"type":"error","name":"RevocationFailed","inputs":[{"name":"attestationId","type":"bytes32","internalType":"bytes32"}]},{"type":"error","name":"UnauthorizedCall","inputs":[]}],"bytecode":{"object":"0x610160806040523461020657604081611db780380380916100208285610240565b8339810103126102065780516001600160a01b038116918282036102065760200151916001600160a01b03831680840361020657604051606081016001600160401b0381118282101761022c57604052603c815260208101927f6164647265737320617262697465722c2062797465732064656d616e642c206184527f64647265737320746f6b656e2c2075696e7432353620616d6f756e740000000060408301526001608052600460a0525f60c0521561021d576084948460209560e05261012052610100525f604051958680958194630c1af44f60e31b8352606060048401525180918160648501528484015e818101830184905230602483015260016044830152601f01601f191681010301925af1908115610212575f916101dc575b5061014052604051611b539081610264823960805181610979015260a051816109a5015260c051816109d0015260e05181611ade015261010051816107e601526101205181818161039001528181610507015281816105e701528181610b11015261161d0152610140518181816103d001528181610547015281816107b40152818161093501528181610c5c0152818161157001526118250152f35b90506020813d60201161020a575b816101f760209383610240565b8101031261020657515f610140565b5f80fd5b3d91506101ea565b6040513d5f823e3d90fd5b6341bc07ff60e11b5f5260045ffd5b634e487b7160e01b5f52604160045260245ffd5b601f909101601f19168101906001600160401b0382119082101761022c5760405256fe60806040526004361015610027575b3615610018575f80fd5b631574f9f360e01b5f5260045ffd5b5f5f3560e01c80632c713cd914610acf5780633ce55d0214610a5d57806354fd4d50146109585780635bf2f20d1461091d5780636b122fe0146107735780637d2c2931146105ac5780637f9e0fd2146104cf57806388e5b2d9146104b057806391db0b7e146104b0578063a4f0d5171461045b578063c6ec507014610358578063c93844be14610259578063ce46e0461461023d578063e49617e11461020b578063e60c35051461020b5763e6c9714d146100e2575061000e565b3461020457606036600319011261020457600435906001600160401b0382116102045761014060031983360301126102045760405191610121836110f4565b806004013583526024810135602084015261013e60448201610ebe565b604084015261014f60648201610ebe565b606084015261016060848201610ebe565b608084015260a481013560a084015261017b60c48201610ed2565b60c084015261018c60e48201610ed2565b60e08401526101048101358015158103610207576101008401526101248101356001600160401b038111610207576101c99136910160040161114c565b610120830152602435906001600160401b0382116102045760206101fa846101f4366004870161114c565b90611823565b6040519015158152f35b80fd5b8280fd5b602061022960e061021b36611076565b610223611adc565b016113e7565b6040516001600160a01b0390911630148152f35b5034610204578060031936011261020457602090604051908152f35b503461020457602036600319011261020457600435906001600160401b03821161020457366023830112156102045781600401356001600160401b038111610350578201916024830190368211610207576102b26117ff565b50602081850312610207576024810135906001600160401b0382116103545701926080908490031261035057604051916102eb836110d9565b6102f760248501610ed2565b83526044840135906001600160401b038211610204575092610323608492602461034c9684010161114c565b602084015261033460648201610ed2565b6040840152013560608201526040519182918261102c565b0390f35b5080fd5b8380fd5b5034610204576020366003190112610204576103726117ff565b506040516328c44a9960e21b815260048035908201529080826024817f00000000000000000000000000000000000000000000000000000000000000006001600160a01b03165afa91821561044e57819261042a575b5060208201517f00000000000000000000000000000000000000000000000000000000000000000361041b5761034c61040f6101208401516020808251830101910161133c565b6040519182918261102c565b63629cd40b60e11b8152600490fd5b6104479192503d8084833e61043f8183611110565b810190611261565b905f6103c8565b50604051903d90823e3d90fd5b503461020457604036600319011261020457600435906001600160401b03821161020457608060031983360301126102045760206104a88361049b610ea8565b90339133916004016113fb565b604051908152f35b60206101fa6104be36610fdc565b926104ca929192611adc565b61176f565b5034610204576020366003190112610204576104e9611192565b506040516328c44a9960e21b815260048035908201529080826024817f00000000000000000000000000000000000000000000000000000000000000006001600160a01b03165afa91821561044e578192610590575b5060208201517f000000000000000000000000000000000000000000000000000000000000000003610581576040516020808252819061034c90820185610f0a565b6360000df160e11b8152600490fd5b6105a59192503d8084833e61043f8183611110565b905f61053f565b503461020457602036600319011261020457600435906105ca611192565b506040516328c44a9960e21b8152600481018390529181836024817f00000000000000000000000000000000000000000000000000000000000000006001600160a01b03165afa80938394610757575b50610632576301fb6dd160e01b825260045260249150fd5b506001600160401b0360608301511642106107485761065f6101208301516020808251830101910161133c565b6040818101805160c095909501805160609094018051935163a9059cbb60e01b81526001600160a01b03958616600482015260248101949094529590949193919291602091839160449183918791165af182918161070c575b5061070557505b156106cf57602060405160018152f35b5190519151604051634a73404560e11b815292839261070192916001600160a01b0390811691309116600486016113bc565b0390fd5b90506106bf565b9091506020813d602011610740575b8161072860209383611110565b810103126102075761073990611204565b905f6106b8565b3d915061071b565b637bf6a16f60e01b8152600490fd5b61076c9194503d8085833e61043f8183611110565b925f61061a565b5034610204578060031936011261020457606080604051610793816110d9565b8381528360208201528360408201520152604051906351753e3760e11b82527f00000000000000000000000000000000000000000000000000000000000000006004830152808260248160018060a01b037f0000000000000000000000000000000000000000000000000000000000000000165afa90811561091157809161085c575b60608261034c604051928392602084528051602085015260018060a01b0360208201511660408501526040810151151582850152015160808084015260a0830190610ee6565b90503d8082843e61086d8184611110565b820191602081840312610350578051906001600160401b03821161020757019060808284031261020457604051916108a4836110d9565b8051835260208101516001600160a01b03811681036102075760208401526108ce60408201611204565b60408401526060810151906001600160401b03821161020757019083601f83011215610204575060609281602061090793519101611211565b828201525f610816565b604051903d90823e3d90fd5b503461020457806003193601126102045760206040517f00000000000000000000000000000000000000000000000000000000000000008152f35b50346102045780600319360112610204576020610a49600161034c9361099d7f000000000000000000000000000000000000000000000000000000000000000061196f565b9082856109c97f000000000000000000000000000000000000000000000000000000000000000061196f565b81806109f47f000000000000000000000000000000000000000000000000000000000000000061196f565b926040519a888c995191829101848b015e880190601760f91b83830152805192839101602183015e010190601760f91b84830152805192839101600283015e010190838201520301601f198101835282611110565b604051918291602083526020830190610ee6565b5034610204576080366003190112610204576004356001600160401b038111610350576080600319823603011261035057610a96610ea8565b604435916001600160a01b038316830361035457606435936001600160a01b03851685036102045760206104a8868686866004016113fb565b5034610e09576040366003190112610e09576004359060243590610af1611192565b50610afa611192565b506040516328c44a9960e21b8152600481018490527f00000000000000000000000000000000000000000000000000000000000000006001600160a01b031691905f81602481865afa5f9181610e8c575b50610b6357846301fb6dd160e01b5f5260045260245ffd5b84906040516328c44a9960e21b81528560048201525f81602481885afa5f9181610e70575b50610ba057856301fb6dd160e01b5f5260045260245ffd5b90859194610bad82611914565b15610e6157610c1a6020610bce61012085015182808251830101910161133c565b9360018060a01b03855116610c088a8488015193516040519687958694859463e6c9714d60e01b8652606060048701526064860190610f0a565b84810360031901602486015290610ee6565b90604483015203915afa908115610e56575f91610e1c575b5015610e0d57604051610c44816110aa565b8481525f602082015260405190610c5a826110aa565b7f0000000000000000000000000000000000000000000000000000000000000000825260208201908152823b15610e095760645f92836020956040519687958694634692626760e01b86525160048601525180516024860152015160448401525af19081610df4575b50610cdc5763614cf93960e01b84526004839052602484fd5b6040818101805160c097909701805160609094018051935163a9059cbb60e01b81526001600160a01b0395861660048201526024810194909452979093919291602091839160449183918b91165af1869181610db4575b50610daf5750845b15610d7d57506020945060018060a01b03905116917fd903ca32e81477af89f5b8a6ce888d185cc715390e49474a77b4c6846254cccd6040519480a460018152f35b5190518551604051634a73404560e11b815292839261070192916001600160a01b0391821691309116600486016113bc565b610d3b565b9091506020813d602011610dec575b81610dd060209383611110565b81010312610de857610de190611204565b9088610d33565b8680fd5b3d9150610dc3565b610e019195505f90611110565b5f9386610cc3565b5f80fd5b630ebe58ef60e11b5f5260045ffd5b90506020813d602011610e4e575b81610e3760209383611110565b81010312610e0957610e4890611204565b87610c32565b3d9150610e2a565b6040513d5f823e3d90fd5b63629cd40b60e11b5f5260045ffd5b610e859192503d805f833e61043f8183611110565b9087610b88565b610ea19192503d805f833e61043f8183611110565b905f610b4b565b602435906001600160401b0382168203610e0957565b35906001600160401b0382168203610e0957565b35906001600160a01b0382168203610e0957565b805180835260209291819084018484015e5f828201840152601f01601f1916010190565b90610140610120610fa99380518452602081015160208501526001600160401b0360408201511660408501526001600160401b0360608201511660608501526001600160401b03608082015116608085015260a081015160a085015260018060a01b0360c08201511660c085015260018060a01b0360e08201511660e08501526101008101511515610100850152015191816101208201520190610ee6565b90565b9181601f84011215610e09578235916001600160401b038311610e09576020808501948460051b010111610e0957565b6040600319820112610e09576004356001600160401b038111610e09578161100691600401610fac565b92909291602435906001600160401b038211610e095761102891600401610fac565b9091565b6020815260018060a01b0382511660208201526080606061105b602085015183604086015260a0850190610ee6565b60408501516001600160a01b03168483015293015191015290565b6020600319820112610e0957600435906001600160401b038211610e0957610140908290036003190112610e095760040190565b604081019081106001600160401b038211176110c557604052565b634e487b7160e01b5f52604160045260245ffd5b608081019081106001600160401b038211176110c557604052565b61014081019081106001600160401b038211176110c557604052565b90601f801991011681019081106001600160401b038211176110c557604052565b6001600160401b0381116110c557601f01601f191660200190565b81601f82011215610e095780359061116382611131565b926111716040519485611110565b82845260208383010111610e0957815f926020809301838601378301015290565b6040519061119f826110f4565b6060610120835f81525f60208201525f60408201525f838201525f60808201525f60a08201525f60c08201525f60e08201525f6101008201520152565b51906001600160401b0382168203610e0957565b51906001600160a01b0382168203610e0957565b51908115158203610e0957565b92919261121d82611131565b9161122b6040519384611110565b829481845281830111610e09578281602093845f96015e010152565b9080601f83011215610e09578151610fa992602001611211565b602081830312610e09578051906001600160401b038211610e09570161014081830312610e095760405191611295836110f4565b81518352602082015160208401526112af604083016111dc565b60408401526112c0606083016111dc565b60608401526112d1608083016111dc565b608084015260a082015160a08401526112ec60c083016111f0565b60c08401526112fd60e083016111f0565b60e084015261130f6101008301611204565b6101008401526101208201516001600160401b038111610e09576113339201611247565b61012082015290565b602081830312610e09578051906001600160401b038211610e09570190608082820312610e095760405191611370836110d9565b611379816111f0565b835260208101516001600160401b038111610e095760609261139c918301611247565b60208401526113ad604082016111f0565b60408401520151606082015290565b6001600160a01b03918216815291811660208301529091166040820152606081019190915260800190565b356001600160a01b0381168103610e095790565b9293929091604082016001600160a01b03611415826113e7565b16915f60206060860135946064604051809481936323b872dd60e01b835260018060a01b03881660048401523060248401528960448401525af15f91816116ec575b506116e757505f5b156116be5750604051602080820152926001600160a01b0361148082610ed2565b1660408501526020810135601e1982360301811215610e095701602081359101906001600160401b038111610e09578036038213610e095761150f9360e093828794608060608701528160c0870152868601375f8484018601526001600160a01b03906114ec90610ed2565b16608084015260a0830152601f801991011681010301601f198101835282611110565b6040519360c08501908582106001600160401b038311176110c5576001600160401b039160405260018060a01b031692838652166020850152600160408501525f606085015260808401525f60a0840152602060405161156e816110aa565b7f000000000000000000000000000000000000000000000000000000000000000081528181019485526040518095819263f17325e760e01b8352846004840152516024830152516040604483015260018060a01b0381511660648301526001600160401b03848201511660848301526040810151151560a4830152606081015160c483015260a061160f608083015160c060e4860152610124850190610ee6565b91015161010483015203815f7f00000000000000000000000000000000000000000000000000000000000000006001600160a01b03165af15f938161168a575b5061166357634a10301360e11b5f5260045ffd5b827f8f7f2dbafd79125e808bf16a53d7fa4e17b8b6374ced76d946a45f94b7bf4d065f80a3565b9093506020813d6020116116b6575b816116a660209383611110565b81010312610e095751925f61164f565b3d9150611699565b906116cb610701916113e7565b92604051938493634a73404560e11b85523091600486016113bc565b61145f565b9091506020813d602011611720575b8161170860209383611110565b81010312610e095761171990611204565b905f611457565b3d91506116fb565b91908110156117385760051b0190565b634e487b7160e01b5f52603260045260245ffd5b91908110156117385760051b8101359061013e1981360301821215610e09570190565b9192908181036117f0575f91345b82841061178f57505050505050600190565b61179a848388611728565b358181116117e1576117ad85858861174c565b30906001600160a01b03906117c49060e0016113e7565b16036117d6576001910393019261177d565b505050505050505f90565b63044044a560e21b5f5260045ffd5b63251f56a160e21b5f5260045ffd5b6040519061180c826110d9565b5f6060838281528160208201528260408201520152565b7f00000000000000000000000000000000000000000000000000000000000000006020820151036119055761185781611914565b156118ff576118776101206118879201516020808251830101910161133c565b916020808251830101910161133c565b604082810151908201516001600160a01b0390811691161491826118eb575b826118d2575b826118b657505090565b6020919250810151818151910120910151602081519101201490565b805182516001600160a01b0390811691161492506118ac565b9150606082015160608201511115916118a6565b50505f90565b635f9bd90760e11b5f5260045ffd5b6001600160401b036060820151168015159081611965575b5061195657608001516001600160401b031661194757600190565b637b6227e960e11b5f5260045ffd5b631ab7da6b60e01b5f5260045ffd5b905042115f61192c565b805f9172184f03e93ff9f4daa797ed6e38ed64bf6a1f0160401b821015611ab9575b806d04ee2d6d415b85acef8100000000600a921015611a9e575b662386f26fc10000811015611a8a575b6305f5e100811015611a79575b612710811015611a6a575b6064811015611a5c575b1015611a51575b600a602160018401936119f685611131565b94611a046040519687611110565b808652611a13601f1991611131565b013660208701378401015b5f1901916f181899199a1a9b1b9c1cb0b131b232b360811b8282061a8353048015611a4c57600a9091611a1e565b505090565b6001909101906119e4565b6064600291049301926119dd565b612710600491049301926119d3565b6305f5e100600891049301926119c8565b662386f26fc10000601091049301926119bb565b6d04ee2d6d415b85acef8100000000602091049301926119ab565b506040915072184f03e93ff9f4daa797ed6e38ed64bf6a1f0160401b8104611991565b7f00000000000000000000000000000000000000000000000000000000000000006001600160a01b03163303611b0e57565b634ca8886760e01b5f5260045ffdfea264697066735822122095123cb04a9304a7abf44240458b740f6332075eefed4959b8531d1ef99144ca64736f6c634300081c0033","linkReferences":{}},"methodIdentifiers":{"ATTESTATION_SCHEMA()":"5bf2f20d","attest((bytes32,bytes32,uint64,uint64,uint64,bytes32,address,address,bool,bytes))":"e60c3505","checkObligation((bytes32,bytes32,uint64,uint64,uint64,bytes32,address,address,bool,bytes),bytes,bytes32)":"e6c9714d","collectEscrow(bytes32,bytes32)":"2c713cd9","decodeObligationData(bytes)":"c93844be","doObligation((address,bytes,address,uint256),uint64)":"a4f0d517","doObligationFor((address,bytes,address,uint256),uint64,address,address)":"3ce55d02","getObligation(bytes32)":"7f9e0fd2","getObligationData(bytes32)":"c6ec5070","getSchema()":"6b122fe0","isPayable()":"ce46e046","multiAttest((bytes32,bytes32,uint64,uint64,uint64,bytes32,address,address,bool,bytes)[],uint256[])":"91db0b7e","multiRevoke((bytes32,bytes32,uint64,uint64,uint64,bytes32,address,address,bool,bytes)[],uint256[])":"88e5b2d9","reclaimExpired(bytes32)":"7d2c2931","revoke((bytes32,bytes32,uint64,uint64,uint64,bytes32,address,address,bool,bytes))":"e49617e1","version()":"54fd4d50"},"id":113}