{"abi":[{"type":"constructor","inputs":[{"name":"_eas","type":"address","internalType":"contract IEAS"},{"name":"_schemaRegistry","type":"address","internalType":"contract ISchemaRegistry"}],"stateMutability":"nonpayable"},{"type":"receive","stateMutability":"payable"},{"type":"function","name":"ATTESTATION_SCHEMA","inputs":[],"outputs":[{"name":"","type":"bytes32","internalType":"bytes32"}],"stateMutability":"view"},{"type":"function","name":"attest","inputs":[{"name":"attestation","type":"tuple","internalType":"struct Attestation","components":[{"name":"uid","type":"bytes32","internalType":"bytes32"},{"name":"schema","type":"bytes32","internalType":"bytes32"},{"name":"time","type":"uint64","internalType":"uint64"},{"name":"expirationTime","type":"uint64","internalType":"uint64"},{"name":"revocationTime","type":"uint64","internalType":"uint64"},{"name":"refUID","type":"bytes32","internalType":"bytes32"},{"name":"recipient","type":"address","internalType":"address"},{"name":"attester","type":"address","internalType":"address"},{"name":"revocable","type":"bool","internalType":"bool"},{"name":"data","type":"bytes","internalType":"bytes"}]}],"outputs":[{"name":"","type":"bool","internalType":"bool"}],"stateMutability":"payable"},{"type":"function","name":"checkObligation","inputs":[{"name":"obligation","type":"tuple","internalType":"struct Attestation","components":[{"name":"uid","type":"bytes32","internalType":"bytes32"},{"name":"schema","type":"bytes32","internalType":"bytes32"},{"name":"time","type":"uint64","internalType":"uint64"},{"name":"expirationTime","type":"uint64","internalType":"uint64"},{"name":"revocationTime","type":"uint64","internalType":"uint64"},{"name":"refUID","type":"bytes32","internalType":"bytes32"},{"name":"recipient","type":"address","internalType":"address"},{"name":"attester","type":"address","internalType":"address"},{"name":"revocable","type":"bool","internalType":"bool"},{"name":"data","type":"bytes","internalType":"bytes"}]},{"name":"demand","type":"bytes","internalType":"bytes"},{"name":"","type":"bytes32","internalType":"bytes32"}],"outputs":[{"name":"","type":"bool","internalType":"bool"}],"stateMutability":"view"},{"type":"function","name":"collectEscrow","inputs":[{"name":"_payment","type":"bytes32","internalType":"bytes32"},{"name":"_fulfillment","type":"bytes32","internalType":"bytes32"}],"outputs":[{"name":"","type":"bool","internalType":"bool"}],"stateMutability":"nonpayable"},{"type":"function","name":"decodeObligationData","inputs":[{"name":"data","type":"bytes","internalType":"bytes"}],"outputs":[{"name":"","type":"tuple","internalType":"struct ERC721EscrowObligation.ObligationData","components":[{"name":"arbiter","type":"address","internalType":"address"},{"name":"demand","type":"bytes","internalType":"bytes"},{"name":"token","type":"address","internalType":"address"},{"name":"tokenId","type":"uint256","internalType":"uint256"}]}],"stateMutability":"pure"},{"type":"function","name":"doObligation","inputs":[{"name":"data","type":"tuple","internalType":"struct ERC721EscrowObligation.ObligationData","components":[{"name":"arbiter","type":"address","internalType":"address"},{"name":"demand","type":"bytes","internalType":"bytes"},{"name":"token","type":"address","internalType":"address"},{"name":"tokenId","type":"uint256","internalType":"uint256"}]},{"name":"expirationTime","type":"uint64","internalType":"uint64"}],"outputs":[{"name":"uid_","type":"bytes32","internalType":"bytes32"}],"stateMutability":"nonpayable"},{"type":"function","name":"doObligationFor","inputs":[{"name":"data","type":"tuple","internalType":"struct ERC721EscrowObligation.ObligationData","components":[{"name":"arbiter","type":"address","internalType":"address"},{"name":"demand","type":"bytes","internalType":"bytes"},{"name":"token","type":"address","internalType":"address"},{"name":"tokenId","type":"uint256","internalType":"uint256"}]},{"name":"expirationTime","type":"uint64","internalType":"uint64"},{"name":"payer","type":"address","internalType":"address"},{"name":"recipient","type":"address","internalType":"address"}],"outputs":[{"name":"uid_","type":"bytes32","internalType":"bytes32"}],"stateMutability":"nonpayable"},{"type":"function","name":"getObligation","inputs":[{"name":"uid","type":"bytes32","internalType":"bytes32"}],"outputs":[{"name":"","type":"tuple","internalType":"struct Attestation","components":[{"name":"uid","type":"bytes32","internalType":"bytes32"},{"name":"schema","type":"bytes32","internalType":"bytes32"},{"name":"time","type":"uint64","internalType":"uint64"},{"name":"expirationTime","type":"uint64","internalType":"uint64"},{"name":"revocationTime","type":"uint64","internalType":"uint64"},{"name":"refUID","type":"bytes32","internalType":"bytes32"},{"name":"recipient","type":"address","internalType":"address"},{"name":"attester","type":"address","internalType":"address"},{"name":"revocable","type":"bool","internalType":"bool"},{"name":"data","type":"bytes","internalType":"bytes"}]}],"stateMutability":"view"},{"type":"function","name":"getObligationData","inputs":[{"name":"uid","type":"bytes32","internalType":"bytes32"}],"outputs":[{"name":"","type":"tuple","internalType":"struct ERC721EscrowObligation.ObligationData","components":[{"name":"arbiter","type":"address","internalType":"address"},{"name":"demand","type":"bytes","internalType":"bytes"},{"name":"token","type":"address","internalType":"address"},{"name":"tokenId","type":"uint256","internalType":"uint256"}]}],"stateMutability":"view"},{"type":"function","name":"getSchema","inputs":[],"outputs":[{"name":"","type":"tuple","internalType":"struct SchemaRecord","components":[{"name":"uid","type":"bytes32","internalType":"bytes32"},{"name":"resolver","type":"address","internalType":"contract ISchemaResolver"},{"name":"revocable","type":"bool","internalType":"bool"},{"name":"schema","type":"string","internalType":"string"}]}],"stateMutability":"view"},{"type":"function","name":"isPayable","inputs":[],"outputs":[{"name":"","type":"bool","internalType":"bool"}],"stateMutability":"pure"},{"type":"function","name":"multiAttest","inputs":[{"name":"attestations","type":"tuple[]","internalType":"struct Attestation[]","components":[{"name":"uid","type":"bytes32","internalType":"bytes32"},{"name":"schema","type":"bytes32","internalType":"bytes32"},{"name":"time","type":"uint64","internalType":"uint64"},{"name":"expirationTime","type":"uint64","internalType":"uint64"},{"name":"revocationTime","type":"uint64","internalType":"uint64"},{"name":"refUID","type":"bytes32","internalType":"bytes32"},{"name":"recipient","type":"address","internalType":"address"},{"name":"attester","type":"address","internalType":"address"},{"name":"revocable","type":"bool","internalType":"bool"},{"name":"data","type":"bytes","internalType":"bytes"}]},{"name":"values","type":"uint256[]","internalType":"uint256[]"}],"outputs":[{"name":"","type":"bool","internalType":"bool"}],"stateMutability":"payable"},{"type":"function","name":"multiRevoke","inputs":[{"name":"attestations","type":"tuple[]","internalType":"struct Attestation[]","components":[{"name":"uid","type":"bytes32","internalType":"bytes32"},{"name":"schema","type":"bytes32","internalType":"bytes32"},{"name":"time","type":"uint64","internalType":"uint64"},{"name":"expirationTime","type":"uint64","internalType":"uint64"},{"name":"revocationTime","type":"uint64","internalType":"uint64"},{"name":"refUID","type":"bytes32","internalType":"bytes32"},{"name":"recipient","type":"address","internalType":"address"},{"name":"attester","type":"address","internalType":"address"},{"name":"revocable","type":"bool","internalType":"bool"},{"name":"data","type":"bytes","internalType":"bytes"}]},{"name":"values","type":"uint256[]","internalType":"uint256[]"}],"outputs":[{"name":"","type":"bool","internalType":"bool"}],"stateMutability":"payable"},{"type":"function","name":"reclaimExpired","inputs":[{"name":"uid","type":"bytes32","internalType":"bytes32"}],"outputs":[{"name":"","type":"bool","internalType":"bool"}],"stateMutability":"nonpayable"},{"type":"function","name":"revoke","inputs":[{"name":"attestation","type":"tuple","internalType":"struct Attestation","components":[{"name":"uid","type":"bytes32","internalType":"bytes32"},{"name":"schema","type":"bytes32","internalType":"bytes32"},{"name":"time","type":"uint64","internalType":"uint64"},{"name":"expirationTime","type":"uint64","internalType":"uint64"},{"name":"revocationTime","type":"uint64","internalType":"uint64"},{"name":"refUID","type":"bytes32","internalType":"bytes32"},{"name":"recipient","type":"address","internalType":"address"},{"name":"attester","type":"address","internalType":"address"},{"name":"revocable","type":"bool","internalType":"bool"},{"name":"data","type":"bytes","internalType":"bytes"}]}],"outputs":[{"name":"","type":"bool","internalType":"bool"}],"stateMutability":"payable"},{"type":"function","name":"version","inputs":[],"outputs":[{"name":"","type":"string","internalType":"string"}],"stateMutability":"view"},{"type":"event","name":"EscrowClaimed","inputs":[{"name":"payment","type":"bytes32","indexed":true,"internalType":"bytes32"},{"name":"fulfillment","type":"bytes32","indexed":true,"internalType":"bytes32"},{"name":"fulfiller","type":"address","indexed":true,"internalType":"address"}],"anonymous":false},{"type":"event","name":"EscrowMade","inputs":[{"name":"payment","type":"bytes32","indexed":true,"internalType":"bytes32"},{"name":"buyer","type":"address","indexed":true,"internalType":"address"}],"anonymous":false},{"type":"error","name":"AccessDenied","inputs":[]},{"type":"error","name":"AttestationCreateFailed","inputs":[]},{"type":"error","name":"AttestationNotFound","inputs":[{"name":"attestationId","type":"bytes32","internalType":"bytes32"}]},{"type":"error","name":"AttestationRevoked","inputs":[]},{"type":"error","name":"DeadlineExpired","inputs":[]},{"type":"error","name":"ERC721TransferFailed","inputs":[{"name":"token","type":"address","internalType":"address"},{"name":"from","type":"address","internalType":"address"},{"name":"to","type":"address","internalType":"address"},{"name":"tokenId","type":"uint256","internalType":"uint256"}]},{"type":"error","name":"InsufficientValue","inputs":[]},{"type":"error","name":"InvalidEAS","inputs":[]},{"type":"error","name":"InvalidEscrow","inputs":[]},{"type":"error","name":"InvalidEscrowAttestation","inputs":[]},{"type":"error","name":"InvalidFulfillment","inputs":[]},{"type":"error","name":"InvalidLength","inputs":[]},{"type":"error","name":"InvalidSchema","inputs":[]},{"type":"error","name":"NotFromObligation","inputs":[]},{"type":"error","name":"NotPayable","inputs":[]},{"type":"error","name":"RevocationFailed","inputs":[{"name":"attestationId","type":"bytes32","internalType":"bytes32"}]},{"type":"error","name":"UnauthorizedCall","inputs":[]}],"bytecode":{"object":"0x610160806040523461020657604081611d8580380380916100208285610240565b8339810103126102065780516001600160a01b038116918282036102065760200151916001600160a01b03831680840361020657604051606081016001600160401b0381118282101761022c57604052603d815260208101927f6164647265737320617262697465722c2062797465732064656d616e642c206184527f64647265737320746f6b656e2c2075696e7432353620746f6b656e496400000060408301526001608052600460a0525f60c0521561021d576084948460209560e05261012052610100525f604051958680958194630c1af44f60e31b8352606060048401525180918160648501528484015e818101830184905230602483015260016044830152601f01601f191681010301925af1908115610212575f916101dc575b5061014052604051611b21908161026482396080518161095d015260a05181610989015260c051816109b4015260e05181611aac015261010051816107ca01526101205181818161039001528181610507015281816105e701528181610af501526116250152610140518181816103d001528181610547015281816107980152818161091901528181610c3f0152818161157801526117f40152f35b90506020813d60201161020a575b816101f760209383610240565b8101031261020657515f610140565b5f80fd5b3d91506101ea565b6040513d5f823e3d90fd5b6341bc07ff60e11b5f5260045ffd5b634e487b7160e01b5f52604160045260245ffd5b601f909101601f19168101906001600160401b0382119082101761022c5760405256fe60806040526004361015610027575b3615610018575f80fd5b631574f9f360e01b5f5260045ffd5b5f5f3560e01c80632c713cd914610ab35780633ce55d0214610a4157806354fd4d501461093c5780635bf2f20d146109015780636b122fe0146107575780637d2c2931146105ac5780637f9e0fd2146104cf57806388e5b2d9146104b057806391db0b7e146104b0578063a4f0d5171461045b578063c6ec507014610358578063c93844be14610259578063ce46e0461461023d578063e49617e11461020b578063e60c35051461020b5763e6c9714d146100e2575061000e565b3461020457606036600319011261020457600435906001600160401b0382116102045761014060031983360301126102045760405191610121836110c2565b806004013583526024810135602084015261013e60448201610e8c565b604084015261014f60648201610e8c565b606084015261016060848201610e8c565b608084015260a481013560a084015261017b60c48201610ea0565b60c084015261018c60e48201610ea0565b60e08401526101048101358015158103610207576101008401526101248101356001600160401b038111610207576101c99136910160040161111a565b610120830152602435906001600160401b0382116102045760206101fa846101f4366004870161111a565b906117f2565b6040519015158152f35b80fd5b8280fd5b602061022960e061021b36611044565b610223611aaa565b016113b5565b6040516001600160a01b0390911630148152f35b5034610204578060031936011261020457602090604051908152f35b503461020457602036600319011261020457600435906001600160401b03821161020457366023830112156102045781600401356001600160401b038111610350578201916024830190368211610207576102b26117ce565b50602081850312610207576024810135906001600160401b0382116103545701926080908490031261035057604051916102eb836110a7565b6102f760248501610ea0565b83526044840135906001600160401b038211610204575092610323608492602461034c9684010161111a565b602084015261033460648201610ea0565b60408401520135606082015260405191829182610ffa565b0390f35b5080fd5b8380fd5b5034610204576020366003190112610204576103726117ce565b506040516328c44a9960e21b815260048035908201529080826024817f00000000000000000000000000000000000000000000000000000000000000006001600160a01b03165afa91821561044e57819261042a575b5060208201517f00000000000000000000000000000000000000000000000000000000000000000361041b5761034c61040f6101208401516020808251830101910161130a565b60405191829182610ffa565b63629cd40b60e11b8152600490fd5b6104479192503d8084833e61043f81836110de565b81019061122f565b905f6103c8565b50604051903d90823e3d90fd5b503461020457604036600319011261020457600435906001600160401b03821161020457608060031983360301126102045760206104a88361049b610e76565b90339133916004016113c9565b604051908152f35b60206101fa6104be36610faa565b926104ca929192611aaa565b61173e565b5034610204576020366003190112610204576104e9611160565b506040516328c44a9960e21b815260048035908201529080826024817f00000000000000000000000000000000000000000000000000000000000000006001600160a01b03165afa91821561044e578192610590575b5060208201517f000000000000000000000000000000000000000000000000000000000000000003610581576040516020808252819061034c90820185610ed8565b6360000df160e11b8152600490fd5b6105a59192503d8084833e61043f81836110de565b905f61053f565b503461020457602036600319011261020457600435906105ca611160565b506040516328c44a9960e21b8152600481018390529181836024817f00000000000000000000000000000000000000000000000000000000000000006001600160a01b03165afa8093839461073b575b50610632576301fb6dd160e01b825260045260249150fd5b506001600160401b03606083015116421061072c5761065f6101208301516020808251830101910161130a565b90604082019060c060018060a01b03835116940192606060018060a01b03855116910194855191813b15610354576040516323b872dd60e01b81523060048201526001600160a01b03919091166024820152604481019290925290919081908390606490829084905af19182610717575b505061070c57519051915160405163045b391760e01b815292839261070892916001600160a01b03908116913091166004860161138a565b0390fd5b602060405160018152f35b6107228280926110de565b61020457806106d0565b637bf6a16f60e01b8152600490fd5b6107509194503d8085833e61043f81836110de565b925f61061a565b5034610204578060031936011261020457606080604051610777816110a7565b8381528360208201528360408201520152604051906351753e3760e11b82527f00000000000000000000000000000000000000000000000000000000000000006004830152808260248160018060a01b037f0000000000000000000000000000000000000000000000000000000000000000165afa9081156108f5578091610840575b60608261034c604051928392602084528051602085015260018060a01b0360208201511660408501526040810151151582850152015160808084015260a0830190610eb4565b90503d8082843e61085181846110de565b820191602081840312610350578051906001600160401b0382116102075701906080828403126102045760405191610888836110a7565b8051835260208101516001600160a01b03811681036102075760208401526108b2604082016111d2565b60408401526060810151906001600160401b03821161020757019083601f8301121561020457506060928160206108eb935191016111df565b828201525f6107fa565b604051903d90823e3d90fd5b503461020457806003193601126102045760206040517f00000000000000000000000000000000000000000000000000000000000000008152f35b50346102045780600319360112610204576020610a2d600161034c936109817f000000000000000000000000000000000000000000000000000000000000000061193d565b9082856109ad7f000000000000000000000000000000000000000000000000000000000000000061193d565b81806109d87f000000000000000000000000000000000000000000000000000000000000000061193d565b926040519a888c995191829101848b015e880190601760f91b83830152805192839101602183015e010190601760f91b84830152805192839101600283015e010190838201520301601f1981018352826110de565b604051918291602083526020830190610eb4565b5034610204576080366003190112610204576004356001600160401b038111610350576080600319823603011261035057610a7a610e76565b604435916001600160a01b038316830361035457606435936001600160a01b03851685036102045760206104a8868686866004016113c9565b5034610dd7576040366003190112610dd7576004359060243590610ad5611160565b50610ade611160565b506040516328c44a9960e21b8152600481018490527f00000000000000000000000000000000000000000000000000000000000000006001600160a01b031691905f81602481865afa5f9181610e5a575b50610b4757846301fb6dd160e01b5f5260045260245ffd5b84906040516328c44a9960e21b81528560048201525f81602481885afa5f9181610e3e575b50610b8457856301fb6dd160e01b5f5260045260245ffd5b859094610b90836118e2565b15610e2f57610bfd6020610bb161012086015182808251830101910161130a565b9460018060a01b03865116610beb8a8489015193516040519687958694859463e6c9714d60e01b8652606060048701526064860190610ed8565b84810360031901602486015290610eb4565b90604483015203915afa908115610e24575f91610dea575b5015610ddb57604051610c2781611078565b8481525f602082015260405190610c3d82611078565b7f0000000000000000000000000000000000000000000000000000000000000000825260208201908152823b15610dd75760645f92836020956040519687958694634692626760e01b86525160048601525180516024860152015160448401525af19081610dc2575b50610cbf5763614cf93960e01b84526004839052602484fd5b838593604084019260c060018060a01b03855116960194606060018060a01b03875116910196875191813b15610dbe576040516323b872dd60e01b81523060048201526001600160a01b039190911660248201526044810192909252849081908390606490829084905af19182610da9575b5050610d6c57505090519151925160405163045b391760e01b815293849361070893506001600160a01b03918216913091166004860161138a565b602093508460018060a01b03905116917fd903ca32e81477af89f5b8a6ce888d185cc715390e49474a77b4c6846254cccd6040519480a460018152f35b81610db3916110de565b610354578388610d31565b8580fd5b610dcf9195505f906110de565b5f9386610ca6565b5f80fd5b630ebe58ef60e11b5f5260045ffd5b90506020813d602011610e1c575b81610e05602093836110de565b81010312610dd757610e16906111d2565b87610c15565b3d9150610df8565b6040513d5f823e3d90fd5b63629cd40b60e11b5f5260045ffd5b610e539192503d805f833e61043f81836110de565b9087610b6c565b610e6f9192503d805f833e61043f81836110de565b905f610b2f565b602435906001600160401b0382168203610dd757565b35906001600160401b0382168203610dd757565b35906001600160a01b0382168203610dd757565b805180835260209291819084018484015e5f828201840152601f01601f1916010190565b90610140610120610f779380518452602081015160208501526001600160401b0360408201511660408501526001600160401b0360608201511660608501526001600160401b03608082015116608085015260a081015160a085015260018060a01b0360c08201511660c085015260018060a01b0360e08201511660e08501526101008101511515610100850152015191816101208201520190610eb4565b90565b9181601f84011215610dd7578235916001600160401b038311610dd7576020808501948460051b010111610dd757565b6040600319820112610dd7576004356001600160401b038111610dd75781610fd491600401610f7a565b92909291602435906001600160401b038211610dd757610ff691600401610f7a565b9091565b6020815260018060a01b03825116602082015260806060611029602085015183604086015260a0850190610eb4565b60408501516001600160a01b03168483015293015191015290565b6020600319820112610dd757600435906001600160401b038211610dd757610140908290036003190112610dd75760040190565b604081019081106001600160401b0382111761109357604052565b634e487b7160e01b5f52604160045260245ffd5b608081019081106001600160401b0382111761109357604052565b61014081019081106001600160401b0382111761109357604052565b90601f801991011681019081106001600160401b0382111761109357604052565b6001600160401b03811161109357601f01601f191660200190565b81601f82011215610dd757803590611131826110ff565b9261113f60405194856110de565b82845260208383010111610dd757815f926020809301838601378301015290565b6040519061116d826110c2565b6060610120835f81525f60208201525f60408201525f838201525f60808201525f60a08201525f60c08201525f60e08201525f6101008201520152565b51906001600160401b0382168203610dd757565b51906001600160a01b0382168203610dd757565b51908115158203610dd757565b9291926111eb826110ff565b916111f960405193846110de565b829481845281830111610dd7578281602093845f96015e010152565b9080601f83011215610dd7578151610f77926020016111df565b602081830312610dd7578051906001600160401b038211610dd7570161014081830312610dd75760405191611263836110c2565b815183526020820151602084015261127d604083016111aa565b604084015261128e606083016111aa565b606084015261129f608083016111aa565b608084015260a082015160a08401526112ba60c083016111be565b60c08401526112cb60e083016111be565b60e08401526112dd61010083016111d2565b6101008401526101208201516001600160401b038111610dd7576113019201611215565b61012082015290565b602081830312610dd7578051906001600160401b038211610dd7570190608082820312610dd7576040519161133e836110a7565b611347816111be565b835260208101516001600160401b038111610dd75760609261136a918301611215565b602084015261137b604082016111be565b60408401520151606082015290565b6001600160a01b03918216815291811660208301529091166040820152606081019190915260800190565b356001600160a01b0381168103610dd75790565b93919260408501925f9290916001600160a01b036113e6866113b5565b1696606081013597803b15610dd7576040516323b872dd60e01b81526001600160a01b0389166004820152306024820152604481018a9052905f908290606490829084905af190816116e2575b50611462578787610708611446896113b5565b9260405193849363045b391760e01b855230916004860161138a565b60405160208082015294979396509194909392916001600160a01b0361148782610ea0565b1660408501526020810135601e19823603018112156116de5701602081359101906001600160401b0381116116de5780360382136116de576115179360e093828794608060608701528160c08701528686013783830185018b90526001600160a01b03906114f490610ea0565b16608084015260a0830152601f801991011681010301601f1981018352826110de565b6040519160c083018381106001600160401b038211176116ca57906001600160401b039160405260018060a01b0316938484521660208301526001604083015284606083015260808201528360a0820152602060405161157681611078565b7f000000000000000000000000000000000000000000000000000000000000000081528181019283526040518093819263f17325e760e01b8352846004840152516024830152516040604483015260018060a01b0381511660648301526001600160401b03848201511660848301526040810151151560a4830152606081015160c483015260a0611617608083015160c060e4860152610124850190610eb4565b9101516101048301520381877f00000000000000000000000000000000000000000000000000000000000000006001600160a01b03165af1849181611692575b5061166b57634a10301360e11b8452600484fd5b7f8f7f2dbafd79125e808bf16a53d7fa4e17b8b6374ced76d946a45f94b7bf4d06819480a3565b9091506020813d6020116116c2575b816116ae602093836110de565b810103126116be5751905f611657565b8480fd5b3d91506116a1565b634e487b7160e01b87526041600452602487fd5b8880fd5b6116ef9196505f906110de565b5f945f611433565b91908110156117075760051b0190565b634e487b7160e01b5f52603260045260245ffd5b91908110156117075760051b8101359061013e1981360301821215610dd7570190565b9192908181036117bf575f91345b82841061175e57505050505050600190565b6117698483886116f7565b358181116117b05761177c85858861171b565b30906001600160a01b03906117939060e0016113b5565b16036117a5576001910393019261174c565b505050505050505f90565b63044044a560e21b5f5260045ffd5b63251f56a160e21b5f5260045ffd5b604051906117db826110a7565b5f6060838281528160208201528260408201520152565b7f00000000000000000000000000000000000000000000000000000000000000006020820151036118d357611826816118e2565b156118cd576118466101206118569201516020808251830101910161130a565b916020808251830101910161130a565b604082810151908201516001600160a01b0390811691161491826118ba575b826118a1575b8261188557505090565b6020919250810151818151910120910151602081519101201490565b805182516001600160a01b03908116911614925061187b565b9150606082015160608201511491611875565b50505f90565b635f9bd90760e11b5f5260045ffd5b6001600160401b036060820151168015159081611933575b5061192457608001516001600160401b031661191557600190565b637b6227e960e11b5f5260045ffd5b631ab7da6b60e01b5f5260045ffd5b905042115f6118fa565b805f9172184f03e93ff9f4daa797ed6e38ed64bf6a1f0160401b821015611a87575b806d04ee2d6d415b85acef8100000000600a921015611a6c575b662386f26fc10000811015611a58575b6305f5e100811015611a47575b612710811015611a38575b6064811015611a2a575b1015611a1f575b600a602160018401936119c4856110ff565b946119d260405196876110de565b8086526119e1601f19916110ff565b013660208701378401015b5f1901916f181899199a1a9b1b9c1cb0b131b232b360811b8282061a8353048015611a1a57600a90916119ec565b505090565b6001909101906119b2565b6064600291049301926119ab565b612710600491049301926119a1565b6305f5e10060089104930192611996565b662386f26fc1000060109104930192611989565b6d04ee2d6d415b85acef810000000060209104930192611979565b506040915072184f03e93ff9f4daa797ed6e38ed64bf6a1f0160401b810461195f565b7f00000000000000000000000000000000000000000000000000000000000000006001600160a01b03163303611adc57565b634ca8886760e01b5f5260045ffdfea264697066735822122021fe366c91e8b31adeb86a338fd900abf00ac17012f5cbc307b2c85a26c6c11864736f6c634300081c0033","linkReferences":{}},"methodIdentifiers":{"ATTESTATION_SCHEMA()":"5bf2f20d","attest((bytes32,bytes32,uint64,uint64,uint64,bytes32,address,address,bool,bytes))":"e60c3505","checkObligation((bytes32,bytes32,uint64,uint64,uint64,bytes32,address,address,bool,bytes),bytes,bytes32)":"e6c9714d","collectEscrow(bytes32,bytes32)":"2c713cd9","decodeObligationData(bytes)":"c93844be","doObligation((address,bytes,address,uint256),uint64)":"a4f0d517","doObligationFor((address,bytes,address,uint256),uint64,address,address)":"3ce55d02","getObligation(bytes32)":"7f9e0fd2","getObligationData(bytes32)":"c6ec5070","getSchema()":"6b122fe0","isPayable()":"ce46e046","multiAttest((bytes32,bytes32,uint64,uint64,uint64,bytes32,address,address,bool,bytes)[],uint256[])":"91db0b7e","multiRevoke((bytes32,bytes32,uint64,uint64,uint64,bytes32,address,address,bool,bytes)[],uint256[])":"88e5b2d9","reclaimExpired(bytes32)":"7d2c2931","revoke((bytes32,bytes32,uint64,uint64,uint64,bytes32,address,address,bool,bytes))":"e49617e1","version()":"54fd4d50"},"id":115}