{"abi":[{"type":"constructor","inputs":[{"name":"_eas","type":"address","internalType":"contract IEAS"}],"stateMutability":"nonpayable"},{"type":"function","name":"checkStatement","inputs":[{"name":"statement","type":"tuple","internalType":"struct Attestation","components":[{"name":"uid","type":"bytes32","internalType":"bytes32"},{"name":"schema","type":"bytes32","internalType":"bytes32"},{"name":"time","type":"uint64","internalType":"uint64"},{"name":"expirationTime","type":"uint64","internalType":"uint64"},{"name":"revocationTime","type":"uint64","internalType":"uint64"},{"name":"refUID","type":"bytes32","internalType":"bytes32"},{"name":"recipient","type":"address","internalType":"address"},{"name":"attester","type":"address","internalType":"address"},{"name":"revocable","type":"bool","internalType":"bool"},{"name":"data","type":"bytes","internalType":"bytes"}]},{"name":"","type":"bytes","internalType":"bytes"},{"name":"","type":"bytes32","internalType":"bytes32"}],"outputs":[{"name":"","type":"bool","internalType":"bool"}],"stateMutability":"view"},{"type":"function","name":"confirm","inputs":[{"name":"_statement","type":"bytes32","internalType":"bytes32"}],"outputs":[],"stateMutability":"nonpayable"},{"type":"function","name":"confirmations","inputs":[{"name":"","type":"bytes32","internalType":"bytes32"}],"outputs":[{"name":"","type":"bool","internalType":"bool"}],"stateMutability":"view"},{"type":"function","name":"counterofferToStatement","inputs":[{"name":"","type":"bytes32","internalType":"bytes32"}],"outputs":[{"name":"","type":"bytes32","internalType":"bytes32"}],"stateMutability":"view"},{"type":"function","name":"eas","inputs":[],"outputs":[{"name":"","type":"address","internalType":"contract IEAS"}],"stateMutability":"view"},{"type":"function","name":"requestConfirmation","inputs":[{"name":"_statement","type":"bytes32","internalType":"bytes32"}],"outputs":[],"stateMutability":"nonpayable"},{"type":"function","name":"revoke","inputs":[{"name":"_statement","type":"bytes32","internalType":"bytes32"}],"outputs":[],"stateMutability":"nonpayable"},{"type":"event","name":"ConfirmationMade","inputs":[{"name":"statement","type":"bytes32","indexed":true,"internalType":"bytes32"},{"name":"counteroffer","type":"bytes32","indexed":true,"internalType":"bytes32"}],"anonymous":false},{"type":"event","name":"ConfirmationRequested","inputs":[{"name":"statement","type":"bytes32","indexed":true,"internalType":"bytes32"},{"name":"confirmer","type":"address","indexed":true,"internalType":"address"},{"name":"counteroffer","type":"bytes32","indexed":true,"internalType":"bytes32"}],"anonymous":false},{"type":"event","name":"ConfirmationRevoked","inputs":[{"name":"statement","type":"bytes32","indexed":true,"internalType":"bytes32"},{"name":"counteroffer","type":"bytes32","indexed":true,"internalType":"bytes32"}],"anonymous":false},{"type":"error","name":"AnotherStatementAlreadyConfirmed","inputs":[]},{"type":"error","name":"NoConfirmationToRevoke","inputs":[]},{"type":"error","name":"UnauthorizedConfirmation","inputs":[]},{"type":"error","name":"UnauthorizedConfirmationRequest","inputs":[]},{"type":"error","name":"UnauthorizedRevocation","inputs":[]}],"bytecode":{"object":"0x60a03461007e57601f61097038819003918201601f19168301916001600160401b038311848410176100825780849260209460405283398101031261007e57516001600160a01b038116810361007e576080526040516108d99081610097823960805181818160c60152818161021e0152818161038401526103de0152f35b5f80fd5b634e487b7160e01b5f52604160045260245ffdfe6080806040526004361015610012575f80fd5b5f3560e01c9081631272ff8b1461055a575080631d411daa14610530578063797af627146103b35780638150864d1461036f578063b75c7dc6146101f3578063e9af83611461009b5763ec95bfe714610069575f80fd5b34610097576020366003190112610097576004355f525f602052602060ff60405f2054166040519015158152f35b5f80fd5b34610097576020366003190112610097576040516328c44a9960e21b815260048035908201819052907f00000000000000000000000000000000000000000000000000000000000000006001600160a01b0316905f81602481855afa9081156101a8575f916101d9575b5060e08101516001600160a01b0316331415806101c2575b6101b35760a05f9101516024604051809481936328c44a9960e21b835260048301525afa9081156101a8575f91610186575b5060018060a01b0360c0820151169051917f93ece828de650a0159786850192cbcd721ab720e1ee81b00365a5c8d63886b315f80a4005b6101a291503d805f833e61019a81836106b2565b810190610788565b8261014f565b6040513d5f823e3d90fd5b63020a627d60e11b5f5260045ffd5b5060c08101516001600160a01b031633141561011d565b6101ed91503d805f833e61019a81836106b2565b83610105565b34610097576020366003190112610097576040516328c44a9960e21b815260048035908201819052907f00000000000000000000000000000000000000000000000000000000000000006001600160a01b03165f82602481845afa80156101a85760a05f916024948391610355575b50015191604051938480926328c44a9960e21b82528560048301525afa9182156101a8575f92610339575b5060c08201516001600160a01b0316330361032a57825f525f60205260ff60405f205416158015610314575b61030557825f525f60205260405f2060ff1981541690555f5260016020525f604081205551907f137a0dfcce695307235e039aa2ae70da634ed7f10a6a5a536b3a8c15d758aa1e5f80a3005b6339abb17d60e01b5f5260045ffd5b50805f5260016020528260405f205414156102b9565b630feaf7d560e31b5f5260045ffd5b61034e9192503d805f833e61019a81836106b2565b908361028d565b61036991503d8085833e61019a81836106b2565b86610262565b34610097575f366003190112610097576040517f00000000000000000000000000000000000000000000000000000000000000006001600160a01b03168152602090f35b34610097576020366003190112610097576040516328c44a9960e21b815260048035908201819052907f00000000000000000000000000000000000000000000000000000000000000006001600160a01b03165f82602481845afa80156101a8576024925f91610516575b505f60a082015192604051948580926328c44a9960e21b82528660048301525afa9283156101a8575f936104fa575b5060c08301516001600160a01b031633036104eb57815f52600160205260405f20541515806104d5575b6104c657515f525f60205260405f20600160ff198254161790555f5260016020528160405f205551907fd22fd165f2b163f7b94d6e2b15443105c17bfae3fa2242150644ab76a95d532e5f80a3005b63ec36624760e01b5f5260045ffd5b50815f5260016020528360405f20541415610477565b6331eb5cd360e11b5f5260045ffd5b61050f9193503d805f833e61019a81836106b2565b918461044d565b61052a91503d805f833e61019a81836106b2565b8461041e565b34610097576020366003190112610097576004355f526001602052602060405f2054604051908152f35b346100975760603660031901126100975760043567ffffffffffffffff81116100975761014060031982360301126100975761059582610681565b80600401358252602481013560208301526105b2604482016106d4565b60408301526105c3606482016106d4565b60608301526105d4608482016106d4565b608083015260a481013560a08301526105ef60c482016106e9565b60c083015261060060e482016106e9565b60e08301526101048101358015158103610097576101008301526101248101359067ffffffffffffffff821161009757600461063f9236920101610719565b61012082015260243567ffffffffffffffff811161009757610665903690600401610719565b50515f525f602052602060ff60405f2054166040519015158152f35b610140810190811067ffffffffffffffff82111761069e57604052565b634e487b7160e01b5f52604160045260245ffd5b90601f8019910116810190811067ffffffffffffffff82111761069e57604052565b359067ffffffffffffffff8216820361009757565b35906001600160a01b038216820361009757565b67ffffffffffffffff811161069e57601f01601f191660200190565b81601f8201121561009757803590610730826106fd565b9261073e60405194856106b2565b8284526020838301011161009757815f926020809301838601378301015290565b519067ffffffffffffffff8216820361009757565b51906001600160a01b038216820361009757565b6020818303126100975780519067ffffffffffffffff82116100975701906101408282031261009757604051916107be83610681565b80518352602081015160208401526107d86040820161075f565b60408401526107e96060820161075f565b60608401526107fa6080820161075f565b608084015260a081015160a084015261081560c08201610774565b60c084015261082660e08201610774565b60e08401526101008101518015158103610097576101008401526101208101519067ffffffffffffffff8211610097570181601f820112156100975780519061086e826106fd565b9261087c60405194856106b2565b8284526020838301011161009757815f9260208093018386015e830101526101208201529056fea2646970667358221220cd607c737afad2704d3a401183ede5bf2a4b554052bb70b75aa0967bb67ba5cd64736f6c634300081c0033","linkReferences":{}},"methodIdentifiers":{"checkStatement((bytes32,bytes32,uint64,uint64,uint64,bytes32,address,address,bool,bytes),bytes,bytes32)":"1272ff8b","confirm(bytes32)":"797af627","confirmations(bytes32)":"ec95bfe7","counterofferToStatement(bytes32)":"1d411daa","eas()":"8150864d","requestConfirmation(bytes32)":"e9af8361","revoke(bytes32)":"b75c7dc6"},"id":111}