{"abi":[{"type":"constructor","inputs":[{"name":"_eas","type":"address","internalType":"contract IEAS"}],"stateMutability":"nonpayable"},{"type":"function","name":"checkStatement","inputs":[{"name":"statement","type":"tuple","internalType":"struct Attestation","components":[{"name":"uid","type":"bytes32","internalType":"bytes32"},{"name":"schema","type":"bytes32","internalType":"bytes32"},{"name":"time","type":"uint64","internalType":"uint64"},{"name":"expirationTime","type":"uint64","internalType":"uint64"},{"name":"revocationTime","type":"uint64","internalType":"uint64"},{"name":"refUID","type":"bytes32","internalType":"bytes32"},{"name":"recipient","type":"address","internalType":"address"},{"name":"attester","type":"address","internalType":"address"},{"name":"revocable","type":"bool","internalType":"bool"},{"name":"data","type":"bytes","internalType":"bytes"}]},{"name":"demand","type":"bytes","internalType":"bytes"},{"name":"counteroffer","type":"bytes32","internalType":"bytes32"}],"outputs":[{"name":"","type":"bool","internalType":"bool"}],"stateMutability":"view"},{"type":"function","name":"confirm","inputs":[{"name":"_statement","type":"bytes32","internalType":"bytes32"}],"outputs":[],"stateMutability":"nonpayable"},{"type":"function","name":"confirmations","inputs":[{"name":"","type":"bytes32","internalType":"bytes32"}],"outputs":[{"name":"","type":"bool","internalType":"bool"}],"stateMutability":"view"},{"type":"function","name":"counterofferToStatement","inputs":[{"name":"","type":"bytes32","internalType":"bytes32"}],"outputs":[{"name":"","type":"bytes32","internalType":"bytes32"}],"stateMutability":"view"},{"type":"function","name":"decodeDemandData","inputs":[{"name":"data","type":"bytes","internalType":"bytes"}],"outputs":[{"name":"","type":"tuple","internalType":"struct RevocableConfirmationArbiterComposing.DemandData","components":[{"name":"baseArbiter","type":"address","internalType":"address"},{"name":"baseDemand","type":"bytes","internalType":"bytes"}]}],"stateMutability":"pure"},{"type":"function","name":"eas","inputs":[],"outputs":[{"name":"","type":"address","internalType":"contract IEAS"}],"stateMutability":"view"},{"type":"function","name":"requestConfirmation","inputs":[{"name":"_statement","type":"bytes32","internalType":"bytes32"}],"outputs":[],"stateMutability":"nonpayable"},{"type":"function","name":"revoke","inputs":[{"name":"_statement","type":"bytes32","internalType":"bytes32"}],"outputs":[],"stateMutability":"nonpayable"},{"type":"event","name":"ConfirmationMade","inputs":[{"name":"statement","type":"bytes32","indexed":true,"internalType":"bytes32"},{"name":"counteroffer","type":"bytes32","indexed":true,"internalType":"bytes32"}],"anonymous":false},{"type":"event","name":"ConfirmationRequested","inputs":[{"name":"statement","type":"bytes32","indexed":true,"internalType":"bytes32"},{"name":"confirmer","type":"address","indexed":true,"internalType":"address"},{"name":"counteroffer","type":"bytes32","indexed":true,"internalType":"bytes32"}],"anonymous":false},{"type":"event","name":"ConfirmationRevoked","inputs":[{"name":"statement","type":"bytes32","indexed":true,"internalType":"bytes32"},{"name":"counteroffer","type":"bytes32","indexed":true,"internalType":"bytes32"}],"anonymous":false},{"type":"error","name":"AnotherStatementAlreadyConfirmed","inputs":[]},{"type":"error","name":"NoConfirmationToRevoke","inputs":[]},{"type":"error","name":"UnauthorizedConfirmation","inputs":[]},{"type":"error","name":"UnauthorizedConfirmationRequest","inputs":[]},{"type":"error","name":"UnauthorizedRevocation","inputs":[]}],"bytecode":{"object":"0x60a03461007e57601f610c8038819003918201601f19168301916001600160401b038311848410176100825780849260209460405283398101031261007e57516001600160a01b038116810361007e57608052604051610be99081610097823960805181818160d1015281816102290152818161049201526104ec0152f35b5f80fd5b634e487b7160e01b5f52604160045260245ffdfe6080806040526004361015610012575f80fd5b5f3560e01c9081631272ff8b14610668575080631d411daa1461063e578063797af627146104c15780638150864d1461047d578063838a68d91461037a578063b75c7dc6146101fe578063e9af8361146100a65763ec95bfe714610074575f80fd5b346100a25760203660031901126100a2576004355f525f602052602060ff60405f2054166040519015158152f35b5f80fd5b346100a25760203660031901126100a2576040516328c44a9960e21b815260048035908201819052907f00000000000000000000000000000000000000000000000000000000000000006001600160a01b0316905f81602481855afa9081156101b3575f916101e4575b5060e08101516001600160a01b0316331415806101cd575b6101be5760a05f9101516024604051809481936328c44a9960e21b835260048301525afa9081156101b3575f91610191575b5060018060a01b0360c0820151169051917f93ece828de650a0159786850192cbcd721ab720e1ee81b00365a5c8d63886b315f80a4005b6101ad91503d805f833e6101a581836107d4565b810190610ad8565b8261015a565b6040513d5f823e3d90fd5b63020a627d60e11b5f5260045ffd5b5060c08101516001600160a01b0316331415610128565b6101f891503d805f833e6101a581836107d4565b83610110565b346100a25760203660031901126100a2576040516328c44a9960e21b815260048035908201819052907f00000000000000000000000000000000000000000000000000000000000000006001600160a01b03165f82602481845afa80156101b35760a05f916024948391610360575b50015191604051938480926328c44a9960e21b82528560048301525afa9182156101b3575f92610344575b5060c08201516001600160a01b0316330361033557825f525f60205260ff60405f20541615801561031f575b61031057825f525f60205260405f2060ff1981541690555f5260016020525f604081205551907f137a0dfcce695307235e039aa2ae70da634ed7f10a6a5a536b3a8c15d758aa1e5f80a3005b6339abb17d60e01b5f5260045ffd5b50805f5260016020528260405f205414156102c4565b630feaf7d560e31b5f5260045ffd5b6103599192503d805f833e6101a581836107d4565b9083610298565b61037491503d8085833e6101a581836107d4565b8661026d565b346100a25760203660031901126100a2576004356001600160401b0381116100a257366023820112156100a25780600401356001600160401b0381116100a257810160248101913683116100a257606060206040516103d8816107b9565b5f815201526020818303126100a2576024810135906001600160401b0382116100a2570190604090829003126100a25760405191610415836107b9565b61042160248301610809565b83526044820135916001600160401b0383116100a2576104449201602401610838565b90602081019182526104796040519283926020845260018060a01b03905116602084015251604080840152606083019061087e565b0390f35b346100a2575f3660031901126100a2576040517f00000000000000000000000000000000000000000000000000000000000000006001600160a01b03168152602090f35b346100a25760203660031901126100a2576040516328c44a9960e21b815260048035908201819052907f00000000000000000000000000000000000000000000000000000000000000006001600160a01b03165f82602481845afa80156101b3576024925f91610624575b505f60a082015192604051948580926328c44a9960e21b82528660048301525afa9283156101b3575f93610608575b5060c08301516001600160a01b031633036105f957815f52600160205260405f20541515806105e3575b6105d457515f525f60205260405f20600160ff198254161790555f5260016020528160405f205551907fd22fd165f2b163f7b94d6e2b15443105c17bfae3fa2242150644ab76a95d532e5f80a3005b63ec36624760e01b5f5260045ffd5b50815f5260016020528360405f20541415610585565b6331eb5cd360e11b5f5260045ffd5b61061d9193503d805f833e6101a581836107d4565b918461055b565b61063891503d805f833e6101a581836107d4565b8461052c565b346100a25760203660031901126100a2576004355f526001602052602060405f2054604051908152f35b346100a25760603660031901126100a2576004356001600160401b0381116100a25761014060031982360301126100a2576106a282610789565b80600401358252602481013560208301526106bf604482016107f5565b60408301526106d0606482016107f5565b60608301526106e1608482016107f5565b608083015260a481013560a08301526106fc60c48201610809565b60c083015261070d60e48201610809565b60e083015261010481013580151581036100a257610100830152610124810135906001600160401b0382116100a257600461074b9236920101610838565b6101208201526024356001600160401b0381116100a25760209161077661077f923690600401610838565b60443591610909565b6040519015158152f35b61014081019081106001600160401b038211176107a557604052565b634e487b7160e01b5f52604160045260245ffd5b604081019081106001600160401b038211176107a557604052565b90601f801991011681019081106001600160401b038211176107a557604052565b35906001600160401b03821682036100a257565b35906001600160a01b03821682036100a257565b6001600160401b0381116107a557601f01601f191660200190565b81601f820112156100a25780359061084f8261081d565b9261085d60405194856107d4565b828452602083830101116100a257815f926020809301838601378301015290565b805180835260209291819084018484015e5f828201840152601f01601f1916010190565b51906001600160a01b03821682036100a257565b81601f820112156100a2578051906108cd8261081d565b926108db60405194856107d4565b828452602083830101116100a257815f9260208093018386015e8301015290565b519081151582036100a257565b81518201916020818403126100a2576020810151906001600160401b0382116100a25701916040838203126100a25760405192610945846107b9565b610951602082016108a2565b84526040810151916001600160401b0383116100a2576109789260208092019201016108b6565b6020830190815281515f525f60205260ff60405f20541615610abc579151915160408051631272ff8b60e01b8152606060048201819052845160648301526020808601516084840152928501516001600160401b0390811660a484015290850151811660c483015260808501511660e482015260a084015161010482015260c08401516001600160a01b0390811661012483015260e085015181166101448301526101008501511515610164830152610120909401516101406101848301529095919486941692849283929091610a6a91610a58906101a486019061087e565b8481036003190160248601529061087e565b90604483015203915afa9081156101b3575f91610a85575090565b90506020813d602011610ab4575b81610aa0602093836107d4565b810103126100a257610ab1906108fc565b90565b3d9150610a93565b505050505f90565b51906001600160401b03821682036100a257565b6020818303126100a2578051906001600160401b0382116100a25701610140818303126100a25760405191610b0c83610789565b8151835260208201516020840152610b2660408301610ac4565b6040840152610b3760608301610ac4565b6060840152610b4860808301610ac4565b608084015260a082015160a0840152610b6360c083016108a2565b60c0840152610b7460e083016108a2565b60e0840152610b8661010083016108fc565b6101008401526101208201516001600160401b0381116100a257610baa92016108b6565b6101208201529056fea2646970667358221220a7e25899458220d7f6f3026f83ab1979e04f2931b5bb2003b29e3fabbf3e4c3264736f6c634300081c0033","linkReferences":{}},"methodIdentifiers":{"checkStatement((bytes32,bytes32,uint64,uint64,uint64,bytes32,address,address,bool,bytes),bytes,bytes32)":"1272ff8b","confirm(bytes32)":"797af627","confirmations(bytes32)":"ec95bfe7","counterofferToStatement(bytes32)":"1d411daa","decodeDemandData(bytes)":"838a68d9","eas()":"8150864d","requestConfirmation(bytes32)":"e9af8361","revoke(bytes32)":"b75c7dc6"},"id":112}