{"abi":[{"type":"constructor","inputs":[{"name":"_eas","type":"address","internalType":"contract IEAS"},{"name":"_schemaRegistry","type":"address","internalType":"contract ISchemaRegistry"}],"stateMutability":"nonpayable"},{"type":"receive","stateMutability":"payable"},{"type":"function","name":"ATTESTATION_SCHEMA","inputs":[],"outputs":[{"name":"","type":"bytes32","internalType":"bytes32"}],"stateMutability":"view"},{"type":"function","name":"attest","inputs":[{"name":"attestation","type":"tuple","internalType":"struct Attestation","components":[{"name":"uid","type":"bytes32","internalType":"bytes32"},{"name":"schema","type":"bytes32","internalType":"bytes32"},{"name":"time","type":"uint64","internalType":"uint64"},{"name":"expirationTime","type":"uint64","internalType":"uint64"},{"name":"revocationTime","type":"uint64","internalType":"uint64"},{"name":"refUID","type":"bytes32","internalType":"bytes32"},{"name":"recipient","type":"address","internalType":"address"},{"name":"attester","type":"address","internalType":"address"},{"name":"revocable","type":"bool","internalType":"bool"},{"name":"data","type":"bytes","internalType":"bytes"}]}],"outputs":[{"name":"","type":"bool","internalType":"bool"}],"stateMutability":"payable"},{"type":"function","name":"decodeObligationData","inputs":[{"name":"data","type":"bytes","internalType":"bytes"}],"outputs":[{"name":"","type":"tuple","internalType":"struct StringObligation.ObligationData","components":[{"name":"item","type":"string","internalType":"string"}]}],"stateMutability":"pure"},{"type":"function","name":"doObligation","inputs":[{"name":"data","type":"tuple","internalType":"struct StringObligation.ObligationData","components":[{"name":"item","type":"string","internalType":"string"}]},{"name":"refUID","type":"bytes32","internalType":"bytes32"}],"outputs":[{"name":"uid_","type":"bytes32","internalType":"bytes32"}],"stateMutability":"nonpayable"},{"type":"function","name":"getObligation","inputs":[{"name":"uid","type":"bytes32","internalType":"bytes32"}],"outputs":[{"name":"","type":"tuple","internalType":"struct Attestation","components":[{"name":"uid","type":"bytes32","internalType":"bytes32"},{"name":"schema","type":"bytes32","internalType":"bytes32"},{"name":"time","type":"uint64","internalType":"uint64"},{"name":"expirationTime","type":"uint64","internalType":"uint64"},{"name":"revocationTime","type":"uint64","internalType":"uint64"},{"name":"refUID","type":"bytes32","internalType":"bytes32"},{"name":"recipient","type":"address","internalType":"address"},{"name":"attester","type":"address","internalType":"address"},{"name":"revocable","type":"bool","internalType":"bool"},{"name":"data","type":"bytes","internalType":"bytes"}]}],"stateMutability":"view"},{"type":"function","name":"getObligationData","inputs":[{"name":"uid","type":"bytes32","internalType":"bytes32"}],"outputs":[{"name":"","type":"tuple","internalType":"struct StringObligation.ObligationData","components":[{"name":"item","type":"string","internalType":"string"}]}],"stateMutability":"view"},{"type":"function","name":"getSchema","inputs":[],"outputs":[{"name":"","type":"tuple","internalType":"struct SchemaRecord","components":[{"name":"uid","type":"bytes32","internalType":"bytes32"},{"name":"resolver","type":"address","internalType":"contract ISchemaResolver"},{"name":"revocable","type":"bool","internalType":"bool"},{"name":"schema","type":"string","internalType":"string"}]}],"stateMutability":"view"},{"type":"function","name":"isPayable","inputs":[],"outputs":[{"name":"","type":"bool","internalType":"bool"}],"stateMutability":"pure"},{"type":"function","name":"multiAttest","inputs":[{"name":"attestations","type":"tuple[]","internalType":"struct Attestation[]","components":[{"name":"uid","type":"bytes32","internalType":"bytes32"},{"name":"schema","type":"bytes32","internalType":"bytes32"},{"name":"time","type":"uint64","internalType":"uint64"},{"name":"expirationTime","type":"uint64","internalType":"uint64"},{"name":"revocationTime","type":"uint64","internalType":"uint64"},{"name":"refUID","type":"bytes32","internalType":"bytes32"},{"name":"recipient","type":"address","internalType":"address"},{"name":"attester","type":"address","internalType":"address"},{"name":"revocable","type":"bool","internalType":"bool"},{"name":"data","type":"bytes","internalType":"bytes"}]},{"name":"values","type":"uint256[]","internalType":"uint256[]"}],"outputs":[{"name":"","type":"bool","internalType":"bool"}],"stateMutability":"payable"},{"type":"function","name":"multiRevoke","inputs":[{"name":"attestations","type":"tuple[]","internalType":"struct Attestation[]","components":[{"name":"uid","type":"bytes32","internalType":"bytes32"},{"name":"schema","type":"bytes32","internalType":"bytes32"},{"name":"time","type":"uint64","internalType":"uint64"},{"name":"expirationTime","type":"uint64","internalType":"uint64"},{"name":"revocationTime","type":"uint64","internalType":"uint64"},{"name":"refUID","type":"bytes32","internalType":"bytes32"},{"name":"recipient","type":"address","internalType":"address"},{"name":"attester","type":"address","internalType":"address"},{"name":"revocable","type":"bool","internalType":"bool"},{"name":"data","type":"bytes","internalType":"bytes"}]},{"name":"values","type":"uint256[]","internalType":"uint256[]"}],"outputs":[{"name":"","type":"bool","internalType":"bool"}],"stateMutability":"payable"},{"type":"function","name":"revoke","inputs":[{"name":"attestation","type":"tuple","internalType":"struct Attestation","components":[{"name":"uid","type":"bytes32","internalType":"bytes32"},{"name":"schema","type":"bytes32","internalType":"bytes32"},{"name":"time","type":"uint64","internalType":"uint64"},{"name":"expirationTime","type":"uint64","internalType":"uint64"},{"name":"revocationTime","type":"uint64","internalType":"uint64"},{"name":"refUID","type":"bytes32","internalType":"bytes32"},{"name":"recipient","type":"address","internalType":"address"},{"name":"attester","type":"address","internalType":"address"},{"name":"revocable","type":"bool","internalType":"bool"},{"name":"data","type":"bytes","internalType":"bytes"}]}],"outputs":[{"name":"","type":"bool","internalType":"bool"}],"stateMutability":"payable"},{"type":"function","name":"version","inputs":[],"outputs":[{"name":"","type":"string","internalType":"string"}],"stateMutability":"view"},{"type":"error","name":"AccessDenied","inputs":[]},{"type":"error","name":"AttestationCreateFailed","inputs":[]},{"type":"error","name":"InsufficientValue","inputs":[]},{"type":"error","name":"InvalidEAS","inputs":[]},{"type":"error","name":"InvalidLength","inputs":[]},{"type":"error","name":"NotFromObligation","inputs":[]},{"type":"error","name":"NotPayable","inputs":[]}],"bytecode":{"object":"0x61016080604052346101b2576040816111d0803803809161002082856101ec565b8339810103126101b25780516001600160a01b038116918282036101b25760200151916001600160a01b0383168084036101b257604080519081016001600160401b038111828210176101d857604052600b815260208101926a737472696e67206974656d60a81b84526001608052600460a0525f60c052156101c9576084948460209560e05261012052610100525f604051958680958194630c1af44f60e31b8352606060048401525180918160648501528484015e818101830184905230602483015260016044830152601f01601f191681010301925af19081156101be575f91610188575b5061014052604051610fc0908161021082396080518161092c015260a05181610957015260c05181610982015260e05181610f32015261010051816107bf015261012051818181610234015281816103e301526106b50152610140518181816102740152818161041c015281816106080152818161078d01526108ea0152f35b90506020813d6020116101b6575b816101a3602093836101ec565b810103126101b257515f610108565b5f80fd5b3d9150610196565b6040513d5f823e3d90fd5b6341bc07ff60e11b5f5260045ffd5b634e487b7160e01b5f52604160045260245ffd5b601f909101601f19168101906001600160401b038211908210176101d85760405256fe60806040526004361015610027575b3615610018575f80fd5b631574f9f360e01b5f5260045ffd5b5f3560e01c806354fd4d501461090d5780635bf2f20d146108d35780636b122fe01461074e5780637e431351146104ff5780637f9e0fd21461036957806388e5b2d91461034a57806391db0b7e1461034a578063c6ec5070146101f8578063c93844be146100f3578063ce46e046146100d5578063e49617e1146100b05763e60c35050361000e575b60206100cb6100be36610acb565b6100c6610f30565b610f71565b6040519015158152f35b346100ef575f3660031901126100ef5760206040515f8152f35b5f80fd5b346100ef5760203660031901126100ef576004356001600160401b0381116100ef57366023820112156100ef5780600401356001600160401b0381116100ef57810160248101913683116100ef57606060405161014f81610b36565b526020818303126100ef576024810135906001600160401b0382116100ef570190602090829003126100ef576040519061018882610b36565b60248101356001600160401b0381116100ef5760249101019180601f840112156100ef5782356101b781610b7f565b916101c56040519384610b51565b818352602082860101116100ef576020815f92826101f497018386013783010152815260405191829182610aaf565b0390f35b346100ef5760203660031901126100ef57606060405161021781610b36565b526040516328c44a9960e21b815260048035908201525f816024817f00000000000000000000000000000000000000000000000000000000000000006001600160a01b03165afa90811561033f575f9161031d575b5060208101517f00000000000000000000000000000000000000000000000000000000000000000361030e57610120015180518101906020818303126100ef576020810151906001600160401b0382116100ef57016020818303126100ef57604051906102d882610b36565b6020810151906001600160401b0382116100ef57602061030092816101f49601920101610bd0565b815260405191829182610aaf565b6360000df160e11b5f5260045ffd5b61033991503d805f833e6103318183610b51565b810190610c12565b8161026c565b6040513d5f823e3d90fd5b60206100cb61035836610a5f565b92610364929192610f30565b610d47565b346100ef5760203660031901126100ef57606061012060405161038b81610b1a565b5f81525f60208201525f60408201525f838201525f60808201525f60a08201525f60c08201525f60e08201525f61010082015201526040516328c44a9960e21b815260043560048201525f8160248160018060a01b037f0000000000000000000000000000000000000000000000000000000000000000165afa90811561033f575f916104e5575b506020810180517f00000000000000000000000000000000000000000000000000000000000000000361030e576101f461012060405193849360208552815160208601525160408501526001600160401b0360408201511660608501526001600160401b0360608201511660808501526001600160401b0360808201511660a085015260a081015160c085015260018060a01b0360c08201511660e085015260018060a01b0360e082015116610100850152610100810151151582850152015161014080840152610160830190610a0b565b6104f991503d805f833e6103318183610b51565b81610413565b346100ef5760403660031901126100ef576004356001600160401b0381116100ef578036039060206003198301126100ef5760405160208082015291600482013590602219018112156100ef5701602460048201359101906001600160401b0381116100ef5780360382136100ef5782816080926105a79460206040850152816060850152848401375f838284010152601f801991011681010301601f198101835282610b51565b6040519060c082018281106001600160401b0382111761073a576040523382525f60208301525f6040830152602435606083015260808201525f60a082015260405160408101908082106001600160401b0383111761073a576020916040527f000000000000000000000000000000000000000000000000000000000000000081528181019283526040518093819263f17325e760e01b8352846004840152516024830152516040604483015260018060a01b0381511660648301526001600160401b03848201511660848301526040810151151560a4830152606081015160c483015260a06106a7608083015160c060e4860152610124850190610a0b565b91015161010483015203815f7f00000000000000000000000000000000000000000000000000000000000000006001600160a01b03165af15f9181610706575b506106fb57634a10301360e11b5f5260045ffd5b602090604051908152f35b9091506020813d602011610732575b8161072260209383610b51565b810103126100ef575190826106e7565b3d9150610715565b634e487b7160e01b5f52604160045260245ffd5b346100ef575f3660031901126100ef5760608060405161076d81610aff565b5f81525f60208201525f604082015201526040516351753e3760e11b81527f000000000000000000000000000000000000000000000000000000000000000060048201525f8160248160018060a01b037f0000000000000000000000000000000000000000000000000000000000000000165afa801561033f575f90610834575b6060906101f4604051928392602084528051602085015260018060a01b0360208201511660408501526040810151151582850152015160808084015260a0830190610a0b565b503d805f833e6108448183610b51565b8101906020818303126100ef578051906001600160401b0382116100ef57016080818303126100ef576040519061087a82610aff565b8051825260208101516001600160a01b03811681036100ef5760208301526108a460408201610b72565b60408301526060810151926001600160401b0384116100ef576060936108ca9201610bd0565b828201526107ee565b346100ef575f3660031901126100ef5760206040517f00000000000000000000000000000000000000000000000000000000000000008152f35b346100ef575f3660031901126100ef576101f460206109fb60016109507f0000000000000000000000000000000000000000000000000000000000000000610dc3565b818461097b7f0000000000000000000000000000000000000000000000000000000000000000610dc3565b81806109a67f0000000000000000000000000000000000000000000000000000000000000000610dc3565b9260405199878b985191829101848a015e870190601760f91b83830152805192839101602183015e010190601760f91b84830152805192839101600283015e01015f838201520301601f198101835282610b51565b6040519182916020835260208301905b805180835260209291819084018484015e5f828201840152601f01601f1916010190565b9181601f840112156100ef578235916001600160401b0383116100ef576020808501948460051b0101116100ef57565b60406003198201126100ef576004356001600160401b0381116100ef5781610a8991600401610a2f565b92909291602435906001600160401b0382116100ef57610aab91600401610a2f565b9091565b6040610ac8926020835251916020808201520190610a0b565b90565b60206003198201126100ef57600435906001600160401b0382116100ef576101409082900360031901126100ef5760040190565b608081019081106001600160401b0382111761073a57604052565b61014081019081106001600160401b0382111761073a57604052565b602081019081106001600160401b0382111761073a57604052565b90601f801991011681019081106001600160401b0382111761073a57604052565b519081151582036100ef57565b6001600160401b03811161073a57601f01601f191660200190565b929192610ba682610b7f565b91610bb46040519384610b51565b8294818452818301116100ef578281602093845f96015e010152565b9080601f830112156100ef578151610ac892602001610b9a565b51906001600160401b03821682036100ef57565b51906001600160a01b03821682036100ef57565b6020818303126100ef578051906001600160401b0382116100ef570190610140828203126100ef5760405191610c4783610b1a565b8051835260208101516020840152610c6160408201610bea565b6040840152610c7260608201610bea565b6060840152610c8360808201610bea565b608084015260a081015160a0840152610c9e60c08201610bfe565b60c0840152610caf60e08201610bfe565b60e0840152610cc16101008201610b72565b610100840152610120810151906001600160401b0382116100ef57019080601f830112156100ef578151610cf792602001610b9a565b61012082015290565b9190811015610d105760051b0190565b634e487b7160e01b5f52603260045260245ffd5b9190811015610d105760051b8101359061013e19813603018212156100ef570190565b92909192818303610db4575f91345b848410610d6857505050505050600190565b610d73848388610d00565b35818111610da557610d896100c6868887610d24565b15610d9a5760019103930192610d56565b505050505050505f90565b63044044a560e21b5f5260045ffd5b63251f56a160e21b5f5260045ffd5b805f9172184f03e93ff9f4daa797ed6e38ed64bf6a1f0160401b821015610f0d575b806d04ee2d6d415b85acef8100000000600a921015610ef2575b662386f26fc10000811015610ede575b6305f5e100811015610ecd575b612710811015610ebe575b6064811015610eb0575b1015610ea5575b600a60216001840193610e4a85610b7f565b94610e586040519687610b51565b808652610e67601f1991610b7f565b013660208701378401015b5f1901916f181899199a1a9b1b9c1cb0b131b232b360811b8282061a8353048015610ea057600a9091610e72565b505090565b600190910190610e38565b606460029104930192610e31565b61271060049104930192610e27565b6305f5e10060089104930192610e1c565b662386f26fc1000060109104930192610e0f565b6d04ee2d6d415b85acef810000000060209104930192610dff565b506040915072184f03e93ff9f4daa797ed6e38ed64bf6a1f0160401b8104610de5565b7f00000000000000000000000000000000000000000000000000000000000000006001600160a01b03163303610f6257565b634ca8886760e01b5f5260045ffd5b60e0013560018060a01b0381168091036100ef5730149056fea2646970667358221220299ad9b3778904e7ad88fa444a0a717768973b9515a857cec39dbbed3640a44b64736f6c634300081c0033","linkReferences":{}},"methodIdentifiers":{"ATTESTATION_SCHEMA()":"5bf2f20d","attest((bytes32,bytes32,uint64,uint64,uint64,bytes32,address,address,bool,bytes))":"e60c3505","decodeObligationData(bytes)":"c93844be","doObligation((string),bytes32)":"7e431351","getObligation(bytes32)":"7f9e0fd2","getObligationData(bytes32)":"c6ec5070","getSchema()":"6b122fe0","isPayable()":"ce46e046","multiAttest((bytes32,bytes32,uint64,uint64,uint64,bytes32,address,address,bool,bytes)[],uint256[])":"91db0b7e","multiRevoke((bytes32,bytes32,uint64,uint64,uint64,bytes32,address,address,bool,bytes)[],uint256[])":"88e5b2d9","revoke((bytes32,bytes32,uint64,uint64,uint64,bytes32,address,address,bool,bytes))":"e49617e1","version()":"54fd4d50"},"id":117}