{"abi":[{"type":"function","name":"checkStatement","inputs":[{"name":"statement","type":"tuple","internalType":"struct Attestation","components":[{"name":"uid","type":"bytes32","internalType":"bytes32"},{"name":"schema","type":"bytes32","internalType":"bytes32"},{"name":"time","type":"uint64","internalType":"uint64"},{"name":"expirationTime","type":"uint64","internalType":"uint64"},{"name":"revocationTime","type":"uint64","internalType":"uint64"},{"name":"refUID","type":"bytes32","internalType":"bytes32"},{"name":"recipient","type":"address","internalType":"address"},{"name":"attester","type":"address","internalType":"address"},{"name":"revocable","type":"bool","internalType":"bool"},{"name":"data","type":"bytes","internalType":"bytes"}]},{"name":"demand","type":"bytes","internalType":"bytes"},{"name":"counteroffer","type":"bytes32","internalType":"bytes32"}],"outputs":[{"name":"","type":"bool","internalType":"bool"}],"stateMutability":"view"},{"type":"function","name":"decodeDemandData","inputs":[{"name":"data","type":"bytes","internalType":"bytes"}],"outputs":[{"name":"","type":"tuple","internalType":"struct TimeBeforeArbiter.DemandData","components":[{"name":"baseArbiter","type":"address","internalType":"address"},{"name":"baseDemand","type":"bytes","internalType":"bytes"},{"name":"time","type":"uint64","internalType":"uint64"}]}],"stateMutability":"pure"},{"type":"error","name":"TimeNotBefore","inputs":[]}],"bytecode":{"object":"0x608080604052346015576105d9908161001a8239f35b5f80fdfe60806040526004361015610011575f80fd5b5f3560e01c80631272ff8b146101685763838a68d91461002f575f80fd5b34610164576020366003190112610164576004356001600160401b03811161016457366023820112156101645780600401356001600160401b038111610164578101906024820190368211610164575f6040805161008c816104ba565b82815260606020820152015260206023196024838603010112610164576024810135906001600160401b0382116101645701916060908390031261016457604051906100d7826104ba565b6100e36024840161050a565b82526044830135906001600160401b0382116101645761010d606491602461011b94870101610539565b9360208401948552016104f6565b604082019081526001600160401b036101586040519485946020865260018060a01b0390511660208601525160606040860152608085019061057f565b91511660608301520390f35b5f80fd5b34610164576060366003190112610164576004356001600160401b038111610164576101406003198236030112610164576101c06040526004810135608052602481013560a0526101bb604482016104f6565b60c09081526101cc606483016104f6565b60e09081526101dd608484016104f6565b61010090815260a48401356101209081526101fa60c4860161050a565b6101409081529361020d60e4870161050a565b6101609081529561010481013580151581036101645761018052610124810135906001600160401b03821161016457600461024b9236920101610539565b6101a0526024356001600160401b0381116101645761026e903690600401610539565b9283518401906020820194602081840312610164576020810151926001600160401b0384116101645760608285019091031261016457604051926102b1846104ba565b818101602001516001600160a01b038116810361016457845260408183010151916001600160401b03831161016457603f818301840101881315610164576020838383010101516103018161051e565b9861030f6040519a8b6104d5565b818a526040838501860183010111610164576020815f928280606098888801010101838d015e8a010152602085019788520101516001600160401b038116908181036101645760408401526001600160401b03845116116104975790519351604051631272ff8b60e01b815260606004820152608051606482015260a051608482015292516001600160401b0390811660a48501529551861660c4840152905190941660e4820152905161010482015292516001600160a01b03908116610124850152935184166101448401526101805115156101648401526101a0516101406101848501529293602093859392909116918391829161042a91610418906101a485019061057f565b8381036003190160248501529061057f565b604435604483015203915afa801561048c575f90610450575b6020906040519015158152f35b506020813d602011610484575b8161046a602093836104d5565b810103126101645751801515810361016457602090610443565b3d915061045d565b6040513d5f823e3d90fd5b63abcd2e9760e01b5f5260045ffd5b634e487b7160e01b5f52604160045260245ffd5b606081019081106001600160401b038211176104a657604052565b90601f801991011681019081106001600160401b038211176104a657604052565b35906001600160401b038216820361016457565b35906001600160a01b038216820361016457565b6001600160401b0381116104a657601f01601f191660200190565b81601f82011215610164578035906105508261051e565b9261055e60405194856104d5565b8284526020838301011161016457815f926020809301838601378301015290565b805180835260209291819084018484015e5f828201840152601f01601f191601019056fea2646970667358221220af8e9db218d756772b0ade2caf3d3451ba89ab06960e2ff988f1937e9086ff7f64736f6c634300081c0033","linkReferences":{}},"methodIdentifiers":{"checkStatement((bytes32,bytes32,uint64,uint64,uint64,bytes32,address,address,bool,bytes),bytes,bytes32)":"1272ff8b","decodeDemandData(bytes)":"838a68d9"},"id":94}