{"abi":[{"type":"constructor","inputs":[{"name":"_eas","type":"address","internalType":"contract IEAS"},{"name":"_schemaRegistry","type":"address","internalType":"contract ISchemaRegistry"}],"stateMutability":"nonpayable"},{"type":"receive","stateMutability":"payable"},{"type":"function","name":"ATTESTATION_SCHEMA","inputs":[],"outputs":[{"name":"","type":"bytes32","internalType":"bytes32"}],"stateMutability":"view"},{"type":"function","name":"attest","inputs":[{"name":"attestation","type":"tuple","internalType":"struct Attestation","components":[{"name":"uid","type":"bytes32","internalType":"bytes32"},{"name":"schema","type":"bytes32","internalType":"bytes32"},{"name":"time","type":"uint64","internalType":"uint64"},{"name":"expirationTime","type":"uint64","internalType":"uint64"},{"name":"revocationTime","type":"uint64","internalType":"uint64"},{"name":"refUID","type":"bytes32","internalType":"bytes32"},{"name":"recipient","type":"address","internalType":"address"},{"name":"attester","type":"address","internalType":"address"},{"name":"revocable","type":"bool","internalType":"bool"},{"name":"data","type":"bytes","internalType":"bytes"}]}],"outputs":[{"name":"","type":"bool","internalType":"bool"}],"stateMutability":"payable"},{"type":"function","name":"checkObligation","inputs":[{"name":"obligation","type":"tuple","internalType":"struct Attestation","components":[{"name":"uid","type":"bytes32","internalType":"bytes32"},{"name":"schema","type":"bytes32","internalType":"bytes32"},{"name":"time","type":"uint64","internalType":"uint64"},{"name":"expirationTime","type":"uint64","internalType":"uint64"},{"name":"revocationTime","type":"uint64","internalType":"uint64"},{"name":"refUID","type":"bytes32","internalType":"bytes32"},{"name":"recipient","type":"address","internalType":"address"},{"name":"attester","type":"address","internalType":"address"},{"name":"revocable","type":"bool","internalType":"bool"},{"name":"data","type":"bytes","internalType":"bytes"}]},{"name":"demand","type":"bytes","internalType":"bytes"},{"name":"","type":"bytes32","internalType":"bytes32"}],"outputs":[{"name":"","type":"bool","internalType":"bool"}],"stateMutability":"view"},{"type":"function","name":"collectEscrow","inputs":[{"name":"_payment","type":"bytes32","internalType":"bytes32"},{"name":"_fulfillment","type":"bytes32","internalType":"bytes32"}],"outputs":[{"name":"","type":"bool","internalType":"bool"}],"stateMutability":"nonpayable"},{"type":"function","name":"decodeObligationData","inputs":[{"name":"data","type":"bytes","internalType":"bytes"}],"outputs":[{"name":"","type":"tuple","internalType":"struct TokenBundleEscrowObligation.ObligationData","components":[{"name":"arbiter","type":"address","internalType":"address"},{"name":"demand","type":"bytes","internalType":"bytes"},{"name":"erc20Tokens","type":"address[]","internalType":"address[]"},{"name":"erc20Amounts","type":"uint256[]","internalType":"uint256[]"},{"name":"erc721Tokens","type":"address[]","internalType":"address[]"},{"name":"erc721TokenIds","type":"uint256[]","internalType":"uint256[]"},{"name":"erc1155Tokens","type":"address[]","internalType":"address[]"},{"name":"erc1155TokenIds","type":"uint256[]","internalType":"uint256[]"},{"name":"erc1155Amounts","type":"uint256[]","internalType":"uint256[]"}]}],"stateMutability":"pure"},{"type":"function","name":"doObligation","inputs":[{"name":"data","type":"tuple","internalType":"struct TokenBundleEscrowObligation.ObligationData","components":[{"name":"arbiter","type":"address","internalType":"address"},{"name":"demand","type":"bytes","internalType":"bytes"},{"name":"erc20Tokens","type":"address[]","internalType":"address[]"},{"name":"erc20Amounts","type":"uint256[]","internalType":"uint256[]"},{"name":"erc721Tokens","type":"address[]","internalType":"address[]"},{"name":"erc721TokenIds","type":"uint256[]","internalType":"uint256[]"},{"name":"erc1155Tokens","type":"address[]","internalType":"address[]"},{"name":"erc1155TokenIds","type":"uint256[]","internalType":"uint256[]"},{"name":"erc1155Amounts","type":"uint256[]","internalType":"uint256[]"}]},{"name":"expirationTime","type":"uint64","internalType":"uint64"}],"outputs":[{"name":"uid_","type":"bytes32","internalType":"bytes32"}],"stateMutability":"nonpayable"},{"type":"function","name":"doObligationFor","inputs":[{"name":"data","type":"tuple","internalType":"struct TokenBundleEscrowObligation.ObligationData","components":[{"name":"arbiter","type":"address","internalType":"address"},{"name":"demand","type":"bytes","internalType":"bytes"},{"name":"erc20Tokens","type":"address[]","internalType":"address[]"},{"name":"erc20Amounts","type":"uint256[]","internalType":"uint256[]"},{"name":"erc721Tokens","type":"address[]","internalType":"address[]"},{"name":"erc721TokenIds","type":"uint256[]","internalType":"uint256[]"},{"name":"erc1155Tokens","type":"address[]","internalType":"address[]"},{"name":"erc1155TokenIds","type":"uint256[]","internalType":"uint256[]"},{"name":"erc1155Amounts","type":"uint256[]","internalType":"uint256[]"}]},{"name":"expirationTime","type":"uint64","internalType":"uint64"},{"name":"payer","type":"address","internalType":"address"},{"name":"recipient","type":"address","internalType":"address"}],"outputs":[{"name":"uid_","type":"bytes32","internalType":"bytes32"}],"stateMutability":"nonpayable"},{"type":"function","name":"getObligation","inputs":[{"name":"uid","type":"bytes32","internalType":"bytes32"}],"outputs":[{"name":"","type":"tuple","internalType":"struct Attestation","components":[{"name":"uid","type":"bytes32","internalType":"bytes32"},{"name":"schema","type":"bytes32","internalType":"bytes32"},{"name":"time","type":"uint64","internalType":"uint64"},{"name":"expirationTime","type":"uint64","internalType":"uint64"},{"name":"revocationTime","type":"uint64","internalType":"uint64"},{"name":"refUID","type":"bytes32","internalType":"bytes32"},{"name":"recipient","type":"address","internalType":"address"},{"name":"attester","type":"address","internalType":"address"},{"name":"revocable","type":"bool","internalType":"bool"},{"name":"data","type":"bytes","internalType":"bytes"}]}],"stateMutability":"view"},{"type":"function","name":"getObligationData","inputs":[{"name":"uid","type":"bytes32","internalType":"bytes32"}],"outputs":[{"name":"","type":"tuple","internalType":"struct TokenBundleEscrowObligation.ObligationData","components":[{"name":"arbiter","type":"address","internalType":"address"},{"name":"demand","type":"bytes","internalType":"bytes"},{"name":"erc20Tokens","type":"address[]","internalType":"address[]"},{"name":"erc20Amounts","type":"uint256[]","internalType":"uint256[]"},{"name":"erc721Tokens","type":"address[]","internalType":"address[]"},{"name":"erc721TokenIds","type":"uint256[]","internalType":"uint256[]"},{"name":"erc1155Tokens","type":"address[]","internalType":"address[]"},{"name":"erc1155TokenIds","type":"uint256[]","internalType":"uint256[]"},{"name":"erc1155Amounts","type":"uint256[]","internalType":"uint256[]"}]}],"stateMutability":"view"},{"type":"function","name":"getSchema","inputs":[],"outputs":[{"name":"","type":"tuple","internalType":"struct SchemaRecord","components":[{"name":"uid","type":"bytes32","internalType":"bytes32"},{"name":"resolver","type":"address","internalType":"contract ISchemaResolver"},{"name":"revocable","type":"bool","internalType":"bool"},{"name":"schema","type":"string","internalType":"string"}]}],"stateMutability":"view"},{"type":"function","name":"isPayable","inputs":[],"outputs":[{"name":"","type":"bool","internalType":"bool"}],"stateMutability":"pure"},{"type":"function","name":"multiAttest","inputs":[{"name":"attestations","type":"tuple[]","internalType":"struct Attestation[]","components":[{"name":"uid","type":"bytes32","internalType":"bytes32"},{"name":"schema","type":"bytes32","internalType":"bytes32"},{"name":"time","type":"uint64","internalType":"uint64"},{"name":"expirationTime","type":"uint64","internalType":"uint64"},{"name":"revocationTime","type":"uint64","internalType":"uint64"},{"name":"refUID","type":"bytes32","internalType":"bytes32"},{"name":"recipient","type":"address","internalType":"address"},{"name":"attester","type":"address","internalType":"address"},{"name":"revocable","type":"bool","internalType":"bool"},{"name":"data","type":"bytes","internalType":"bytes"}]},{"name":"values","type":"uint256[]","internalType":"uint256[]"}],"outputs":[{"name":"","type":"bool","internalType":"bool"}],"stateMutability":"payable"},{"type":"function","name":"multiRevoke","inputs":[{"name":"attestations","type":"tuple[]","internalType":"struct Attestation[]","components":[{"name":"uid","type":"bytes32","internalType":"bytes32"},{"name":"schema","type":"bytes32","internalType":"bytes32"},{"name":"time","type":"uint64","internalType":"uint64"},{"name":"expirationTime","type":"uint64","internalType":"uint64"},{"name":"revocationTime","type":"uint64","internalType":"uint64"},{"name":"refUID","type":"bytes32","internalType":"bytes32"},{"name":"recipient","type":"address","internalType":"address"},{"name":"attester","type":"address","internalType":"address"},{"name":"revocable","type":"bool","internalType":"bool"},{"name":"data","type":"bytes","internalType":"bytes"}]},{"name":"values","type":"uint256[]","internalType":"uint256[]"}],"outputs":[{"name":"","type":"bool","internalType":"bool"}],"stateMutability":"payable"},{"type":"function","name":"onERC1155BatchReceived","inputs":[{"name":"","type":"address","internalType":"address"},{"name":"","type":"address","internalType":"address"},{"name":"","type":"uint256[]","internalType":"uint256[]"},{"name":"","type":"uint256[]","internalType":"uint256[]"},{"name":"","type":"bytes","internalType":"bytes"}],"outputs":[{"name":"","type":"bytes4","internalType":"bytes4"}],"stateMutability":"nonpayable"},{"type":"function","name":"onERC1155Received","inputs":[{"name":"","type":"address","internalType":"address"},{"name":"","type":"address","internalType":"address"},{"name":"","type":"uint256","internalType":"uint256"},{"name":"","type":"uint256","internalType":"uint256"},{"name":"","type":"bytes","internalType":"bytes"}],"outputs":[{"name":"","type":"bytes4","internalType":"bytes4"}],"stateMutability":"nonpayable"},{"type":"function","name":"reclaimExpired","inputs":[{"name":"uid","type":"bytes32","internalType":"bytes32"}],"outputs":[{"name":"","type":"bool","internalType":"bool"}],"stateMutability":"nonpayable"},{"type":"function","name":"revoke","inputs":[{"name":"attestation","type":"tuple","internalType":"struct Attestation","components":[{"name":"uid","type":"bytes32","internalType":"bytes32"},{"name":"schema","type":"bytes32","internalType":"bytes32"},{"name":"time","type":"uint64","internalType":"uint64"},{"name":"expirationTime","type":"uint64","internalType":"uint64"},{"name":"revocationTime","type":"uint64","internalType":"uint64"},{"name":"refUID","type":"bytes32","internalType":"bytes32"},{"name":"recipient","type":"address","internalType":"address"},{"name":"attester","type":"address","internalType":"address"},{"name":"revocable","type":"bool","internalType":"bool"},{"name":"data","type":"bytes","internalType":"bytes"}]}],"outputs":[{"name":"","type":"bool","internalType":"bool"}],"stateMutability":"payable"},{"type":"function","name":"supportsInterface","inputs":[{"name":"interfaceId","type":"bytes4","internalType":"bytes4"}],"outputs":[{"name":"","type":"bool","internalType":"bool"}],"stateMutability":"view"},{"type":"function","name":"version","inputs":[],"outputs":[{"name":"","type":"string","internalType":"string"}],"stateMutability":"view"},{"type":"event","name":"EscrowClaimed","inputs":[{"name":"payment","type":"bytes32","indexed":true,"internalType":"bytes32"},{"name":"fulfillment","type":"bytes32","indexed":true,"internalType":"bytes32"},{"name":"fulfiller","type":"address","indexed":true,"internalType":"address"}],"anonymous":false},{"type":"event","name":"EscrowMade","inputs":[{"name":"payment","type":"bytes32","indexed":true,"internalType":"bytes32"},{"name":"buyer","type":"address","indexed":true,"internalType":"address"}],"anonymous":false},{"type":"error","name":"AccessDenied","inputs":[]},{"type":"error","name":"ArrayLengthMismatch","inputs":[]},{"type":"error","name":"AttestationCreateFailed","inputs":[]},{"type":"error","name":"AttestationNotFound","inputs":[{"name":"attestationId","type":"bytes32","internalType":"bytes32"}]},{"type":"error","name":"AttestationRevoked","inputs":[]},{"type":"error","name":"DeadlineExpired","inputs":[]},{"type":"error","name":"ERC1155TransferFailed","inputs":[{"name":"token","type":"address","internalType":"address"},{"name":"from","type":"address","internalType":"address"},{"name":"to","type":"address","internalType":"address"},{"name":"tokenId","type":"uint256","internalType":"uint256"},{"name":"amount","type":"uint256","internalType":"uint256"}]},{"type":"error","name":"ERC20TransferFailed","inputs":[{"name":"token","type":"address","internalType":"address"},{"name":"from","type":"address","internalType":"address"},{"name":"to","type":"address","internalType":"address"},{"name":"amount","type":"uint256","internalType":"uint256"}]},{"type":"error","name":"ERC721TransferFailed","inputs":[{"name":"token","type":"address","internalType":"address"},{"name":"from","type":"address","internalType":"address"},{"name":"to","type":"address","internalType":"address"},{"name":"tokenId","type":"uint256","internalType":"uint256"}]},{"type":"error","name":"InsufficientValue","inputs":[]},{"type":"error","name":"InvalidEAS","inputs":[]},{"type":"error","name":"InvalidEscrowAttestation","inputs":[]},{"type":"error","name":"InvalidFulfillment","inputs":[]},{"type":"error","name":"InvalidLength","inputs":[]},{"type":"error","name":"InvalidSchema","inputs":[]},{"type":"error","name":"InvalidTransfer","inputs":[]},{"type":"error","name":"NotFromObligation","inputs":[]},{"type":"error","name":"NotPayable","inputs":[]},{"type":"error","name":"RevocationFailed","inputs":[{"name":"attestationId","type":"bytes32","internalType":"bytes32"}]},{"type":"error","name":"UnauthorizedCall","inputs":[]}],"bytecode":{"object":"0x61016080604052346102b457604081612d06803803809161002082856102ee565b8339810103126102b45780516001600160a01b038116918282036102b45760200151916001600160a01b0383168084036102b45760405161010081016001600160401b038111828210176102da5760405260cc815260208101927f6164647265737320617262697465722c2062797465732064656d616e642c206184527f6464726573735b5d206572633230546f6b656e732c2075696e743235365b5d2060408301527f6572633230416d6f756e74732c20616464726573735b5d20657263373231546f60608301527f6b656e732c2075696e743235365b5d20657263373231546f6b656e4964732c2060808301527f616464726573735b5d2065726331313535546f6b656e732c2075696e7432353660a08301527f5b5d2065726331313535546f6b656e4964732c2075696e743235365b5d20657260c08301526b6331313535416d6f756e747360a01b60e08301526001608052600460a0525f60c052156102cb576084948460209560e05261012052610100525f604051958680958194630c1af44f60e31b8352606060048401525180918160648501528484015e818101830184905230602483015260016044830152601f01601f191681010301925af19081156102c0575f9161028a575b50610140526040516129f49081610312823960805181610b2c015260a05181610b58015260c05181610b83015260e0518161274d015261010051816109990152610120518181816105500152818161077f0152818161085f01528181610c520152611fc6015261014051818181610590015281816107bf0152818161096701528181610ae801528181610d9d01528181611f1901526121450152f35b90506020813d6020116102b8575b816102a5602093836102ee565b810103126102b457515f6101ee565b5f80fd5b3d9150610298565b6040513d5f823e3d90fd5b6341bc07ff60e11b5f5260045ffd5b634e487b7160e01b5f52604160045260245ffd5b601f909101601f19168101906001600160401b038211908210176102da5760405256fe6080806040526004361015610029575b50361561001a575f80fd5b631574f9f360e01b5f5260045ffd5b5f905f3560e01c90816301ffc9a714610f27575080632c713cd914610c1057806354fd4d5014610b0b5780635bf2f20d14610ad05780636b122fe0146109265780637d2c2931146108245780637f9e0fd21461074757806388e5b2d91461072857806391db0b7e14610728578063bc197c8114610692578063bca73d641461061b578063c6ec507014610518578063c93844be14610327578063cd181c49146102d1578063ce46e046146102b5578063e49617e114610283578063e60c350514610283578063e6c9714d1461015c5763f23a6e610361000f57346101595760a03660031901126101595761011b6110c0565b506101246110d6565b506084356001600160401b03811161015757610144903690600401611232565b5060405163f23a6e6160e01b8152602090f35b505b80fd5b503461015957606036600319011261015957600435906001600160401b038211610159576101406003198336030112610159576040519161019c83611166565b80600401358352602481013560208401526101b96044820161128e565b60408401526101ca6064820161128e565b60608401526101db6084820161128e565b608084015260a481013560a08401526101f660c482016110ec565b60c084015261020760e482016110ec565b60e0840152610104810135801515810361027f576101008401526101248101356001600160401b03811161027f5761024491369101600401611232565b610120830152602435906001600160401b0382116101595760206102758461026f3660048701611232565b90612143565b6040519015158152f35b8280fd5b60206102a160e0610293366113f2565b61029b61274b565b0161278c565b6040516001600160a01b0390911630148152f35b5034610159578060031936011261015957602090604051908152f35b503461015957604036600319011261015957600435906001600160401b03821161015957610120600319833603011261015957602061031f83610312611278565b903391339160040161194d565b604051908152f35b503461015957602036600319011261015957600435906001600160401b03821161015957366023830112156101595781600401356001600160401b0381116101575782019060248201923684116101575761038061209b565b50602081840312610157576024810135906001600160401b03821161027f570191610120908390031261015957604051916103ba8361114a565b6103c6602482016110ec565b835260448101356001600160401b03811161027f578460246103ea92840101611232565b602084015260648101356001600160401b03811161027f57846024610411928401016120de565b604084015260848101356001600160401b03811161027f57846024610438928401016111ba565b606084015260a48101356001600160401b03811161027f5784602461045f928401016120de565b608084015260c48101356001600160401b03811161027f57846024610486928401016111ba565b60a084015260e48101356001600160401b03811161027f578460246104ad928401016120de565b60c08401526101048101356001600160401b03811161027f578460246104d5928401016111ba565b60e0840152610124810135916001600160401b0383116101595750926024610502926105149501016111ba565b61010082015260405191829182611311565b0390f35b50346101595760203660031901126101595761053261209b565b506040516328c44a9960e21b815260048035908201529080826024817f00000000000000000000000000000000000000000000000000000000000000006001600160a01b03165afa91821561060e5781926105ea575b5060208201517f0000000000000000000000000000000000000000000000000000000000000000036105db576105146105cf61012084015160208082518301019101611692565b60405191829182611311565b63629cd40b60e11b8152600490fd5b6106079192503d8084833e6105ff8183611182565b8101906114f5565b905f610588565b50604051903d90823e3d90fd5b5034610159576080366003190112610159576004356001600160401b03811161015757610120600319823603011261015757610655611278565b604435916001600160a01b038316830361068e57606435936001600160a01b038516850361015957602061031f8686868660040161194d565b8380fd5b50346101595760a0366003190112610159576106ac6110c0565b506106b56110d6565b506044356001600160401b038111610157576106d59036906004016111ba565b506064356001600160401b038111610157576106f59036906004016111ba565b506084356001600160401b03811161015757610715903690600401611232565b5060405163bc197c8160e01b8152602090f35b602061027561073636611070565b9261074292919261274b565b611818565b503461015957602036600319011261015957610761611426565b506040516328c44a9960e21b815260048035908201529080826024817f00000000000000000000000000000000000000000000000000000000000000006001600160a01b03165afa91821561060e578192610808575b5060208201517f0000000000000000000000000000000000000000000000000000000000000000036107f9576040516020808252819061051490820185610f9e565b6360000df160e11b8152600490fd5b61081d9192503d8084833e6105ff8183611182565b905f6107b7565b50346101595760203660031901126101595760043590610842611426565b506040516328c44a9960e21b8152600481018390529181836024817f00000000000000000000000000000000000000000000000000000000000000006001600160a01b03165afa8093839461090a575b506108aa576301fb6dd160e01b825260045260249150fd5b506001600160401b0360608301511642106108fb576108f0826108db61012082015160208082518301019101611692565b60c0909101516001600160a01b0316906122a6565b602060405160018152f35b637bf6a16f60e01b8152600490fd5b61091f9194503d8085833e6105ff8183611182565b925f610892565b50346101595780600319360112610159576060806040516109468161112f565b8381528360208201528360408201520152604051906351753e3760e11b82527f00000000000000000000000000000000000000000000000000000000000000006004830152808260248160018060a01b037f0000000000000000000000000000000000000000000000000000000000000000165afa908115610ac4578091610a0f575b606082610514604051928392602084528051602085015260018060a01b0360208201511660408501526040810151151582850152015160808084015260a0830190610f7a565b90503d8082843e610a208184611182565b820191602081840312610157578051906001600160401b03821161027f5701906080828403126101595760405191610a578361112f565b8051835260208101516001600160a01b038116810361027f576020840152610a8160408201611498565b60408401526060810151906001600160401b03821161027f57019083601f830112156101595750606092816020610aba935191016114a5565b828201525f6109c9565b604051903d90823e3d90fd5b503461015957806003193601126101595760206040517f00000000000000000000000000000000000000000000000000000000000000008152f35b50346101595780600319360112610159576020610bfc600161051493610b507f00000000000000000000000000000000000000000000000000000000000000006125de565b908285610b7c7f00000000000000000000000000000000000000000000000000000000000000006125de565b8180610ba77f00000000000000000000000000000000000000000000000000000000000000006125de565b926040519a888c995191829101848b015e880190601760f91b83830152805192839101602183015e010190601760f91b84830152805192839101600283015e010190838201520301601f198101835282611182565b604051918291602083526020830190610f7a565b5034610e88576040366003190112610e88576004359060243590610c32611426565b50610c3b611426565b506040516328c44a9960e21b8152600481018490527f00000000000000000000000000000000000000000000000000000000000000006001600160a01b031691905f81602481865afa5f9181610f0b575b50610ca457846301fb6dd160e01b5f5260045260245ffd5b84906040516328c44a9960e21b81528560048201525f81602481885afa5f9181610eef575b50610ce157856301fb6dd160e01b5f5260045260245ffd5b90859194610cee8261220c565b15610ee057610d5b6020610d0f610120850151828082518301019101611692565b9360018060a01b03855116610d498a8488015193516040519687958694859463e6c9714d60e01b8652606060048701526064860190610f9e565b84810360031901602486015290610f7a565b90604483015203915afa908115610ed5575f91610e9b575b5015610e8c57604051610d8581611100565b8481525f602082015260405190610d9b82611100565b7f0000000000000000000000000000000000000000000000000000000000000000825260208201908152823b15610e885760645f92836020956040519687958694634692626760e01b86525160048601525180516024860152015160448401525af19081610e73575b50610e1d5763614cf93960e01b84526004839052602484fd5b60c0949094018051602095610e3b916001600160a01b0316906122a6565b60018060a01b03905116917fd903ca32e81477af89f5b8a6ce888d185cc715390e49474a77b4c6846254cccd6040519480a460018152f35b610e809195505f90611182565b5f9386610e04565b5f80fd5b630ebe58ef60e11b5f5260045ffd5b90506020813d602011610ecd575b81610eb660209383611182565b81010312610e8857610ec790611498565b87610d73565b3d9150610ea9565b6040513d5f823e3d90fd5b63629cd40b60e11b5f5260045ffd5b610f049192503d805f833e6105ff8183611182565b9087610cc9565b610f209192503d805f833e6105ff8183611182565b905f610c8c565b34610e88576020366003190112610e88576004359063ffffffff60e01b8216809203610e8857602091630271189760e51b8114908115610f69575b5015158152f35b6301ffc9a760e01b14905083610f62565b805180835260209291819084018484015e5f828201840152601f01601f1916010190565b9061014061012061103d9380518452602081015160208501526001600160401b0360408201511660408501526001600160401b0360608201511660608501526001600160401b03608082015116608085015260a081015160a085015260018060a01b0360c08201511660c085015260018060a01b0360e08201511660e08501526101008101511515610100850152015191816101208201520190610f7a565b90565b9181601f84011215610e88578235916001600160401b038311610e88576020808501948460051b010111610e8857565b6040600319820112610e88576004356001600160401b038111610e88578161109a91600401611040565b92909291602435906001600160401b038211610e88576110bc91600401611040565b9091565b600435906001600160a01b0382168203610e8857565b602435906001600160a01b0382168203610e8857565b35906001600160a01b0382168203610e8857565b604081019081106001600160401b0382111761111b57604052565b634e487b7160e01b5f52604160045260245ffd5b608081019081106001600160401b0382111761111b57604052565b61012081019081106001600160401b0382111761111b57604052565b61014081019081106001600160401b0382111761111b57604052565b90601f801991011681019081106001600160401b0382111761111b57604052565b6001600160401b03811161111b5760051b60200190565b9080601f83011215610e885781356111d1816111a3565b926111df6040519485611182565b81845260208085019260051b820101928311610e8857602001905b8282106112075750505090565b81358152602091820191016111fa565b6001600160401b03811161111b57601f01601f191660200190565b81601f82011215610e885780359061124982611217565b926112576040519485611182565b82845260208383010111610e8857815f926020809301838601378301015290565b602435906001600160401b0382168203610e8857565b35906001600160401b0382168203610e8857565b90602080835192838152019201905f5b8181106112bf5750505090565b82516001600160a01b03168452602093840193909201916001016112b2565b90602080835192838152019201905f5b8181106112fb5750505090565b82518452602093840193909201916001016112ee565b9061103d916020815260018060a01b0382511660208201526101006113dc6113c76113b161139b61138561136f61135960208a015161012060408b01526101408a0190610f7a565b60408a0151898203601f190160608b01526112a2565b6060890151888203601f190160808a01526112de565b6080880151878203601f190160a08901526112a2565b60a0870151868203601f190160c08801526112de565b60c0860151858203601f190160e08701526112a2565b60e0850151848203601f1901848601526112de565b92015190610120601f19828503019101526112de565b6020600319820112610e8857600435906001600160401b038211610e8857610140908290036003190112610e885760040190565b6040519061143382611166565b6060610120835f81525f60208201525f60408201525f838201525f60808201525f60a08201525f60c08201525f60e08201525f6101008201520152565b51906001600160401b0382168203610e8857565b51906001600160a01b0382168203610e8857565b51908115158203610e8857565b9291926114b182611217565b916114bf6040519384611182565b829481845281830111610e88578281602093845f96015e010152565b9080601f83011215610e8857815161103d926020016114a5565b602081830312610e88578051906001600160401b038211610e88570161014081830312610e88576040519161152983611166565b815183526020820151602084015261154360408301611470565b604084015261155460608301611470565b606084015261156560808301611470565b608084015260a082015160a084015261158060c08301611484565b60c084015261159160e08301611484565b60e08401526115a36101008301611498565b6101008401526101208201516001600160401b038111610e88576115c792016114db565b61012082015290565b9080601f83011215610e885781516115e7816111a3565b926115f56040519485611182565b81845260208085019260051b820101928311610e8857602001905b82821061161d5750505090565b6020809161162a84611484565b815201910190611610565b9080601f83011215610e8857815161164c816111a3565b9261165a6040519485611182565b81845260208085019260051b820101928311610e8857602001905b8282106116825750505090565b8151815260209182019101611675565b602081830312610e88578051906001600160401b038211610e88570161012081830312610e8857604051916116c68361114a565b6116cf82611484565b835260208201516001600160401b038111610e8857816116f09184016114db565b602084015260408201516001600160401b038111610e8857816117149184016115d0565b604084015260608201516001600160401b038111610e885781611738918401611635565b606084015260808201516001600160401b038111610e88578161175c9184016115d0565b608084015260a08201516001600160401b038111610e885781611780918401611635565b60a084015260c08201516001600160401b038111610e8857816117a49184016115d0565b60c084015260e08201516001600160401b038111610e8857816117c8918401611635565b60e08401526101008201516001600160401b038111610e88576117eb9201611635565b61010082015290565b91908110156118045760051b0190565b634e487b7160e01b5f52603260045260245ffd5b9190928084036118a7575f91345b8584101561189c576118398484846117f4565b3581811161188d578460051b86013561013e1987360301811215610e885730906001600160a01b039061187090890160e00161278c565b16036118825760019103930192611826565b505050505050505f90565b63044044a560e21b5f5260045ffd5b505050505050600190565b63251f56a160e21b5f5260045ffd5b9035601e1982360301811215610e885701602081359101916001600160401b038211610e88578160051b36038313610e8857565b916020908281520191905f5b8181106119035750505090565b909192602080600192838060a01b0361191b886110ec565b1681520194019291016118f6565b81835290916001600160fb1b038311610e885760209260051b809284830137010190565b939092604085019061195f82876127a0565b6060880194915061197085896127a0565b9190500361206757608087019061198782896127a0565b60a08a01949150611998858b6127a0565b919050036120675760c08901906119af828b6127a0565b60e08c019491506119c0858d6127a0565b91905014801590612076575b612067575f5b8b6119dd89826127a0565b9050821015611b07576020611a6191611a2784611a218e828f611a15611a06611a1a92896127a0565b6001600160a01b0394916117f4565b61278c565b16946127a0565b906117f4565b6040516323b872dd60e01b81526001600160a01b038f166004820152306024820152903560448201529283919082905f9082906064820190565b03925af15f9181611acc575b50611ac757505f5b15611a82576001016119d2565b8b8a611ac3611aa784611a218e611aa18f84611a21611a15928b6127a0565b966127a0565b35604051938493634a73404560e11b855230916004860161227b565b0390fd5b611a75565b9091506020813d8211611aff575b81611ae760209383611182565b81010312610e8857611af890611498565b905f611a6d565b3d9150611ada565b50509897989692939594965f985b611b1f888d6127a0565b90508a1015611be5578b611b438b611a218c82611a1a611a158f611a0690896127a0565b3590803b15610e88576040516323b872dd60e01b81526001600160a01b038e16600482015230602482015260448101929092525f908290606490829084905af19081611bd5575b50611bca578b8b611ac3611bae8d611a218e611aa18f84611a21611a15928b6127a0565b3560405193849363045b391760e01b855230916004860161227b565b600190990198611b15565b5f611bdf91611182565b5f611b8a565b9193949a985091949695965f976101008a01975b611c03888c6127a0565b90508a1015611d3c578c8b611c3e8c611a218d611c37838f81611c2f611a15611a06611a21948c6127a0565b1698886127a0565b35946127a0565b35823b15610e8857611ca2928f925f809460405196879586948593637921219560e11b855230906004860192909160c0949260018060a01b0316845260018060a01b031660208401526040830152606082015260a060808201525f60a08201520190565b03925af19081611d2c575b50611d21578c8c611ac38d611ce08e611a218f8f83611a21611cd9611a1583611a21611c37968c6127a0565b9a886127a0565b60405163334a7d1b60e21b81526001600160a01b039586166004820152949093166024850152306044850152606484015290356084830152819060a4820190565b600190990198611bf9565b5f611d3691611182565b5f611cad565b939a50949095969198939a9750604051976020808a015260018060a01b03611d63866110ec565b1660408a01526020850135601e1986360301811215610e8857850191602083359301926001600160401b038111610e88578036038413610e8857611eb899611e71611e6a611e97988e611e58611e51829f611eaa9f8f9190611e39611e849c611e399f611e20611e3f95611e209f611e08815f6101808f948581611e279a6101206060869a01528161016084015284830137010152601f01601f19168d01928a6118b6565b603f198e850384010160808f015291909201916118ea565b91866118b6565b898303603f190160a08b015290611929565b926118b6565b858303603f190160c0870152906118ea565b928d6118b6565b9160e0603f1982860301910152611929565b91896118b6565b8b8303603f19016101008d0152906118ea565b888303603f19016101208a015290611929565b848303603f190161014086015290611929565b03601f198101835282611182565b6040519360c08501908582106001600160401b0383111761111b576001600160401b039160405260018060a01b031692838652166020850152600160408501525f606085015260808401525f60a08401526020604051611f1781611100565b7f000000000000000000000000000000000000000000000000000000000000000081528181019485526040518095819263f17325e760e01b8352846004840152516024830152516040604483015260018060a01b0381511660648301526001600160401b03848201511660848301526040810151151560a4830152606081015160c483015260a0611fb8608083015160c060e4860152610124850190610f7a565b91015161010483015203815f7f00000000000000000000000000000000000000000000000000000000000000006001600160a01b03165af15f9381612033575b5061200c57634a10301360e11b5f5260045ffd5b827f8f7f2dbafd79125e808bf16a53d7fa4e17b8b6374ced76d946a45f94b7bf4d065f80a3565b9093506020813d60201161205f575b8161204f60209383611182565b81010312610e885751925f611ff8565b3d9150612042565b63512509d360e11b5f5260045ffd5b50612081838c6127a0565b90506120916101008d018d6127a0565b91905014156119cc565b604051906120a88261114a565b6060610100835f815282602082015282604082015282808201528260808201528260a08201528260c08201528260e08201520152565b9080601f83011215610e885781356120f5816111a3565b926121036040519485611182565b81845260208085019260051b820101928311610e8857602001905b82821061212b5750505090565b60208091612138846110ec565b81520191019061211e565b7f00000000000000000000000000000000000000000000000000000000000000006020820151036121fd576121778161220c565b156121f7576121976101206121a792015160208082518301019101611692565b9160208082518301019101611692565b6121b181836127d5565b91826121de575b826121c257505090565b6020919250810151818151910120910151602081519101201490565b805182516001600160a01b0390811691161492506121b8565b50505f90565b635f9bd90760e11b5f5260045ffd5b6001600160401b03606082015116801515908161225d575b5061224e57608001516001600160401b031661223f57600190565b637b6227e960e11b5f5260045ffd5b631ab7da6b60e01b5f5260045ffd5b905042115f612224565b80518210156118045760209160051b010190565b6001600160a01b03918216815291811660208301529091166040820152606081019190915260800190565b9190915f5b60408201805180518310156123b2576001600160a01b03906122ce908490612267565b5116905f6020606086019360446122e6878751612267565b5160405163a9059cbb60e01b81526001600160a01b038c16600482015260248101919091529384928391905af15f9181612377575b5061237257505f5b156123325750506001016122ab565b61235683611ac39261234d899660018060a01b039251612267565b51169351612267565b51604051634a73404560e11b815293849330906004860161227b565b612323565b9091506020813d82116123aa575b8161239260209383611182565b81010312610e88576123a390611498565b905f61231b565b3d9150612385565b5050505f905b608081019081518051841015612495576001600160a01b03906123dc908590612267565b51169360a08201946123ef858751612267565b5190803b15610e88576040516323b872dd60e01b81523060048201526001600160a01b038916602482015260448101929092525f908290606490829084905af19081612485575b5061247657505051611ac39161245a916001600160a01b039061234d908390612267565b5160405163045b391760e01b815293849330906004860161227b565b935060019092019190506123b8565b5f61248f91611182565b5f612436565b50929150505f5b60c08301805180518310156125d6576001600160a01b03906124bf908490612267565b51169260e08501946124d2848751612267565b51946101008201956124e5868851612267565b51823b15610e8857604051637921219560e11b81523060048201526001600160a01b038b1660248201526044810192909252606482015260a060848201525f60a482018190529091829060c490829084905af190816125c6575b506125b95750508161256e8161257693612565611ac3979660018060a01b039251612267565b51169651612267565b519251612267565b5160405163334a7d1b60e21b81526001600160a01b03948516600482015230602482015294909316604485015260648401526084830191909152819060a4820190565b945092505060010161249c565b5f6125d091611182565b5f61253f565b505050915050565b805f9172184f03e93ff9f4daa797ed6e38ed64bf6a1f0160401b821015612728575b806d04ee2d6d415b85acef8100000000600a92101561270d575b662386f26fc100008110156126f9575b6305f5e1008110156126e8575b6127108110156126d9575b60648110156126cb575b10156126c0575b600a6021600184019361266585611217565b946126736040519687611182565b808652612682601f1991611217565b013660208701378401015b5f1901916f181899199a1a9b1b9c1cb0b131b232b360811b8282061a83530480156126bb57600a909161268d565b505090565b600190910190612653565b60646002910493019261264c565b61271060049104930192612642565b6305f5e10060089104930192612637565b662386f26fc100006010910493019261262a565b6d04ee2d6d415b85acef81000000006020910493019261261a565b506040915072184f03e93ff9f4daa797ed6e38ed64bf6a1f0160401b8104612600565b7f00000000000000000000000000000000000000000000000000000000000000006001600160a01b0316330361277d57565b634ca8886760e01b5f5260045ffd5b356001600160a01b0381168103610e885790565b903590601e1981360301821215610e8857018035906001600160401b038211610e8857602001918160051b36038313610e8857565b60408101918251516040820190815151116129b6575f5b8151518110156128655784516001600160a01b039061280c908390612267565b511660018060a01b03612820838551612267565b511614801590612840575b612837576001016127ec565b50505050505f90565b5061284f816060860151612267565b5161285e826060860151612267565b511161282b565b5050915060808101918251516080820190815151116129b6575f5b8151518110156128f15784516001600160a01b03906128a0908390612267565b511660018060a01b036128b4838551612267565b5116148015906128cb575b61283757600101612880565b506128da8160a0860151612267565b516128e98260a0860151612267565b5114156128bf565b5050915060c08101918251519260c0820193845151116129b6575f5b8451518110156129ac5781516001600160a01b039061292d908390612267565b511660018060a01b03612941838851612267565b511614801590612986575b801561295f575b6128375760010161290d565b5061296f81610100860151612267565b5161297f82610100860151612267565b5111612953565b506129958160e0860151612267565b516129a48260e0860151612267565b51141561294c565b5050505050600190565b505050505f9056fea264697066735822122029ceff2c4469f513cb27f6f9b9cdea1c8361217c8a5b4e0af14f783d8537dd0764736f6c634300081c0033","linkReferences":{}},"methodIdentifiers":{"ATTESTATION_SCHEMA()":"5bf2f20d","attest((bytes32,bytes32,uint64,uint64,uint64,bytes32,address,address,bool,bytes))":"e60c3505","checkObligation((bytes32,bytes32,uint64,uint64,uint64,bytes32,address,address,bool,bytes),bytes,bytes32)":"e6c9714d","collectEscrow(bytes32,bytes32)":"2c713cd9","decodeObligationData(bytes)":"c93844be","doObligation((address,bytes,address[],uint256[],address[],uint256[],address[],uint256[],uint256[]),uint64)":"cd181c49","doObligationFor((address,bytes,address[],uint256[],address[],uint256[],address[],uint256[],uint256[]),uint64,address,address)":"bca73d64","getObligation(bytes32)":"7f9e0fd2","getObligationData(bytes32)":"c6ec5070","getSchema()":"6b122fe0","isPayable()":"ce46e046","multiAttest((bytes32,bytes32,uint64,uint64,uint64,bytes32,address,address,bool,bytes)[],uint256[])":"91db0b7e","multiRevoke((bytes32,bytes32,uint64,uint64,uint64,bytes32,address,address,bool,bytes)[],uint256[])":"88e5b2d9","onERC1155BatchReceived(address,address,uint256[],uint256[],bytes)":"bc197c81","onERC1155Received(address,address,uint256,uint256,bytes)":"f23a6e61","reclaimExpired(bytes32)":"7d2c2931","revoke((bytes32,bytes32,uint64,uint64,uint64,bytes32,address,address,bool,bytes))":"e49617e1","supportsInterface(bytes4)":"01ffc9a7","version()":"54fd4d50"},"id":118}