{"abi":[{"type":"constructor","inputs":[{"name":"_eas","type":"address","internalType":"contract IEAS"},{"name":"_schemaRegistry","type":"address","internalType":"contract ISchemaRegistry"}],"stateMutability":"nonpayable"},{"type":"receive","stateMutability":"payable"},{"type":"function","name":"ATTESTATION_SCHEMA","inputs":[],"outputs":[{"name":"","type":"bytes32","internalType":"bytes32"}],"stateMutability":"view"},{"type":"function","name":"attest","inputs":[{"name":"attestation","type":"tuple","internalType":"struct Attestation","components":[{"name":"uid","type":"bytes32","internalType":"bytes32"},{"name":"schema","type":"bytes32","internalType":"bytes32"},{"name":"time","type":"uint64","internalType":"uint64"},{"name":"expirationTime","type":"uint64","internalType":"uint64"},{"name":"revocationTime","type":"uint64","internalType":"uint64"},{"name":"refUID","type":"bytes32","internalType":"bytes32"},{"name":"recipient","type":"address","internalType":"address"},{"name":"attester","type":"address","internalType":"address"},{"name":"revocable","type":"bool","internalType":"bool"},{"name":"data","type":"bytes","internalType":"bytes"}]}],"outputs":[{"name":"","type":"bool","internalType":"bool"}],"stateMutability":"payable"},{"type":"function","name":"checkObligation","inputs":[{"name":"obligation","type":"tuple","internalType":"struct Attestation","components":[{"name":"uid","type":"bytes32","internalType":"bytes32"},{"name":"schema","type":"bytes32","internalType":"bytes32"},{"name":"time","type":"uint64","internalType":"uint64"},{"name":"expirationTime","type":"uint64","internalType":"uint64"},{"name":"revocationTime","type":"uint64","internalType":"uint64"},{"name":"refUID","type":"bytes32","internalType":"bytes32"},{"name":"recipient","type":"address","internalType":"address"},{"name":"attester","type":"address","internalType":"address"},{"name":"revocable","type":"bool","internalType":"bool"},{"name":"data","type":"bytes","internalType":"bytes"}]},{"name":"demand","type":"bytes","internalType":"bytes"},{"name":"","type":"bytes32","internalType":"bytes32"}],"outputs":[{"name":"","type":"bool","internalType":"bool"}],"stateMutability":"view"},{"type":"function","name":"decodeObligationData","inputs":[{"name":"data","type":"bytes","internalType":"bytes"}],"outputs":[{"name":"","type":"tuple","internalType":"struct TokenBundlePaymentObligation.ObligationData","components":[{"name":"erc20Tokens","type":"address[]","internalType":"address[]"},{"name":"erc20Amounts","type":"uint256[]","internalType":"uint256[]"},{"name":"erc721Tokens","type":"address[]","internalType":"address[]"},{"name":"erc721TokenIds","type":"uint256[]","internalType":"uint256[]"},{"name":"erc1155Tokens","type":"address[]","internalType":"address[]"},{"name":"erc1155TokenIds","type":"uint256[]","internalType":"uint256[]"},{"name":"erc1155Amounts","type":"uint256[]","internalType":"uint256[]"},{"name":"payee","type":"address","internalType":"address"}]}],"stateMutability":"pure"},{"type":"function","name":"doObligation","inputs":[{"name":"data","type":"tuple","internalType":"struct TokenBundlePaymentObligation.ObligationData","components":[{"name":"erc20Tokens","type":"address[]","internalType":"address[]"},{"name":"erc20Amounts","type":"uint256[]","internalType":"uint256[]"},{"name":"erc721Tokens","type":"address[]","internalType":"address[]"},{"name":"erc721TokenIds","type":"uint256[]","internalType":"uint256[]"},{"name":"erc1155Tokens","type":"address[]","internalType":"address[]"},{"name":"erc1155TokenIds","type":"uint256[]","internalType":"uint256[]"},{"name":"erc1155Amounts","type":"uint256[]","internalType":"uint256[]"},{"name":"payee","type":"address","internalType":"address"}]}],"outputs":[{"name":"uid_","type":"bytes32","internalType":"bytes32"}],"stateMutability":"nonpayable"},{"type":"function","name":"doObligationFor","inputs":[{"name":"data","type":"tuple","internalType":"struct TokenBundlePaymentObligation.ObligationData","components":[{"name":"erc20Tokens","type":"address[]","internalType":"address[]"},{"name":"erc20Amounts","type":"uint256[]","internalType":"uint256[]"},{"name":"erc721Tokens","type":"address[]","internalType":"address[]"},{"name":"erc721TokenIds","type":"uint256[]","internalType":"uint256[]"},{"name":"erc1155Tokens","type":"address[]","internalType":"address[]"},{"name":"erc1155TokenIds","type":"uint256[]","internalType":"uint256[]"},{"name":"erc1155Amounts","type":"uint256[]","internalType":"uint256[]"},{"name":"payee","type":"address","internalType":"address"}]},{"name":"payer","type":"address","internalType":"address"},{"name":"recipient","type":"address","internalType":"address"}],"outputs":[{"name":"uid_","type":"bytes32","internalType":"bytes32"}],"stateMutability":"nonpayable"},{"type":"function","name":"getObligation","inputs":[{"name":"uid","type":"bytes32","internalType":"bytes32"}],"outputs":[{"name":"","type":"tuple","internalType":"struct Attestation","components":[{"name":"uid","type":"bytes32","internalType":"bytes32"},{"name":"schema","type":"bytes32","internalType":"bytes32"},{"name":"time","type":"uint64","internalType":"uint64"},{"name":"expirationTime","type":"uint64","internalType":"uint64"},{"name":"revocationTime","type":"uint64","internalType":"uint64"},{"name":"refUID","type":"bytes32","internalType":"bytes32"},{"name":"recipient","type":"address","internalType":"address"},{"name":"attester","type":"address","internalType":"address"},{"name":"revocable","type":"bool","internalType":"bool"},{"name":"data","type":"bytes","internalType":"bytes"}]}],"stateMutability":"view"},{"type":"function","name":"getObligationData","inputs":[{"name":"uid","type":"bytes32","internalType":"bytes32"}],"outputs":[{"name":"","type":"tuple","internalType":"struct TokenBundlePaymentObligation.ObligationData","components":[{"name":"erc20Tokens","type":"address[]","internalType":"address[]"},{"name":"erc20Amounts","type":"uint256[]","internalType":"uint256[]"},{"name":"erc721Tokens","type":"address[]","internalType":"address[]"},{"name":"erc721TokenIds","type":"uint256[]","internalType":"uint256[]"},{"name":"erc1155Tokens","type":"address[]","internalType":"address[]"},{"name":"erc1155TokenIds","type":"uint256[]","internalType":"uint256[]"},{"name":"erc1155Amounts","type":"uint256[]","internalType":"uint256[]"},{"name":"payee","type":"address","internalType":"address"}]}],"stateMutability":"view"},{"type":"function","name":"getSchema","inputs":[],"outputs":[{"name":"","type":"tuple","internalType":"struct SchemaRecord","components":[{"name":"uid","type":"bytes32","internalType":"bytes32"},{"name":"resolver","type":"address","internalType":"contract ISchemaResolver"},{"name":"revocable","type":"bool","internalType":"bool"},{"name":"schema","type":"string","internalType":"string"}]}],"stateMutability":"view"},{"type":"function","name":"isPayable","inputs":[],"outputs":[{"name":"","type":"bool","internalType":"bool"}],"stateMutability":"pure"},{"type":"function","name":"multiAttest","inputs":[{"name":"attestations","type":"tuple[]","internalType":"struct Attestation[]","components":[{"name":"uid","type":"bytes32","internalType":"bytes32"},{"name":"schema","type":"bytes32","internalType":"bytes32"},{"name":"time","type":"uint64","internalType":"uint64"},{"name":"expirationTime","type":"uint64","internalType":"uint64"},{"name":"revocationTime","type":"uint64","internalType":"uint64"},{"name":"refUID","type":"bytes32","internalType":"bytes32"},{"name":"recipient","type":"address","internalType":"address"},{"name":"attester","type":"address","internalType":"address"},{"name":"revocable","type":"bool","internalType":"bool"},{"name":"data","type":"bytes","internalType":"bytes"}]},{"name":"values","type":"uint256[]","internalType":"uint256[]"}],"outputs":[{"name":"","type":"bool","internalType":"bool"}],"stateMutability":"payable"},{"type":"function","name":"multiRevoke","inputs":[{"name":"attestations","type":"tuple[]","internalType":"struct Attestation[]","components":[{"name":"uid","type":"bytes32","internalType":"bytes32"},{"name":"schema","type":"bytes32","internalType":"bytes32"},{"name":"time","type":"uint64","internalType":"uint64"},{"name":"expirationTime","type":"uint64","internalType":"uint64"},{"name":"revocationTime","type":"uint64","internalType":"uint64"},{"name":"refUID","type":"bytes32","internalType":"bytes32"},{"name":"recipient","type":"address","internalType":"address"},{"name":"attester","type":"address","internalType":"address"},{"name":"revocable","type":"bool","internalType":"bool"},{"name":"data","type":"bytes","internalType":"bytes"}]},{"name":"values","type":"uint256[]","internalType":"uint256[]"}],"outputs":[{"name":"","type":"bool","internalType":"bool"}],"stateMutability":"payable"},{"type":"function","name":"revoke","inputs":[{"name":"attestation","type":"tuple","internalType":"struct Attestation","components":[{"name":"uid","type":"bytes32","internalType":"bytes32"},{"name":"schema","type":"bytes32","internalType":"bytes32"},{"name":"time","type":"uint64","internalType":"uint64"},{"name":"expirationTime","type":"uint64","internalType":"uint64"},{"name":"revocationTime","type":"uint64","internalType":"uint64"},{"name":"refUID","type":"bytes32","internalType":"bytes32"},{"name":"recipient","type":"address","internalType":"address"},{"name":"attester","type":"address","internalType":"address"},{"name":"revocable","type":"bool","internalType":"bool"},{"name":"data","type":"bytes","internalType":"bytes"}]}],"outputs":[{"name":"","type":"bool","internalType":"bool"}],"stateMutability":"payable"},{"type":"function","name":"version","inputs":[],"outputs":[{"name":"","type":"string","internalType":"string"}],"stateMutability":"view"},{"type":"event","name":"BundleTransferred","inputs":[{"name":"payment","type":"bytes32","indexed":true,"internalType":"bytes32"},{"name":"from","type":"address","indexed":true,"internalType":"address"},{"name":"to","type":"address","indexed":true,"internalType":"address"}],"anonymous":false},{"type":"error","name":"AccessDenied","inputs":[]},{"type":"error","name":"ArrayLengthMismatch","inputs":[]},{"type":"error","name":"AttestationRevoked","inputs":[]},{"type":"error","name":"DeadlineExpired","inputs":[]},{"type":"error","name":"InsufficientValue","inputs":[]},{"type":"error","name":"InvalidEAS","inputs":[]},{"type":"error","name":"InvalidLength","inputs":[]},{"type":"error","name":"InvalidSchema","inputs":[]},{"type":"error","name":"InvalidTransfer","inputs":[]},{"type":"error","name":"NotFromObligation","inputs":[]},{"type":"error","name":"NotPayable","inputs":[]}],"bytecode":{"object":"0x61016080604052346102895760408161213d803803809161002082856102c3565b8339810103126102895780516001600160a01b038116918282036102895760200151916001600160a01b0383168084036102895760405160e081016001600160401b038111828210176102af5760405260bc815260208101927f616464726573735b5d206572633230546f6b656e732c2075696e743235365b5d84527f206572633230416d6f756e74732c20616464726573735b5d206572633732315460408301527f6f6b656e732c2075696e743235365b5d20657263373231546f6b656e4964732c60608301527f20616464726573735b5d2065726331313535546f6b656e732c2075696e74323560808301527f365b5d2065726331313535546f6b656e4964732c2075696e743235365b5d206560a08301527f726331313535416d6f756e74732c20616464726573732070617965650000000060c08301526001608052600460a0525f60c052156102a0576084948460209560e05261012052610100525f604051958680958194630c1af44f60e31b8352606060048401525180918160648501528484015e818101830184905230602483015260016044830152601f01601f191681010301925af1908115610295575f9161025f575b5061014052604051611e5690816102e7823960805181610a46015260a05181610a71015260c05181610a9c015260e05181611be6015261010051816108160152610120518181816105100152818161067a01526114320152610140518181816101dd01528181610550015281816106b3015281816107e401528181610a0401526113850152f35b90506020813d60201161028d575b8161027a602093836102c3565b8101031261028957515f6101d8565b5f80fd5b3d915061026d565b6040513d5f823e3d90fd5b6341bc07ff60e11b5f5260045ffd5b634e487b7160e01b5f52604160045260245ffd5b601f909101601f19168101906001600160401b038211908210176102af5760405256fe60806040526004361015610027575b3615610018575f80fd5b631574f9f360e01b5f5260045ffd5b5f3560e01c806354fd4d5014610a275780635bf2f20d146109ed5780635fc86150146109aa57806368c0553a1461093b5780636b122fe0146107a55780637f9e0fd21461060057806388e5b2d9146105d757806391db0b7e146105d7578063c6ec5070146104da578063c93844be14610315578063ce46e046146102fb578063e49617e1146102c9578063e60c3505146102c95763e6c9714d0361000e57346102c55760603660031901126102c5576004356001600160401b0381116102c55761014060031982360301126102c5576040519061010382610d77565b8060040135825260208201906024810135825261012260448201610dd0565b604084015261013360648201610dd0565b6060840190815261014660848301610dd0565b916080850192835260a481013560a086015261016460c48201610b49565b60c086015261017560e48201610b49565b60e086015261010481013580151581036102c5576101008601526101248101356001600160401b0381116102c5576101209160046101b69236920101610dff565b94019384526024356001600160401b0381116102c5576101da903690600401610dff565b927f00000000000000000000000000000000000000000000000000000000000000009051036102b657516001600160401b031680151590816102ac575b5061029d57516001600160401b031661028e5761025161024260209351848082518301019101611842565b91838082518301019101611842565b61025b8183611c39565b918261026e575b50506040519015158152f35b60e0908101519101516001600160a01b0390811691161490505f80610262565b637b6227e960e11b5f5260045ffd5b631ab7da6b60e01b5f5260045ffd5b905042115f610217565b635f9bd90760e11b5f5260045ffd5b5f80fd5b60206102e760e06102d936610d14565b6102e1611be4565b01610edc565b6040516001600160a01b0390911630148152f35b346102c5575f3660031901126102c55760206040515f8152f35b346102c55760203660031901126102c5576004356001600160401b0381116102c557366023820112156102c55780600401356001600160401b0381116102c55781019060248201903682116102c55761036c611727565b506020818403126102c5576024810135906001600160401b0382116102c557019161010090839003126102c557604051906103a682610d93565b60248301356001600160401b0381116102c5578160246103c892860101611980565b825260448301356001600160401b0381116102c5578160246103ec928601016119e5565b602083015260648301356001600160401b0381116102c55781602461041392860101611980565b604083015260848301356001600160401b0381116102c55781602461043a928601016119e5565b606083015260a48301356001600160401b0381116102c55781602461046192860101611980565b608083015260c48301356001600160401b0381116102c557816024610488928601016119e5565b60a083015260e4830135906001600160401b0382116102c557836104ba6101049260246104c5956104d69801016119e5565b60c085015201610b49565b60e082015260405191829182610c4c565b0390f35b346102c55760203660031901126102c5576104f3611727565b506040516328c44a9960e21b815260048035908201525f816024817f00000000000000000000000000000000000000000000000000000000000000006001600160a01b03165afa9081156105cc575f916105aa575b5060208101517f00000000000000000000000000000000000000000000000000000000000000000361059b5761058f6101206104d692015160208082518301019101611842565b60405191829182610c4c565b632f35253160e01b5f5260045ffd5b6105c691503d805f833e6105be8183610daf565b810190611577565b81610548565b6040513d5f823e3d90fd5b60206105f66105e536610b8d565b926105f1929192611be4565b611689565b6040519015158152f35b346102c55760203660031901126102c557606061012060405161062281610d77565b5f81525f60208201525f60408201525f838201525f60808201525f60a08201525f60c08201525f60e08201525f61010082015201526040516328c44a9960e21b815260043560048201525f8160248160018060a01b037f0000000000000000000000000000000000000000000000000000000000000000165afa9081156105cc575f9161078b575b506020810180517f00000000000000000000000000000000000000000000000000000000000000000361077c576104d661012060405193849360208552815160208601525160408501526001600160401b0360408201511660608501526001600160401b0360608201511660808501526001600160401b0360808201511660a085015260a081015160c085015260018060a01b0360c08201511660e085015260018060a01b0360e082015116610100850152610100810151151582850152015161014080840152610160830190610b25565b6360000df160e11b5f5260045ffd5b61079f91503d805f833e6105be8183610daf565b816106aa565b346102c5575f3660031901126102c5576060806040516107c481610d48565b5f81525f60208201525f604082015201526040516351753e3760e11b81527f000000000000000000000000000000000000000000000000000000000000000060048201525f8160248160018060a01b037f0000000000000000000000000000000000000000000000000000000000000000165afa80156105cc575f9061088b575b6060906104d6604051928392602084528051602085015260018060a01b0360208201511660408501526040810151151582850152015160808084015260a0830190610b25565b503d805f833e61089b8183610daf565b8101906020818303126102c5578051906001600160401b0382116102c557016080818303126102c557604051906108d182610d48565b8051825260208101516001600160a01b03811681036102c55760208301526108fb6040820161150c565b60408301526060810151906001600160401b0382116102c5570182601f820112156102c55760609281602061093293519101611519565b82820152610845565b346102c55760603660031901126102c5576004356001600160401b0381116102c55761010060031982360301126102c557602435906001600160a01b03821682036102c5576044356001600160a01b03811681036102c5576020926109a292600401610ef0565b604051908152f35b346102c55760203660031901126102c5576004356001600160401b0381116102c55761010060031982360301126102c5576109a260209133903390600401610ef0565b346102c5575f3660031901126102c55760206040517f00000000000000000000000000000000000000000000000000000000000000008152f35b346102c5575f3660031901126102c5576104d66020610b156001610a6a7f0000000000000000000000000000000000000000000000000000000000000000611a42565b8184610a957f0000000000000000000000000000000000000000000000000000000000000000611a42565b8180610ac07f0000000000000000000000000000000000000000000000000000000000000000611a42565b9260405199878b985191829101848a015e870190601760f91b83830152805192839101602183015e010190601760f91b84830152805192839101600283015e01015f838201520301601f198101835282610daf565b6040519182916020835260208301905b805180835260209291819084018484015e5f828201840152601f01601f1916010190565b35906001600160a01b03821682036102c557565b9181601f840112156102c5578235916001600160401b0383116102c5576020808501948460051b0101116102c557565b60406003198201126102c5576004356001600160401b0381116102c55781610bb791600401610b5d565b92909291602435906001600160401b0382116102c557610bd991600401610b5d565b9091565b90602080835192838152019201905f5b818110610bfa5750505090565b82516001600160a01b0316845260209384019390920191600101610bed565b90602080835192838152019201905f5b818110610c365750505090565b8251845260209384019390920191600101610c29565b60208152610100610cff610ce9610cd3610cbd610ca7610c91610c7b89518860208b01526101208a0190610bdd565b60208a0151898203601f190160408b0152610c19565b6040890151888203601f190160608a0152610bdd565b6060880151878203601f19016080890152610c19565b6080870151868203601f190160a0880152610bdd565b60a0860151858203601f190160c0870152610c19565b60c0850151848203601f190160e0860152610c19565b60e0909301516001600160a01b031691015290565b60206003198201126102c557600435906001600160401b0382116102c5576101409082900360031901126102c55760040190565b608081019081106001600160401b03821117610d6357604052565b634e487b7160e01b5f52604160045260245ffd5b61014081019081106001600160401b03821117610d6357604052565b61010081019081106001600160401b03821117610d6357604052565b90601f801991011681019081106001600160401b03821117610d6357604052565b35906001600160401b03821682036102c557565b6001600160401b038111610d6357601f01601f191660200190565b81601f820112156102c557803590610e1682610de4565b92610e246040519485610daf565b828452602083830101116102c557815f926020809301838601378301015290565b9035601e19823603018112156102c55701602081359101916001600160401b0382116102c5578160051b360383136102c557565b916020908281520191905f5b818110610e925750505090565b909192602080600192838060a01b03610eaa88610b49565b168152019401929101610e85565b81835290916001600160fb1b0383116102c55760209260051b809284830137010190565b356001600160a01b03811681036102c55790565b92610efb8480611baf565b602086019150610f0b8287611baf565b919050036114d9576040850193610f228587611baf565b606088019150610f328289611baf565b919050036114d9576080870195610f498789611baf565b60a08a019150610f59828b611baf565b919050148015906114e8575b6114d957949660e0890195905f5b8a610f7e8180611baf565b90508210156110675760208a8a835f610fd387610fcd8f610fc783610fc0610fbb610fac8a61100e9f611baf565b6001600160a01b039491611665565b610edc565b1697610edc565b95611baf565b90611665565b6040516323b872dd60e01b81526001600160a01b03958616600482015292909416602483015292356044820152938492839182906064820190565b03925af19081156105cc575f9161102e575b501561059b57600101610f73565b90506020813d821161105f575b8161104860209383610daf565b810103126102c5576110599061150c565b5f611020565b3d915061103b565b5050909193979492945f5b8a61107d8782611baf565b90508210156111145790816110ad82610fcd8b6110a7838f98610fbb8f610fac90610fc093611baf565b94611baf565b35833b156102c5576040516323b872dd60e01b81526001600160a01b038d811660048301529290921660248301526044820152915f908390606490829084905af19182156105cc57600192611104575b5001611072565b5f61110e91610daf565b5f6110fd565b505091959497909296935f9760c08b019560018060a01b0316985b611139868d611baf565b90508110156111f25780888a6111808f94610fcd8c61117983610fcd8f8261116b610fbb610fac8f9461117295611baf565b1699610edc565b978b611baf565b3597611baf565b35823b156102c5578d5f809460c4936040519889968795637921219560e11b8752600487015260018060a01b031660248601526044850152606484015260a060848401528160a48401525af19182156105cc576001926111e2575b500161112f565b5f6111ec91610daf565b5f6111db565b50949390959992989796919760405196879660208801602090526112168680610e45565b60408a0161010090526101408a019061122e92610e79565b906112399087610e45565b898303603f190160608b015261124f9291610eb8565b9061125a9086610e45565b888303603f190160808a01526112709291610e79565b9061127b9085610e45565b878303603f190160a08901526112919291610eb8565b9061129c9084610e45565b868303603f190160c08801526112b29291610e79565b906112bd9083610e45565b858303603f190160e08701526112d39291610eb8565b916112dd91610e45565b838303603f19016101008501526112f49291610eb8565b6001600160a01b0361130588610b49565b1661012083015203601f198101825261131e9082610daf565b6040519260c084018481106001600160401b03821117610d635760405260018060a01b031683525f6020840152600160408401525f606084015260808301525f60a083015260405160408101908082106001600160401b03831117610d63576020916040527f000000000000000000000000000000000000000000000000000000000000000081528181019384526040518094819263f17325e760e01b8352846004840152516024830152516040604483015260018060a01b0381511660648301526001600160401b03848201511660848301526040810151151560a4830152606081015160c483015260a0611424608083015160c060e4860152610124850190610b25565b91015161010483015203815f7f00000000000000000000000000000000000000000000000000000000000000006001600160a01b03165af19182156105cc575f926114a5575b50819361147d60018060a01b0391610edc565b16917ff499ed54dafb173ee5c0ac81d260b37d4ceba55eb489caab761ba8a1bc663a345f80a4565b9091506020813d6020116114d1575b816114c160209383610daf565b810103126102c55751905f61146a565b3d91506114b4565b63512509d360e11b5f5260045ffd5b506114f3888a611baf565b905061150260c08b018b611baf565b9190501415610f65565b519081151582036102c557565b92919261152582610de4565b916115336040519384610daf565b8294818452818301116102c5578281602093845f96015e010152565b51906001600160401b03821682036102c557565b51906001600160a01b03821682036102c557565b6020818303126102c5578051906001600160401b0382116102c5570190610140828203126102c557604051916115ac83610d77565b80518352602081015160208401526115c66040820161154f565b60408401526115d76060820161154f565b60608401526115e86080820161154f565b608084015260a081015160a084015261160360c08201611563565b60c084015261161460e08201611563565b60e0840152611626610100820161150c565b610100840152610120810151906001600160401b0382116102c557019080601f830112156102c557815161165c92602001611519565b61012082015290565b91908110156116755760051b0190565b634e487b7160e01b5f52603260045260245ffd5b919092808403611718575f91345b8584101561170d576116aa848484611665565b358181116116fe578460051b86013561013e19873603018112156102c55730906001600160a01b03906116e190890160e001610edc565b16036116f35760019103930192611697565b505050505050505f90565b63044044a560e21b5f5260045ffd5b505050505050600190565b63251f56a160e21b5f5260045ffd5b6040519061173482610d93565b5f60e08360608152606060208201526060604082015260608082015260606080820152606060a0820152606060c08201520152565b6001600160401b038111610d635760051b60200190565b9080601f830112156102c557815161179781611769565b926117a56040519485610daf565b81845260208085019260051b8201019283116102c557602001905b8282106117cd5750505090565b602080916117da84611563565b8152019101906117c0565b9080601f830112156102c55781516117fc81611769565b9261180a6040519485610daf565b81845260208085019260051b8201019283116102c557602001905b8282106118325750505090565b8151815260209182019101611825565b6020818303126102c5578051906001600160401b0382116102c55701610100818303126102c5576040519161187683610d93565b81516001600160401b0381116102c55781611892918401611780565b835260208201516001600160401b0381116102c557816118b39184016117e5565b602084015260408201516001600160401b0381116102c557816118d7918401611780565b604084015260608201516001600160401b0381116102c557816118fb9184016117e5565b606084015260808201516001600160401b0381116102c5578161191f918401611780565b608084015260a08201516001600160401b0381116102c557816119439184016117e5565b60a084015260c0820151916001600160401b0383116102c55761196d60e0926119789483016117e5565b60c085015201611563565b60e082015290565b9080601f830112156102c557813561199781611769565b926119a56040519485610daf565b81845260208085019260051b8201019283116102c557602001905b8282106119cd5750505090565b602080916119da84610b49565b8152019101906119c0565b9080601f830112156102c55781356119fc81611769565b92611a0a6040519485610daf565b81845260208085019260051b8201019283116102c557602001905b828210611a325750505090565b8135815260209182019101611a25565b805f9172184f03e93ff9f4daa797ed6e38ed64bf6a1f0160401b821015611b8c575b806d04ee2d6d415b85acef8100000000600a921015611b71575b662386f26fc10000811015611b5d575b6305f5e100811015611b4c575b612710811015611b3d575b6064811015611b2f575b1015611b24575b600a60216001840193611ac985610de4565b94611ad76040519687610daf565b808652611ae6601f1991610de4565b013660208701378401015b5f1901916f181899199a1a9b1b9c1cb0b131b232b360811b8282061a8353048015611b1f57600a9091611af1565b505090565b600190910190611ab7565b606460029104930192611ab0565b61271060049104930192611aa6565b6305f5e10060089104930192611a9b565b662386f26fc1000060109104930192611a8e565b6d04ee2d6d415b85acef810000000060209104930192611a7e565b506040915072184f03e93ff9f4daa797ed6e38ed64bf6a1f0160401b8104611a64565b903590601e19813603018212156102c557018035906001600160401b0382116102c557602001918160051b360383136102c557565b7f00000000000000000000000000000000000000000000000000000000000000006001600160a01b03163303611c1657565b634ca8886760e01b5f5260045ffd5b80518210156116755760209160051b010190565b80515182515111611e1a575f5b825151811015611cbd5781516001600160a01b0390611c66908390611c25565b511660018060a01b03611c7a838651611c25565b511614801590611c98575b611c9157600101611c46565b5050505f90565b50611ca7816020840151611c25565b51611cb6826020860151611c25565b5111611c85565b506040810191825151604082019081515111611e12575f5b815151811015611d4f5784516001600160a01b0390611cf5908390611c25565b511660018060a01b03611d09838551611c25565b511614801590611d29575b611d2057600101611cd5565b50505050505f90565b50611d38816060860151611c25565b51611d47826060860151611c25565b511415611d14565b50509150608081019182515192608082019384515111611e12575f5b845151811015611e085781516001600160a01b0390611d8b908390611c25565b511660018060a01b03611d9f838851611c25565b511614801590611de2575b8015611dbd575b611d2057600101611d6b565b50611dcc8160c0860151611c25565b51611ddb8260c0860151611c25565b5111611db1565b50611df18160a0860151611c25565b51611e008260a0860151611c25565b511415611daa565b5050505050600190565b505050505f90565b50505f9056fea2646970667358221220cdabd170e9ca40f29c62093397d0fcea0c75dd8ecc0531c76a08b2f01ab0e74764736f6c634300081c0033","linkReferences":{}},"methodIdentifiers":{"ATTESTATION_SCHEMA()":"5bf2f20d","attest((bytes32,bytes32,uint64,uint64,uint64,bytes32,address,address,bool,bytes))":"e60c3505","checkObligation((bytes32,bytes32,uint64,uint64,uint64,bytes32,address,address,bool,bytes),bytes,bytes32)":"e6c9714d","decodeObligationData(bytes)":"c93844be","doObligation((address[],uint256[],address[],uint256[],address[],uint256[],uint256[],address))":"5fc86150","doObligationFor((address[],uint256[],address[],uint256[],address[],uint256[],uint256[],address),address,address)":"68c0553a","getObligation(bytes32)":"7f9e0fd2","getObligationData(bytes32)":"c6ec5070","getSchema()":"6b122fe0","isPayable()":"ce46e046","multiAttest((bytes32,bytes32,uint64,uint64,uint64,bytes32,address,address,bool,bytes)[],uint256[])":"91db0b7e","multiRevoke((bytes32,bytes32,uint64,uint64,uint64,bytes32,address,address,bool,bytes)[],uint256[])":"88e5b2d9","revoke((bytes32,bytes32,uint64,uint64,uint64,bytes32,address,address,bool,bytes))":"e49617e1","version()":"54fd4d50"},"id":119}