{"abi":[{"type":"constructor","inputs":[{"name":"_baseObligation","type":"address","internalType":"contract ERC1155EscrowObligation"},{"name":"_specificAttestation","type":"address","internalType":"contract SpecificAttestationArbiter"}],"stateMutability":"nonpayable"},{"type":"function","name":"checkObligation","inputs":[{"name":"obligation","type":"tuple","internalType":"struct Attestation","components":[{"name":"uid","type":"bytes32","internalType":"bytes32"},{"name":"schema","type":"bytes32","internalType":"bytes32"},{"name":"time","type":"uint64","internalType":"uint64"},{"name":"expirationTime","type":"uint64","internalType":"uint64"},{"name":"revocationTime","type":"uint64","internalType":"uint64"},{"name":"refUID","type":"bytes32","internalType":"bytes32"},{"name":"recipient","type":"address","internalType":"address"},{"name":"attester","type":"address","internalType":"address"},{"name":"revocable","type":"bool","internalType":"bool"},{"name":"data","type":"bytes","internalType":"bytes"}]},{"name":"demand","type":"bytes","internalType":"bytes"},{"name":"counteroffer","type":"bytes32","internalType":"bytes32"}],"outputs":[{"name":"","type":"bool","internalType":"bool"}],"stateMutability":"view"},{"type":"function","name":"paymentObligation","inputs":[],"outputs":[{"name":"","type":"address","internalType":"contract ERC1155EscrowObligation"}],"stateMutability":"view"},{"type":"function","name":"specificAttestation","inputs":[],"outputs":[{"name":"","type":"address","internalType":"contract SpecificAttestationArbiter"}],"stateMutability":"view"},{"type":"error","name":"InvalidObligation","inputs":[]},{"type":"error","name":"InvalidValidation","inputs":[]}],"bytecode":{"object":"0x60c03461009a57601f61065a38819003918201601f19168301916001600160401b0383118484101761009e57808492604094855283398101031261009a578051906001600160a01b038216820361009a5760200151906001600160a01b038216820361009a5760805260a0526040516105a790816100b382396080518181816101cf0152610443015260a05181818161034101526104840152f35b5f80fd5b634e487b7160e01b5f52604160045260245ffdfe6080806040526004361015610012575f80fd5b5f3560e01c9081630ac21e3314610472575080638660b17b1461042e5763e6c9714d1461003d575f80fd5b346103d25760603660031901126103d2576004356001600160401b0381116103d25761014060031982360301126103d25760405161014081018181106001600160401b038211176103be576040528160040135815260208101602483013581526100a9604484016104d4565b60408301526100ba606484016104d4565b92606083019384526100ce608482016104d4565b608084015260a481013560a08401526100e960c482016104e8565b60c08401526100fa60e482016104e8565b60e084015261010481013580151581036103d2576101008401526101248101356001600160401b0381116103d25761012091600461013b9236920101610517565b92019182526024356001600160401b0381116103d25761015f903690600401610517565b916060838051810103126103d25760405193606085018581106001600160401b038211176103be576040526101966020850161055d565b8552606060408501519460208701958652015192604086019384525160405190635bf2f20d60e01b825260208260048160018060a01b037f0000000000000000000000000000000000000000000000000000000000000000165afa918215610423575f926103ef575b50036103d657516001600160401b031680151590816103e5575b506103d6575192835184019260208401946020818603126103d2576020810151906001600160401b0382116103d257019360a090859003126103d2576040519360a085018581106001600160401b038211176103be5760405261027e6020820161055d565b855260408101516001600160401b0381116103d25760209082010186601f820112156103d2578051906102b0826104fc565b976102be604051998a6104b3565b828952602083830101116103d257815f926020809301838b015e88010152602085019586526102ef6060820161055d565b604086018190526080828101516060880190815260a09093015190870190815293516001600160a01b039081169116036103af57519051036103af57519051116103af57516001600160a01b039081167f0000000000000000000000000000000000000000000000000000000000000000909116036103af57516020818051810103126103d2576040519060208201908282106001600160401b038311176103be576020916040520151809152604435036103af57602060405160018152f35b634af2691560e01b5f5260045ffd5b634e487b7160e01b5f52604160045260245ffd5b5f80fd5b637a9e2e8d60e01b5f5260045ffd5b905042115f610219565b9091506020813d60201161041b575b8161040b602093836104b3565b810103126103d25751905f6101ff565b3d91506103fe565b6040513d5f823e3d90fd5b346103d2575f3660031901126103d2576040517f00000000000000000000000000000000000000000000000000000000000000006001600160a01b03168152602090f35b346103d2575f3660031901126103d2577f00000000000000000000000000000000000000000000000000000000000000006001600160a01b03168152602090f35b90601f801991011681019081106001600160401b038211176103be57604052565b35906001600160401b03821682036103d257565b35906001600160a01b03821682036103d257565b6001600160401b0381116103be57601f01601f191660200190565b81601f820112156103d25780359061052e826104fc565b9261053c60405194856104b3565b828452602083830101116103d257815f926020809301838601378301015290565b51906001600160a01b03821682036103d25756fea26469706673582212205247a30f64222ab0aab82852b68864d10aa36e4e291caa03050dcdf8e457458d64736f6c634300081c0033","linkReferences":{}},"methodIdentifiers":{"checkObligation((bytes32,bytes32,uint64,uint64,uint64,bytes32,address,address,bool,bytes),bytes,bytes32)":"e6c9714d","paymentObligation()":"8660b17b","specificAttestation()":"0ac21e33"},"id":102}