{"abi":[{"type":"constructor","inputs":[{"name":"_eas","type":"address","internalType":"contract IEAS"}],"stateMutability":"nonpayable"},{"type":"function","name":"checkStatement","inputs":[{"name":"statement","type":"tuple","internalType":"struct Attestation","components":[{"name":"uid","type":"bytes32","internalType":"bytes32"},{"name":"schema","type":"bytes32","internalType":"bytes32"},{"name":"time","type":"uint64","internalType":"uint64"},{"name":"expirationTime","type":"uint64","internalType":"uint64"},{"name":"revocationTime","type":"uint64","internalType":"uint64"},{"name":"refUID","type":"bytes32","internalType":"bytes32"},{"name":"recipient","type":"address","internalType":"address"},{"name":"attester","type":"address","internalType":"address"},{"name":"revocable","type":"bool","internalType":"bool"},{"name":"data","type":"bytes","internalType":"bytes"}]},{"name":"","type":"bytes","internalType":"bytes"},{"name":"","type":"bytes32","internalType":"bytes32"}],"outputs":[{"name":"","type":"bool","internalType":"bool"}],"stateMutability":"view"},{"type":"function","name":"confirm","inputs":[{"name":"_statement","type":"bytes32","internalType":"bytes32"}],"outputs":[],"stateMutability":"nonpayable"},{"type":"function","name":"confirmations","inputs":[{"name":"","type":"bytes32","internalType":"bytes32"}],"outputs":[{"name":"","type":"bool","internalType":"bool"}],"stateMutability":"view"},{"type":"function","name":"counterofferConfirmed","inputs":[{"name":"","type":"bytes32","internalType":"bytes32"}],"outputs":[{"name":"","type":"bool","internalType":"bool"}],"stateMutability":"view"},{"type":"function","name":"eas","inputs":[],"outputs":[{"name":"","type":"address","internalType":"contract IEAS"}],"stateMutability":"view"},{"type":"function","name":"requestConfirmation","inputs":[{"name":"_statement","type":"bytes32","internalType":"bytes32"}],"outputs":[],"stateMutability":"nonpayable"},{"type":"event","name":"ConfirmationMade","inputs":[{"name":"statement","type":"bytes32","indexed":true,"internalType":"bytes32"},{"name":"counteroffer","type":"bytes32","indexed":true,"internalType":"bytes32"}],"anonymous":false},{"type":"event","name":"ConfirmationRequested","inputs":[{"name":"statement","type":"bytes32","indexed":true,"internalType":"bytes32"},{"name":"confirmer","type":"address","indexed":true,"internalType":"address"},{"name":"counteroffer","type":"bytes32","indexed":true,"internalType":"bytes32"}],"anonymous":false},{"type":"error","name":"CounterOfferAlreadyConfirmed","inputs":[]},{"type":"error","name":"UnauthorizedConfirmation","inputs":[]},{"type":"error","name":"UnauthorizedConfirmationRequest","inputs":[]}],"bytecode":{"object":"0x60a034607357601f6107d338819003918201601f19168301916001600160401b03831184841017607757808492602094604052833981010312607357516001600160a01b0381168103607357608052604051610747908161008c823960805181818160ea0152818161022c01526102860152f35b5f80fd5b634e487b7160e01b5f52604160045260245ffdfe6080806040526004361015610012575f80fd5b5f3560e01c9081631272ff8b146103c857508063797af6271461025b5780638150864d14610217578063e9af8361146100bf578063ec95bfe7146100915763ef4013221461005e575f80fd5b3461008d57602036600319011261008d576004355f526001602052602060ff60405f2054166040519015158152f35b5f80fd5b3461008d57602036600319011261008d576004355f525f602052602060ff60405f2054166040519015158152f35b3461008d57602036600319011261008d576040516328c44a9960e21b815260048035908201819052907f00000000000000000000000000000000000000000000000000000000000000006001600160a01b0316905f81602481855afa9081156101cc575f916101fd575b5060e08101516001600160a01b0316331415806101e6575b6101d75760a05f9101516024604051809481936328c44a9960e21b835260048301525afa9081156101cc575f916101aa575b5060018060a01b0360c0820151169051917f93ece828de650a0159786850192cbcd721ab720e1ee81b00365a5c8d63886b315f80a4005b6101c691503d805f833e6101be8183610520565b8101906105f6565b82610173565b6040513d5f823e3d90fd5b63020a627d60e11b5f5260045ffd5b5060c08101516001600160a01b0316331415610141565b61021191503d805f833e6101be8183610520565b83610129565b3461008d575f36600319011261008d576040517f00000000000000000000000000000000000000000000000000000000000000006001600160a01b03168152602090f35b3461008d57602036600319011261008d576040516328c44a9960e21b815260048035908201819052907f00000000000000000000000000000000000000000000000000000000000000006001600160a01b0316905f81602481855afa9081156101cc575f916103ae575b505f60a08201516024604051809581936328c44a9960e21b835260048301525afa9182156101cc575f92610392575b5060c08201516001600160a01b031633036103835781515f52600160205260ff60405f20541661037457515f525f60205260405f20600160ff1982541617905580515f52600160205260405f20600160ff1982541617905551907fd22fd165f2b163f7b94d6e2b15443105c17bfae3fa2242150644ab76a95d532e5f80a3005b63c231efad60e01b5f5260045ffd5b6331eb5cd360e11b5f5260045ffd5b6103a79192503d805f833e6101be8183610520565b90836102f4565b6103c291503d805f833e6101be8183610520565b836102c5565b3461008d57606036600319011261008d5760043567ffffffffffffffff811161008d57610140600319823603011261008d57610403826104ef565b806004013582526024810135602083015261042060448201610542565b604083015261043160648201610542565b606083015261044260848201610542565b608083015260a481013560a083015261045d60c48201610557565b60c083015261046e60e48201610557565b60e0830152610104810135801515810361008d576101008301526101248101359067ffffffffffffffff821161008d5760046104ad9236920101610587565b61012082015260243567ffffffffffffffff811161008d576104d3903690600401610587565b50515f525f602052602060ff60405f2054166040519015158152f35b610140810190811067ffffffffffffffff82111761050c57604052565b634e487b7160e01b5f52604160045260245ffd5b90601f8019910116810190811067ffffffffffffffff82111761050c57604052565b359067ffffffffffffffff8216820361008d57565b35906001600160a01b038216820361008d57565b67ffffffffffffffff811161050c57601f01601f191660200190565b81601f8201121561008d5780359061059e8261056b565b926105ac6040519485610520565b8284526020838301011161008d57815f926020809301838601378301015290565b519067ffffffffffffffff8216820361008d57565b51906001600160a01b038216820361008d57565b60208183031261008d5780519067ffffffffffffffff821161008d5701906101408282031261008d576040519161062c836104ef565b8051835260208101516020840152610646604082016105cd565b6040840152610657606082016105cd565b6060840152610668608082016105cd565b608084015260a081015160a084015261068360c082016105e2565b60c084015261069460e082016105e2565b60e0840152610100810151801515810361008d576101008401526101208101519067ffffffffffffffff821161008d570181601f8201121561008d578051906106dc8261056b565b926106ea6040519485610520565b8284526020838301011161008d57815f9260208093018386015e830101526101208201529056fea2646970667358221220358c800d297fce577959dfcd222f4675ab903e54c355ec05246da1b033cb29f564736f6c634300081c0033","linkReferences":{}},"methodIdentifiers":{"checkStatement((bytes32,bytes32,uint64,uint64,uint64,bytes32,address,address,bool,bytes),bytes,bytes32)":"1272ff8b","confirm(bytes32)":"797af627","confirmations(bytes32)":"ec95bfe7","counterofferConfirmed(bytes32)":"ef401322","eas()":"8150864d","requestConfirmation(bytes32)":"e9af8361"},"id":113}